:020000021000EC
:10B0000000800020254B0200654B0200674B0200C8
:10B010000000000000000000000000000000000030
:10B02000000000000000000000000000694B02006A
:10B0300000000000000000006B4B02006D4B02009E
:10B0400029DB01006F4B0200B1E301006F4B0200EE
:10B050006F4B02000000000045DF01006F4B020053
:10B060006F4B02006F4B02006F4B02006F4B0200F0
:10B070006F4B02006F4B02006F4B02006F4B0200E0
:10B080006F4B020041B401006F4B02006F4B020096
:10B090001DB501006F4B0200395902006F4B0200D1
:10B0A0006F4B02006F4B0200000000000000000028
:10B0B0000000000000000000000000000000000090
:10B0C00010B5064C2378002B07D1054B002B02D07E
:10B0D000044800E000BF0123237010BD5C34002051
:10B0E00000000000D8600200084B10B5002B03D010
:10B0F0000749084800E000BF07480368002B00D15B
:10B1000010BD064B002BFBD09847F9E7000000006C
:10B1100060340020D86002004834002000000000A5
:10B12000164B002B00D1144B9D46402292029A1AD6
:10B13000924600218B460F461348144A121A00F01B
:10B1400065F80F4B002B00D098470E4B002B00D01A
:10B1500098470020002104000D000D48002802D06F
:10B160000C4800E000BF00F02DF82000290003F09B
:10B170009FFF00F011F8C04600000800008000208A
:10B1800000000000000000005C3400203C41002072
:10B190000000000000000000084B10B50400002B68
:10B1A00002D0002100E000BF054B1868836A002B25
:10B1B00000D09847200000F031F8C04600000000A1
:10B1C0001C5D020070B500260C4D0D4C641BA410D4
:10B1D000A64209D100260AF095FD0A4D0A4C641BCF
:10B1E000A410A64205D170BDB300EB5898470136B4
:10B1F000EEE7B300EB5898470136F2E74034002001
:10B2000040340020403400204434002003008218E1
:10B21000934200D1704719700133F9E7FEE7C04649
:10B22000F8B54E46DE4657464546E0B5224B1978FE
:10B23000994600292AD0214B00249846204B214FC3
:10B2400001269A4603E00134E4B28C421ED2434602
:10B250001B6832009C46E500654428783B688240C4
:10B260001342F0D093433B6002F062FE33002A7831
:10B270005146934009680B40010091408B420BD02E
:10B280004B4601341978E4B28C42E0D33CBC904682
:10B290009946A246AB46F8BD6B689B46002BEFD0A3
:10B2A000697801394B424B41191A4D424D4110000A
:10B2B000E9B2D847E4E7C04678340020A83400203B
:10B2C000A0340020A4340020F8B5124D0700280057
:10B2D00000F0A0FC002807D10124BC400E4E3368CA
:10B2E000234202D0A3433360F8BD380002F020FEB1
:10B2F0000A4A136800280BD02343136033680022E6
:10B300001C43074B28001968346000F023FCEBE76E
:10B31000A343F2E780340020A4340020A0340020AE
:10B320007C340020F0B54746CE4680B50D000700BE
:10B3300083B014000720042A04D803B00CBC904644
:10B340009946F0BD02F0ECFC00282DD0194B1A4AAA
:10B350001F601A4B1D701A4B1C6000231360194AA2
:10B360006C1E1360E4B2002D18D0174B00269946CE
:10B370000323984601AD4246E300FB182A70AE70E5
:10B38000EE709A7818786A7029004A4602F0D2FC6A
:10B390000028D2D1013CE4B2FF2CECD10B4A0021B1
:10B3A0000B4800F0BDFBC8E702F080FC0028CDD0C0
:10B3B000C3E7C046A8340020A03400207834002021
:10B3C0007C340020A4340020C9B2010021B2010065
:10B3D000205D020070B5094D2B78002B0BD00024A6
:10B3E000074E3268E300985C012102F04DFD2B7896
:10B3F0000134A342F5D8002070BDC0467834002047
:10B40000A8340020002300B585B001AA9060002177
:10B4100003481380536000F005F805B000BDC04636
:10B4200001400000BFF34F8F034A044BDA60BFF3C3
:10B430004F8FC046FDE7C0460400FA0500ED00E06E
:10B44000A021F0B50023C6462B4A490000B5535051
:10B450000431535004315350043153504C3953503C
:10B4600004315350254B1B68002B35D0244900264E
:10B470005458244A244F1268A41A00222402240A91
:10B48000904602E0002D18D02B001A68A24214D872
:10B49000A41AB6181A7CDD69002AF3D042469969CD
:10B4A0001A745A693B68002B19D01000984700287D
:10B4B000E8D0FFF7A7FF002DE6D11449144A0B7816
:10B4C00012789A420ED0134A9B009E50802180230E
:10B4D000114A49035B00D15004BC9046F0BD0800FE
:10B4E0009047CFE70132D3B2022B01D00B70EAE7CD
:10B4F00000230B70E7E7C04600100140CC34002069
:10B5000004050000C8340020AC340020C5340020FD
:10B51000C4340020BC34002000E100E0F0B5574600
:10B52000DE464E464546E0B5AE4BAF4A1B68AF49D6
:10B530009A46097813788BB0994200D118E101330B
:10B54000DBB2022B00D117E11370A94A9B009E5871
:10B5500053469B191B02A34A1B0A1360012306933F
:10B56000A44B00201B789B46A34B5A461B68984669
:10B57000A04B45465C785B68474603939D4B9B78A0
:10B580000493984B1B6809939C4B1B7807930023EB
:10B59000089305930193A2421CD003995300894656
:10B5A0009B1804990132DB00D2B24B448A4200D18D
:10B5B000D4E01978022900D1A0E00329EBD1002FB3
:10B5C000E9D03874FF69002FFBD1012300250193D6
:10B5D000A242E2D1019B91469C46059B002B00D0E4
:10B5E000D9E0089B002B02D07E4B099A1A60634673
:10B5F000002B01D0804B1D60069B002B00D067E123
:10B600004346DB1B5A1E93410025DBB206937B4B5E
:10B610003E001B780793734B1B689846764B1B685C
:10B6200001930023029305939C46754B9A46002D87
:10B6300028D06B68A9682C00ED6942469A1A12025C
:10B64000120A524551D85218226063466360A360C3
:10B65000012323746346E361002E00D1BAE0316810
:10B660003000914205D3ADE01968914200D397E0D4
:10B670001800C369521A002BF6D12260E361C4613D
:10B68000002DD6D15B464846984200D1BCE00399D4
:10B690005A008946D21804990133D200DBB24A44D9
:10B6A000994200D19BE00124117805940129EBD146
:10B6B0005468217C05910029E6D19B469368814618
:10B6C0006360D168A1601069E0605269A261079A65
:10B6D000002A00D1F5E0059B0592636042460023F5
:10B6E0009A1A1202120A5245ADD94246D31A1B02C7
:10B6F0001B0A8B425AD2CA1A2260A6E75B68002F47
:10B7000000D148E73900BB422AD09146019A9446BD
:10B710001A0002E09A4207D01900CB69002BF9D138
:10B7200063464A46019336E7634602920193029BC1
:10B730004A4699468B4214D04B461B6802934B46AF
:10B74000DB699946CB61002B00D124E71B68494691
:10B750009C46029B2F0063440B601CE7002228E7F5
:10B76000B946FF69002F09D001233D000193E3E7AB
:10B77000002300260693F3E60023E5E60125214B8E
:10B780009D60012301930893002309930133002551
:10B7900005930793D0E76A46184B127F1A7020E78B
:10B7A000891A19602260E361C46169E76346236016
:10B7B0006360A360012323746346E361002E09D014
:10B7C0000022316801238A1A32600194E6610293F3
:10B7D00026002CE7012301942600029327E700238B
:10B7E00061E7C046C8340020C4340020C5340020BE
:10B7F000BC340020B0340020CC340020B834002009
:10B80000FEFF7F0000100140059B002B00D0D9E017
:10B81000029B002B02D06D4B019A1A60BE4253D09E
:10B82000002E00D197E06A4A6A496B4C885842461C
:10B83000821A12022578120A33680332002D21D1B0
:10B840008025D1266D02B6008D51403E8D51C02716
:10B850008026624DB6027F00EE512E6001250D60FC
:10B860005F49604F0E682F21C046C046C046C046A3
:10B87000C046C046C046C046BE4200D0C0460139A0
:10B88000F2D12570934200D21300A82443445149B9
:10B890001B021B0AE4004E4D0B514A591B1A121A87
:10B8A0001202120A1B0203321B0A9A4239D80023E1
:10B8B0004D4A13700BB03CBC90469946A246AB462D
:10B8C000F0BD01220592B8E6069B002BEFD0A7E75A
:10B8D0003E4B00241B6800250021002013E03A683D
:10B8E000B24218D8F968B61AA4183860FB69002962
:10B8F00007D05246FD613D0012191202120A7A6009
:10B90000B9601F000699002FE9D1002900D17EE619
:10B910002E4A13607BE6002900D050E0961B3E6063
:10B9200075E64B590B512E4B2E491A682F23C046F2
:10B93000C046C046C046C046C046C046C0468A4211
:10B9400000D0C046013BF2D180218023234A8902E6
:10B950005B00D150ABE780218023204A8902D1507F
:10B960008023D22101241B4A5B02890053504039B5
:10B9700053501B4B546019682F231A481D00C046B2
:10B98000C046C046C046C046C046C046C0468142CA
:10B9900000D0C046013DF2D19460144A1660C04602
:10B9A000C046C046C046C046C046C046C0468142AA
:10B9B00000D0C046013BF2D1074B1E7077E7034928
:10B9C0000B60ABE70A4B187022E7C046CC3400206E
:10B9D0000405000000100140B934002000E100E03F
:10B9E0003C3400200024F400B8340020C834002087
:10B9F000B0340020F0B55746DE464E464546032497
:10BA0000E0B583B00700019314400720002C06D056
:10BA100003B03CBC90469946A246AB46F0BD002A16
:10BA2000F6D08026314DB60279302E50802040026B
:10BA30008046D22043462E4E80003350403833504B
:10BA40000120706081462B48006884462A48804661
:10BA50002F208346C046C046C046C046C046C046AA
:10BA6000C046C046C44500D0C0460138F2D1484661
:10BA7000B0605846C046C046C046C046C046C046F4
:10BA8000C046C046C44500D0C0460138F2D11B486C
:10BA9000019B04701A4803601A4BFF201C709970B8
:10BAA0005C705A60184B80221C60184BC5211C70BA
:10BAB000174B52031C70C0235B00EA5089006B587F
:10BAC00083433F3803436B50A123DB002A600439D2
:10BAD000F7506B580F4A00201A40C0231B02134333
:10BAE0006B500D4BF2580D4B1A6091E700E100E0EE
:10BAF000001001403C3400200024F400B934002040
:10BB0000AC340020B0340020CC340020C4340020F9
:10BB1000C5340020FF00FFFF04050000C8340020EA
:10BB200010B50B4B5B68002B0BD0002A07D0002808
:10BB300005D0036808201C7C002C04D010BD072011
:10BB4000FCE70820FAE759745A610020F6E7C0467E
:10BB5000B0340020F0B5C64600B52A4C82B0636808
:10BB600005000E001700002B08D0002806D0072083
:10BB7000042905D802B004BC9046F0BD0820F9E7BE
:10BB80006B69002BFAD06B7C012B30D000239846D8
:10BB90006A460023D01DD37100F07EF86178A37847
:10BBA0004A1CD2B2934224D02378934223D04B0034
:10BBB0005B186168DB008C466344002B1BD00121BD
:10BBC0001148197011495D604158DE609960414625
:10BBD0005F6119616B46D879627000F07DF8802151
:10BBE00080230B4A49035B00D1500020C2E78846FE
:10BBF000CEE70022D8E76B46D87900F06DF8042034
:10BC0000B8E7C046B0340020001001400405000031
:10BC100000E100E070B51E4C0500636882B00820AA
:10BC2000002B2BD0002D29D06B69002B26D06A4623
:10BC30000023D61D2B743000337000F02DF861788E
:10BC4000A2784B1CDBB29A421AD022789A4219D0C1
:10BC50004A0052186168D2008C466244002A11D012
:10BC60000221117055603078637000F035F8802142
:10BC700080230020074A49035B00D15002B070BD09
:10BC80000023E2E7307800F027F80420F6E7C0460A
:10BC9000B034002000E100E0F0B5EFF3108172B69F
:10BCA0000A4B5A68002A0DD101248025084E5C6099
:10BCB0007459084F3C401C6077510270002900D134
:10BCC00062B6F0BD01230370F8E7C046344100209E
:10BCD00000E100E0FC06FFBC10B5084B5A68002AE2
:10BCE0000BD0002809D1EFF3108272B604491C680A
:10BCF0000C605860002A00D162B610BD34410020AB
:10BD000000E100E0F0B52B4C83B063686688002B3F
:10BD100049D05A88284F0332920036019A18BB192D
:10BD200059688023DB00C818824224D2136801338B
:10BD300021D0224D9388AB4214D01388002B11D010
:10BD40001F4862608388016803209B00C9185388DC
:10BD500020700020033300909BB21A4801F006FACD
:10BD600003B0F0BD538803339B00D218824202D245
:10BD700013680133DED1BE19B389002B0BD0052324
:10BD8000022223700E4B0F489A801968013A002353
:10BD900001F048FAE4E7002301220A4801F042FAE0
:10BDA00004232370DCE7044F3601BB1959680A00ED
:10BDB0000832B6E748350020D4350020FFFF0000E8
:10BDC000F43500204C340020F0B5C64600B5436879
:10BDD0008C46002B03D0314A11688B4235D20023A8
:10BDE000624601272E492F4D138080234E68DB00C9
:10BDF000F41800230DE01A68013212D09A88AA4282
:10BE000009D01A88002A06D09A68904602689045A0
:10BE100013D0002B0ED05A88033292009B18A342F5
:10BE2000E9D363461F800137BFB21031032FDCD145
:10BE3000002007E033000833F1E743601A4B1B8909
:10BE40000381012004BC9046F0BD52689342C6D8DD
:10BE50009A07C4D1144A018912899142BFD102685C
:10BE600099688A42BBD10E494A68934207D980201B
:10BE7000C00080464244934201D200230AE04A694E
:10BE800000209342DED98021C90088464244934273
:10BE9000D8D20123624601201380D3E74C3400201E
:10BEA000D4350020FFFF000048350020F0B546469D
:10BEB000D6464F46C0B58C469988904601294BD846
:10BEC000284C0A010432A2180024A146264F141F50
:10BED0002478002C3AD11C68002C3FD06588166865
:10BEE0000335AD0064198025ED00AA465644B442DE
:10BEF0002AD22568013527D0A588BD421ED02588C5
:10BF0000002D1BD01C60002803D0A6880588AE42F7
:10BF1000E2D16546002D03D026882D88AE42DBD1C4
:10BF200042460020A16811601B6853600F4B1B89BB
:10BF300013811CBC90469946A246F0BD6588033526
:10BF4000AD006419B442D4D34C461C60013189B2AF
:10BF5000998010320229BAD10A20EAE71668340023
:10BF60000834C0E7D4350020FFFF0000483500202A
:10BF7000F0B5574645464E46DE46E0B5C74C8BB059
:10BF8000256F8146EB005F1BBF009846E3199A4678
:10BF9000E35D062B27D8C2499A008A5897460028A5
:10BFA00000D0EDE0BF4E327B002A00D1A6E232780D
:10BFB0003073072A17D8BC4992008A589746002840
:10BFC00000D0DDE04246521B92009346A3445A46FD
:10BFD00012790392012A00D1CBE2002A00D1ADE20E
:10BFE000022A00D106E10F2705AE5246127877608B
:10BFF000023A012A00D8CCE0062B61D8AB4A9B005C
:10C00000D3589F464246AA49521B8B469200A2181B
:10C01000568A36015E44002800D0C4E07068318939
:10C020008146127C89008944062A00D93BE3A14954
:10C0300092008A589746002800D0C2E052461679EE
:10C04000012E00D1C5E0002E00D19EE2022E00D1CB
:10C05000D4E0032E20D1984E00900223974A3168F5
:10C06000974801F083F88F4B914A5B8837681B0132
:10C070009446D21851685760B78831601781022200
:10C080006146B2804A465A5453461A7100283CD041
:10C0900043465B1B9B00E35C01208A490E270A781C
:10C0A00005AE82430A70A0E70323337043465D1B4D
:10C0B000AD006519EB88B3812B89F381EB68B36020
:10C0C000814D2F0020372B68002B01D0300098477E
:10C0D0000435BD42F7D1236F1C22D800C01A80005E
:10C0E00020180021FFF792F8636F002B08D0226F11
:10C0F000013B511C03220A4022676367002B0BD1CE
:10C100000421704A13788B4313700BB03CBC9046EB
:10C110009946A246AB46F0BD0020FFF729FFF4E7A1
:10C120000223337043465D1BAD0065192B89B38133
:10C13000AB88F381EB68B3602B7C063B59425941D5
:10C140003174BDE70123337043465D1BAD006519B3
:10C150002B89B381AB88F381EB68B360B0E7002330
:10C160003370ADE705233370AAE7042333704346E9
:10C170005D1BAD006519EB88B3810023F3819FE758
:10C1800052460127127805AE023A7760012A00D99B
:10C1900032E75246917D4D4A106C40181064506C45
:10C1A000411A516428E7D1883089CA1C80180322BB
:10C1B0005242511A7289308152187281012705AE9C
:10C1C00013E701203F4901270A7805AE82430A7030
:10C1D0000BE7374A93461278022A00D161E25A46A9
:10C1E000127C022A00D14DE2022036490A7802432D
:10C1F000B2430A7005AE00227260FDE62E4F0023A6
:10C20000012239682E4801F00DF853464A46BE8097
:10C210001A713BE77288264B12019B189A89002AF3
:10C2200000D1E9E1052302223370234B24489A8090
:10C230001968013A002300F0F5FF0700002F00D134
:10C2400063E71C236B4305AEE35CCEE603201A4B89
:10C25000726899881B6889005918538830700020CB
:10C26000033300909BB2164800F080FF0700E5E71B
:10C2700000233A1DA218009349460133104800F0EC
:10C2800075FF434602215B1B9B00E21811740028D6
:10C2900000D13AE7E35C0E2735E0C0465C3500206C
:10C2A000245D020048350020405D0200605D020010
:10C2B000D43500207C5D0200F43500200C5E0200C5
:10C2C0004C34002044350020DC340020FC340020B5
:10C2D0003A00002349460832A21804310093D84896
:10C2E000013300F043FF43465A1B9200A35CA2189F
:10C2F000D91E4F1EB94105311174002800D104E741
:10C300000E2700E0CF4F4246521B9200A218D18860
:10C310003089CA1C801803225242511A7289308116
:10C320005218728105AEC74A974200D163E75CE6B6
:10C33000C54BC64A1F88C64BC148596800230093A5
:10C34000013300F013FF002800D04DE101233F012D
:10C350005F44BB7343465D1B0623AD006419237421
:10C36000D3E60023BA48B849436043465B1B9B00B1
:10C370009B46E3189B690360FFF726FD002800D069
:10C3800076E75B460A27E35C05AE2EE6B14A536CBE
:10C39000002B00D105E10720116C013B4F1C3840F8
:10C3A000C9001064536453188A58414600209B46C4
:10C3B0004F1BBF00E719B98A9B8889000090494448
:10C3C0009F4800F0D3FE5A46BB8A92889B18BB82D6
:10C3D000BB7D013BDBB2BB75002B01D101333B744C
:10C3E000002800D191E643465B1B9B00E35C0E27CF
:10C3F00089E73A00002349460C32A218009308311D
:10C4000001338F4800F0B2FE43465B1B9B00E318EC
:10C410009B7D0122002B00D0023243465B1B9B0018
:10C42000E1180A74002800D16FE6E35C33E70723C4
:10C4300033700023884A7360116881480093874AEB
:10C44000023300F093FE0700F8E6834973688A8898
:10C450005B8803329B188B8002233370FFF752FCFA
:10C460000700002F00D150E605AE1C236B43E35CB0
:10C4700059E77B4A738893461B015B44596806223F
:10C48000002332706E480093764A023300F06EFE4D
:10C490000700D3E63389724A0133338100231178D0
:10C4A00033734B424B41B372127C53425341F3728C
:10C4B00001233370B37A002B09D00023684AB3728A
:10C4C0009389002B03D1927B002A00D0D5E0F37A28
:10C4D000002B09D00023F372614B9A8B002A03D101
:10C4E0009B7F002B00D0C7E0002333707380736004
:10C4F00043465B1B9B00E35C05AE7CE63278072A73
:10C5000000D970E5584891004058874601233370A0
:10C51000D0E77388504A524910681B018B46C918EE
:10C520004F68486090881760088102219180A4E7D5
:10C53000072A00D957E54D4A5258974605AE0C22B6
:10C5400000213000FEF762FE5B46DB6802AA05931D
:10C5500094460A23634419003000FFF735FC0A278C
:10C56000002853D1434602225B1B9B00E3181A713B
:10C5700064E63F4B1B789B0715D4082200213D48F9
:10C58000FEF744FE022705AE6FE7334B334A1968C6
:10C59000009002232A4800F0E9FD0123524613715E
:10C5A00074E51B68FFDEB81D05AE2018314B320064
:10C5B0000021FFF77BFC071E77D12E4B234A9B8877
:10C5C0001F489B464B4600937168012300F0CEFD47
:10C5D0000E37002800D048E75B46214A1B01D318DC
:10C5E0006A46127B9A7390E5434606215B1B9B00CB
:10C5F000E2181174E35C4EE65968013200231048DA
:10C6000000F010FE04230700337017E65A467168E5
:10C610000B488B880437D3800B88138102AB5E896B
:10C620004B460A4A0093012300F0A0FD002899D14F
:10C6300001220B4B36019B199A73002792E7C046E3
:10C640004C3400201D1D0000FE350020085E020055
:10C65000D0340020FC340020F4350020145E0200A9
:10C66000D43500200C5E0200985D0200B85D020027
:10C67000443500200036002001237380FFF742FB81
:10C680000700EEE601265B46002736019B19596834
:10C690000C4A022300970C4800F068FD5B469F554A
:10C6A000F4E40026EFE70F272DE6082200210748D3
:10C6B000FEF7ACFD0A2F00D0D7E61C236B43E35CEA
:10C6C00099E5C0460C5E02004C3400200036002084
:10C6D00010B50800FFF74CFC10BDC046F0B545464C
:10C6E000DE4657464E46E0B587B001930C8990462A
:10C6F0004D68002C00D1E2E02B689B0700D085E05C
:10C700002F0000260837032304E03A6808371A424E
:10C7100000D07BE00136B442F7D84346002B00D16D
:10C720009BE043461B889C4643465A88694F3B68BA
:10C73000013302933B6000239B46019B032B00D1F6
:10C7400086E0654B5F6F9846032F4CD80826634BF5
:10C75000361B99465B6C0393B34244D80E884988D4
:10C7600033004646366F0491B91903260E40F10096
:10C77000891B89004144CA805A460A7462466E4643
:10C780004A82032236798A820E706E46059A0B81A0
:10C790008A6100234246368A01378E80029E4B8191
:10C7A000CE608C755767002C3CD04946096C039BC2
:10C7B0008C4663441A0007234F461340DB00E10018
:10C7C0004B4469183837A046B246844603E013004C
:10C7D0000835A9421CD01A00280050C850C2BB42DC
:10C7E000F5D14B46F4E7634619013D4B08245B182D
:10C7F00003214942891A5A8952185A81200007B0E8
:10C800003CBC90469946A246AB46F0BD0324F5E7F2
:10C81000534602934B465B6C444660469C464B46EF
:10C8200064445C64002807D00023029A436083724A
:10C830002C4B02601B8903812B4A00241378590773
:10C84000DCD4042100200B431370FFF791FBD5E7E4
:10C850000368059304239B4673E70022E400043435
:10C860002E1D2D1933880836D21892B2AE42F9D156
:10C87000D51CADB20924FD2DC0D8194E3478002C3A
:10C8800007D173893489984644442C19A4B2FF2CEB
:10C890001BD9377C0724002FB0D1738B378B984678
:10C8A0004744EF19BFB2FF2FA8D801239C46063C8E
:10C8B00024013619454475810C894D6836E7002AF4
:10C8C00000D02EE700220325D7E7002300249C4652
:10C8D000EEE7C046583500205C350020FC340020CF
:10C8E000D4350020483500204435002010B50649D5
:10C8F0000C220B78082B05D0044A9C00A050002283
:10C9000001330B70100010BDFC350020DC3400201A
:10C91000F0B5DE4657464E464546E0B58DB014228A
:10C92000002107A8FEF772FCA74F3B789A0712D5A3
:10C93000A64C250020352368002B01D007A8984776
:10C940000434A542F7D100200DB03CBC9046994676
:10C95000A246AB46F0BDDA07F5D4012213433B7083
:10C9600000F0A2FB9A4B1E689A4B1C688023DB00E8
:10C97000E01808239946C0231B019C46A444634643
:10C98000029300239B46A144009303930193924A90
:10C9900021682300914204D147E00433834200D14F
:10C9A000EDE01A680132F8D05B465A4601330321A4
:10C9B0009BB29B46894D120151558023DB009C465A
:10C9C000029B64446044E1449C42E0D1009B002B04
:10C9D00000D0F6E06B461B790B2B05D8804A9B00F4
:10C9E000D3589F46002305937E494B6F032B12D8E3
:10C9F0007D4A526C082A0ED80A6F981803221040FC
:10CA0000C200121A012092008A1810706846007D38
:10CA1000013310714B673B785A0794D404220020ED
:10CA200013433B70FFF7A4FA8DE763686F4A9342A4
:10CA300004D06F4A934245D02300B2E75B461B0106
:10CA40001A00049394460023644900258B546144E2
:10CA50000A0002234C601381AA46A56849460135A5
:10CA600021D0644DA446A8461C00150011E08A6838
:10CA7000B24202D90123160000934A880332930080
:10CA8000A418A4B2C9182C8181420BD20B680133BF
:10CA900008D08A88424502D00A88002AE7D10123BB
:10CAA0009A46EAE764464D4A049B944652466344DC
:10CAB0009A730223019A1A435B4601339BB2019297
:10CAC0009B467AE7039B002B2BD14B4D02232C6016
:10CAD000AB80A268494601324FD0464AA0469446F0
:10CAE00002E00A68013214D08A88624508D00A88B8
:10CAF000002A05D08A68B24202D9160001220092AB
:10CB00004A88033294009B189BB20919AB8081427A
:10CB1000E7D34446022B30D00823019A1A430192EE
:10CB20004BE75A46110102222C4B334DCA545B1875
:10CB300029681A8159605B4601339BB29B46C5E761
:10CB40000B2001E7022305934EE7032305934BE7F0
:10CB500002223B781D4C13430122250093433B7076
:10CB600020352368002B01D007A898470434A5423C
:10CB7000F7D1E8E60123059336E70423CDE71E4B02
:10CB80001B680493002B14D014495B4602228C4688
:10CB90001B015A5463441A815A465C60174B5A80F1
:10CBA0005B4601339BB29B460122019B13430193D9
:10CBB00003E7114B104A1C6002239380013B03934F
:10CBC000F2E7034B1E6005E744350020DC3400200B
:10CBD000583500204C340020DEC0ADDED4350020B6
:10CBE000D85D02005C350020FC340020FE011EF1FF
:10CBF000FF011EF1FFFF0000F43500204835002042
:10CC000030B5040083B00D000520002C0AD00029A7
:10CC100008D06B462000991DFFF7D6F803000A20C4
:10CC2000002B01D103B030BD6B46DA88074B1201EF
:10CC30009B189A89616801329A8129606368002093
:10CC40000C336B600123A372ECE7C046D43500209F
:10CC500010B5040082B00520002C08D06B462000DF
:10CC6000991DFFF7B1F803000A20002B01D102B093
:10CC700010BD6B46DA88084B12019B189A8904385C
:10CC8000002AF4D0A17A0029F1D0013A9A81002338
:10CC90000020A372EBE7C046D435002070B5194BD5
:10CCA0001A780223920701D4180070BD03330028BC
:10CCB000FAD0CA1C92B20433FD2AF5D8124C23785C
:10CCC000002B10D165892389EB18D3189BB2FF2B59
:10CCD00009D8002600231B01E418521962810023A1
:10CCE00006804180E0E7257C0723002DDCD1658BA1
:10CCF000268BAE199619B6B2FF2ED5D80126063B63
:10CD0000E9E7C04644350020D435002030B50F4B4C
:10CD10001A780223920701D4180030BD002812D0DF
:10CD200002880233022AF7D8094912018A18518968
:10CD300044880D1B032DEFD42900002303395181B2
:10CD400003804380E8E70523E6E7C046443500203A
:10CD5000D435002010B50C4B1A780223920701D469
:10CD6000180010BD00290DD00C88084A02339442E7
:10CD7000F6D04A88002AF3D0023B0022FFF7AEFC2F
:10CD80000300EDE70523EBE744350020FFFF00003B
:10CD900070B50523002A04D00B4B1C780223A4078E
:10CDA00001D4180070BD00290CD00D88074C023347
:10CDB000A542F6D04C88002CF3D0023BFFF78EFC46
:10CDC0000300EEE70523ECE744350020FFFF0000F9
:10CDD00010B50523002804D00C4B1A7802239207C3
:10CDE00001D4180010BD00290DD00C88084A023368
:10CDF0009442F6D04A88002AF3D0013B0022FFF784
:10CE00006DFC0300EDE70523EBE7C0464435002049
:10CE1000FFFF000070B5164A02241378990701D469
:10CE2000200070BD134902348842F9D0124D0434F9
:10CE3000696F0329F4D8114E766C082EF0D82C6F48
:10CE40000E1903242640F400A41B0526A4002C1967
:10CE500026700131043E2671E0806967002459077D
:10CE6000DED4042100200B431370FFF781F8D7E7CD
:10CE700044350020FFFF00005C350020FC3400201A
:10CE800070B5154A02241378990701D4200070BDAB
:10CE900012480634416F0329F8D8114D6D6C082DE6
:10CEA000F4D8046F0D1903242540EC00641B0625FB
:10CEB0000131A400255441670A490878002801D0AF
:10CEC0000120087300245907E0D4042100200B43FB
:10CED0001370FFF74DF8D9E7443500205C3500208A
:10CEE000FC3400204835002030B583B06C4601ADDD
:10CEF00029800A49E080097806340220890701D494
:10CF000003B030BD002A06D0002B04D02900200039
:10CF1000FEF7CCFFF4E70520F2E7C04644350020D9
:10CF200030B583B06B46D8800A489C1D0578022036
:10CF3000AB0701D403B030BD002908D0002A06D0C9
:10CF4000130000200A002100FEF7B0FFF2E70520E1
:10CF5000F0E7C0464435002030B583B06B46D8803A
:10CF60000A489C1D05780220AB0701D403B030BDF0
:10CF7000002908D0002A06D0130020000A00002152
:10CF8000FEF794FFF2E70520F0E7C04644350020A5
:10CF9000002805D0002903D0036800200B607047EB
:10CFA0000520FCE729DF704728DF704770B50B4C80
:10CFB0000500626E0020042A0FD0236ED318032BC5
:10CFC00000D9043B0132626618225343E418002161
:10CFD0002000FEF71BF901202C6070BD0C360020EC
:10CFE00070B52F4C86B0636E002B10D0266E750086
:10CFF000AB19DB00E3181A7A012A0AD0022A25D1DC
:10D000009889FFF7D1FF112815D000281ED106B04E
:10D0100070BD9A8AD88A121AFF2A14DC92B2AB1910
:10D02000DB00E318D9681B69800009181818FFF79E
:10D03000B9FF1128E9D102211A4A13788B43042140
:10D040000B431370E3E780225200E8E7102200212F
:10D0500002A8FEF7DBF8AB19DB00E3181A7A012A05
:10D0600015D0022A07D1012202A90A709A89DB8908
:10D070004A81D31A0B81AD19ED0063195B68092150
:10D0800001930393635902A89B689847BFE7002266
:10D0900002A90A701A699B8A04928B81EBE7C04649
:10D0A0000C36002008360020F0B5D6464F464646DE
:10D0B000C0B52A4B5D696B1C4AD0294B99461B7839
:10D0C0009846DB073ED4274B27499C46C91A0909D5
:10D0D00032D00F00080160441A68002A03D05A6851
:10D0E000541EA241BF1A10339842F5D1002F23D00D
:10D0F00000260024F0B263460022A24606E05C68E7
:10D10000002C06D00132103391420BD01C68002C49
:10D11000F5D15C7B5445F5D9D0B20132A24610332B
:10D120009142F3D1030163441A7B5D609202AD1A10
:10D1300001361D60B742DCD1012342461A43130079
:10D140004A46137000201CBC90469946A246F0BD8A
:10D1500080235B055D69AD02AFE7C046001000109B
:10D16000083600204C3400205C340020F0B54746DF
:10D17000CE4680B5284E9946337883B00500884660
:10D1800017000124DB0711D5002817D0234B0134E9
:10D1900098420BD3224B984208D2002A0CD0434627
:10D1A000002B09D03B4306249B0709D0200003B085
:10D1B0000CBC90469946F0BD0324F7E70224F5E73E
:10D1C0002B68013C9845F1D34B466A689B00434469
:10D1D0009A42EBD34B46013C002BE7D001A8FFF766
:10D1E000E5FE03340028E1D0019B0A9A1D605A60D5
:10D1F0000122019B00241A7242461A614A46DF60EE
:10D200009A82062332781A42D0D1043B13433370FA
:10D21000FFF7E6FECAE7C046083600204C3400207F
:10D220005C340020F0B54746CE4680B5254E994681
:10D23000337883B005000F0090460124DB070ED53C
:10D24000002814D0204B0134984208D31F4B984239
:10D2500005D2002909D0BB050624002B09D02000E7
:10D2600003B00CBC90469946F0BD0324F7E70224B6
:10D27000F5E72B68013C9F42F1D343466A689B0265
:10D28000FB189A42EBD34346013C002BE7D001A8A0
:10D29000FFF78CFE03340028E1D04A464146019B4B
:10D2A000BF0A1D605A60019A02231182062113727F
:10D2B0009781327800240A42D1D113433370FFF7AB
:10D2C0008FFECCE7083600204C3400205C34002070
:10D2D000002804D0034B5B6E0360002070470320DE
:10D2E000FCE7C0460C360020F0B54F464646D64611
:10D2F000C0B5A84FA84C3B7884B0266E9A073DD5A0
:10D30000022800D1CDE0032800D189E073009B19E9
:10D31000DB00626EE318002A00D17BE072009046C9
:10D3200042469219D200A218117A01293DD0022951
:10D3300069D0102200216846FDF768FF43469B191B
:10D34000DB00E3181A7AE946012A00D1BFE0022A7D
:10D3500007D1694601220A709A89DB894A81D31A6A
:10D360000B81330049464344DB00E2185268E3581E
:10D370004A609B680921484698474BE004221A42BC
:10D38000C4D09343626E3B70002A43D00222134301
:10D390003B707300984642469219D200A2189B191E
:10D3A000117ADB00E3180129C1D1D08A43469B19C9
:10D3B000DB00E3189A8A121AFF2A00DD84E092B299
:10D3C00043469B19DB00E3188500D96818694919A1
:10D3D0004019FFF7E7FD11281AD102223B78934349
:10D3E000042213433B7015E0AB892A8A0133AB81D9
:10D3F000EB8901339BB2EB819A4200D18EE0636EE0
:10D40000002B07D02B009889FFF7CEFD1128E4D020
:10D4100000288ED104B01CBC90469946A246F0BDAF
:10D420005E4A13780133DBB21370032B00D86DE72B
:10D4300000250021157068461022FDF7E7FE7300F5
:10D4400098469B19DB00E3181A7AE946012A5ED058
:10D45000022A07D1694601220A709A89DB894A812A
:10D46000D31A0B81330049464344DB00E21852686B
:10D47000E3584A6008219B6848469847636E5A1EE5
:10D480006266002A69D102213B788B433B70236E90
:10D4900001332366042BBDD100230026236623001D
:10D4A00039E700239A4652463C4B1A70730098465F
:10D4B0009B19DB00E5182B7A012B11D0022B00D130
:10D4C00092E72B00626E26E78022520078E7002266
:10D4D00069460A706A4619699B8A0291938140E7FE
:10D4E000AA8AE88A131AFF2B0FDD80235B00C0187D
:10D4F00043469D19ED0080B26519E882824232D020
:10D50000636E002B00D051E784E79BB2EFE76A46D9
:10D5100019699B8A157002919381A3E7102200215B
:10D520006846FDF773FE2B7AE946012B2ED0022BBD
:10D5300008D101234A4649461370AA89EB894A81DA
:10D54000D31A0B81330049464344DB00E21852688A
:10D550004A60E35800219B688EE7236E5E1C2666B6
:10D56000042E99D015E7102200216846FDF74EFEE3
:10D570002B7AE946012BDAD100236A4613706B46F9
:10D580002A699A604A46AB8A9381DBE76B4652462A
:10D590001A70F5E7083600200C360020743600209B
:10D5A0000123034215D14210134214D182101342B9
:10D5B00013D1C210134212D10211134211D14211E0
:10D5C000134210D1821113420FD1C0110FD109485B
:10D5D00070470020FCE70120FAE70220F8E703206B
:10D5E000F6E70420F4E70520F2E70620F0E707203D
:10D5F000EEE7C046FFFF000010B5002819D0002953
:10D6000017D00488944222D04488944221D0848840
:10D61000944220D0C48894421FD0048994421ED0E2
:10D62000448994421DD0848994421CD0C089904280
:10D6300000D010BD072001228240002B03D00B78C0
:10D6400013430B70F5E70B7893430B70F1E7002061
:10D65000F1E70120EFE70220EDE70320EBE70420EC
:10D66000E9E70520E7E70620E5E7C046F0B5DE4636
:10D6700057464E464546E0B583B00CAC24780028AA
:10D6800022D0002920D0002A1ED005889D4200D13A
:10D69000E1E045889D4200D1EAE085889D4200D1C5
:10D6A000E8E0C5889D4200D1E6E005899D4200D1B1
:10D6B000E4E045899D4200D1E2E085899D4200D1A8
:10D6C000E0E0C089984206D003B03CBC9046994641
:10D6D000A246AB46F0BD0720012383404842DBB29F
:10D6E000002C5CD103342040904200D9100014007B
:10D6F000042A00D9B6E0D8430D78C0B205400D70B9
:10D70000012C00D1C6E04D7805404D70022C00D1AF
:10D71000C4E08D7805408D70042C00D0BCE0CD783D
:10D720002840C8700420A242CED0151B2E1FB60878
:10D73000AC46751CAB46AD00A846551E2D1B022DF0
:10D7400018D91D021D43A9464E461F043743002623
:10D750001D063D43B2460027ED430C19E6592E4005
:10D76000E6510126B146CA440437DA45F6D34044AF
:10D77000C445A9D0DB430C182578DBB21D402570C9
:10D78000441CA242A0D90C19257802301D402570F6
:10D79000824299D9081802781340037094E7032451
:10D7A0002040904200D910001400042A55D808786F
:10D7B00018430870012C69D0487818434870022C2F
:10D7C00062D0887818438870042C61D1C8781843D7
:10D7D000C8700420A24200D176E7151B2F1FBF0896
:10D7E0000137AC46BD00A846551E2D1B022D1DD984
:10D7F0001E021E43B146A3464C461D041E06254389
:10D8000035430024AA4600268B4401945D465446C5
:10D81000AD592C435D46AC51019C04360134019452
:10D82000A742F3D84044C44500D14DE70D182C78E9
:10D830001C432C70441CA24200D845E70C192578E3
:10D8400002301D432570824200D83DE70818027857
:10D850001343037038E700203EE700240028BCD0C3
:10D860000400A4E70024002800D15EE7040042E79A
:10D87000012031E702202FE703202DE704202BE7CA
:10D88000052029E7062027E70220A3E70120A1E7DA
:10D8900003209FE7012046E7032044E7022042E7F8
:10D8A000002819D00388934218D0438893421AD095
:10D8B0008388934219D0C388934218D00389934236
:10D8C00017D04389934216D08389934215D0C389D8
:10D8D0000020934213D070470020FCE70023194139
:10D8E00001200840F7E70123F9E70223F7E70323C4
:10D8F000F5E70423F3E70523F1E70623EFE7072322
:10D90000EDE7C04630B50023002935D0D40702D555
:10D910000B8883800123940704D55C004D8804198B
:10D92000A5800133540704D55C008D880419A580B7
:10D930000133140704D55C00CD880419A580013398
:10D94000D40604D55C000D890419A5800133940622
:10D9500004D55C004D890419A5800133540604D513
:10D960005C008D890419A5800133D21104D05A00BE
:10D97000C989821891800133036030BD0B7B002B75
:10D9800004D101220B680271036070474B680022CA
:10D99000F9E7C04610B502790300002A08D04868AC
:10D9A0001C688A68011B91420CD9A018186008E015
:10D9B00004688A680868211A914207D80122186011
:10D9C0001A7110BD002218601A71FAE7A01A1860C7
:10D9D000F7E7C046A022044BD205D358034A125C95
:10D9E0000120D3409843704704050000205E0200E8
:10D9F000044BA0211A5C01239340034AC9058B50B4
:10DA00007047C046205E02000C050000044BA021B8
:10DA10001A5C01239340A122C905D2008B507047A4
:10DA2000205E0200A022A1238021D205DB00890311
:10DA3000D1508021C903D15080210904D1508021C7
:10DA40004904D1507047C046A0228021064BD20520
:10DA50008903D1508021C903D15080210904D150BC
:10DA600080214904D15070470C050000A02210B558
:10DA7000074BD205D158074B185C012383401C008B
:10DA8000A1208C430B400449C0001450535010BDDA
:10DA900004050000205E02000C050000A023032204
:10DAA0000B49DB055A5004315A500A495A50043187
:10DAB0005A50A1228021D200890399508021C903A4
:10DAC0009950802109049950802149049950704748
:10DAD000540700005C070000A223A022DB00D2054F
:10DAE000D358034A125C0120D34098437047C04684
:10DAF0001C5E020011280AD012280AD013280AD06E
:10DB00001438431E984103234042184370470020B5
:10DB1000FCE70120FAE70220F8E7C046014B185C59
:10DB20007047C0461C5E020010B51A4B1A68002AE6
:10DB300014D0002280211A60C2220123164C9200C8
:10DB4000C9058B506370A368002B07D01A680020AA
:10DB50005B68A2609847A368002BF7D10F4B1A6847
:10DB6000002A15D000221A60C223802202219B00C5
:10DB7000D205D1500123084CA3702369002B07D094
:10DB80001A6801205B68226198472369002BF7D14E
:10DB900010BDC0460001004078360020040100405E
:10DBA00010B500280BD1064CA368002B07D01A68CB
:10DBB00000205B68A2609847A368002BF7D110BDD6
:10DBC0007836002030B583B06B46DD1D0023280079
:10DBD0002B70FEF761F8144C2378002B09D0E36812
:10DBE00028780133E3600123A370FEF775F803B0D2
:10DBF00030BD6360A3602361E3600C4B1B68DB07EF
:10DC00000CD507F02DFE002805D1A3238022012189
:10DC1000DB00D205D15001232370E0E7032100206F
:10DC200000F006F8EDE7C0467836002000E100E09D
:10DC3000F0B500281EDB1B4A03249446FF22170080
:10DC40008308C026C0B20440E4008901A7400A400E
:10DC5000A2409B006344B6009D59BD432A439A519C
:10DC60001F23C02118401E3B83400E4A49005350D9
:10DC70001360F0BDFF240C4A0325944622000F23B5
:10DC8000C0B20540ED008901AA400C40AC40034001
:10DC9000083B9B089B006344DE6996433443DC6188
:10DCA000DEE7C04600E100E000ED00E070B544258D
:10DCB000184C0820665D002E00D070BD0123402264
:10DCC000FF215B42A3540132A1540132A3542362C9
:10DCD00001326362A362E36223636363A363E3636A
:10DCE000FC390238A35423606360A360E3602361BE
:10DCF0006361A361E361FFF79BFF074B80211E6017
:10DD0000C123064A9B000906D15001230020635518
:10DD1000D3E7C0468C3600207C61004000600040A4
:10DD20004423034AD05C431E9841C0B27047C046AA
:10DD30008C360020F0B5C64600B5504C0825231897
:10DD400020331E787F2E03D8280004BC9046F0BDF7
:10DD5000CD78AC46002D33D00425A8462568012691
:10DD6000013500D185E0B500635901332FD0731C14
:10DD70009D00675901372BD0B31C43451ED29D002F
:10DD80006759013724D0F31C434517D29D006759CA
:10DD900001371DD0331D434510D29D00675901370F
:10DDA00016D0731D434509D29D00675901370FD026
:10DDB0000636464502D2E36901333ED00425C3E767
:10DDC0002569013530D0082305269846CBE7330076
:10DDD0006251624627185EB220373E70002A28D072
:10DDE0008B78002B14D10300A0254A78C133FF3370
:10DDF00092009B00ED055A51CB78002B20D1A4193D
:10DE00003C340B7822789B011343237000259BE759
:10DE1000A022D2059446E025022783006344ED004A
:10DE20005A59BA435A51E7E7042504261D700423C2
:10DE30002261E3183C331870D2E707231C25C7E79B
:10DE40000F4AB6009446A2226644D2000B780D4CCD
:10DE5000B15800022140F82464012040C024B15090
:10DE60001B04A402B158234018430843B0500025B6
:10DE70006AE7002622601E70B2E7C0468C3600209A
:10DE800000600040FFE0FCFF0023F0B5254C2218A5
:10DE90002032D356032B18DDE3183C331B789B0943
:10DEA000032B33D0012B39D0C025AD02A023DB05D5
:10DEB0009C46E02380006044DB00C1581A4C21409E
:10DEC000C150C2582A43C250F0BDD8B20328FBD873
:10DED000164DA227AC46012698006044FF00C559A4
:10DEE0003543C5511800654600274030800080B298
:10DEF00047510029E8D0127852B292001259002AF4
:10DF0000E2D09E40C1239B00EE50DDE7A223A02279
:10DF1000DB00D205D358C340DB07C5D48025AD0252
:10DF2000C4E7C0468C360020FFFFFCFF00600040C5
:10DF3000A223A022DB00D205D358C3400120184001
:10DF40007047C046F0B5DE4657464E46454600216E
:10DF5000E0B5C54A87B0039113680024012B00D1B6
:10DF6000B4E1C24B1A68012A00D1A3E1C04B1A6880
:10DF7000012A00D192E1BF4B1A68012A00D181E148
:10DF8000BD4B1A68012A00D161E123071CD0BB4BAD
:10DF9000A22798460323012600259946FF00264222
:10DFA0000ED0B74AAB009A18D059D1594246D3582F
:10DFB000002B05D04A46090CC0041140C00E9847FA
:10DFC00001357600042DEAD1002C06DB07B03CBCFD
:10DFD00090469946A246AB46F0BD00230493013B10
:10DFE0000593C1339A46B93B9B464023A34AD15679
:10DFF0004B1C2DD0C9B2534608005A469843012302
:10E000000A409340C60805AA925D134220D09B4A5D
:10E010009A4C121820321278890952B29200A258F2
:10E02000002A00D1F1E0032900D1F1E0A025ED059F
:10E03000AC46E02587006744ED007D5903ACA65D42
:10E04000AD03AD0F334200D0B9E0032D00D187E11D
:10E0500002230093013B0326994600254123874A6A
:10E06000D1564B1C2FD0C9B2534608005A4698438C
:10E0700001230A409340C70805AAD25D134222D06B
:10E080007E4A7E4C121820321278890952B29200D0
:10E09000A2580192002A00D1C8E0032900D1C8E0AB
:10E0A000A024E405A04682009044E0224446D20029
:10E0B000A25803ACE75D9203920F3B4200D08FE081
:10E0C000032A00D137E142236C4AD1564B1C2DD094
:10E0D000C9B2534608005A46984301230A40934068
:10E0E000C70805AAD25D134220D0644A634C1218B7
:10E0F00020321278890952B29200A658002E00D11F
:10E100008CE0032900D18BE0A024E405A446820022
:10E110009444E0226446D200A25803ACE75D920327
:10E12000920F3B4268D1032A00D1EFE04323534AC8
:10E13000D1564B1C2AD0C9B2534608005E469843BC
:10E1400001230E40B340C20805AEB65C33421DD079
:10E150004A4C890926182036367876B2B600A65978
:10E16000002E6CD003296CD0A024E405A4468700BF
:10E17000BC44E0276446FF00E75903ACA25CBF0340
:10E18000BF0F134212D1032F00D1A8E0002D00D100
:10E190001CE7A223A022DB00D205D358039A9A429F
:10E1A00000D113E70393049B05931EE7022FEDD1E3
:10E1B000032900D1EEE0002EE8D0B047E6E7022DBB
:10E1C00000D045E7032900D1E7E002230093013B9B
:10E1D000032699460025002A00D13FE790473DE7F6
:10E1E000022A00D06FE7032900D1DAE0019B002B5F
:10E1F00000D168E7984766E7022A97D1032900D142
:10E20000C5E0002E92D0B04790E7032900D01FE769
:10E2100004ACA5192F781F432F7007E7032985D178
:10E2200004AAD21914781C4314706DE7032900D096
:10E2300049E704AAD21914781C43147030E7032963
:10E24000A4D104ACA7183C781C433C708CE7002296
:10E250001A6080231B061C43A022A223D205DB00E8
:10E26000D358039391E6C04600610040046100402A
:10E27000086100400C6100407C6100408C36002049
:10E2800000600040C12248499200895808220A4291
:10E2900000D175E600211443196071E6C12242499C
:10E2A0009200895804220A4200D164E600211443F6
:10E2B000196060E6C1223C499200895802220A4254
:10E2C00000D153E60021144319604FE6C120364CBB
:10E2D000800024581C4000D143E6116041E6032928
:10E2E00000D068E78027BF02E0236246DB00D558F4
:10E2F0002E4A644615406246D550D2584D463A43A0
:10E30000E250002E00D144E7B0473FE7032900D098
:10E3100077E78027BF02E0236246DB00D558234A17
:10E32000644615406246D550D2584D463A43E250B5
:10E33000009B994665E7032900D057E78027BF0275
:10E34000E02342464446DB00D258184D2A40E250B2
:10E35000E2584D463A43E250009B0096994645E705
:10E36000032900D031E780239B029C46E0236446CA
:10E37000DB00FE580D4D2E40FE50FD58042625436F
:10E38000FD5003230093013B9946012523E7C02755
:10E39000BF02C0E7C027BF02A6E7C0239B029C467E
:10E3A000E4E7C027BF02CBE700600040FFFFFCFFAF
:10E3B000C12310B5614A9B00D35884B09B054FD54B
:10E3C00092235B00D15800294AD00021D1508121ED
:10E3D000E5338900FF33D150594B997E002901D193
:10E3E00001315160022269460A7090215348C900E8
:10E3F0004258425069460392DA7D68460A72DA68EA
:10E40000196801920022DA751A765B6898478E21A6
:10E410004A4A49005358002B0FD0494B9C8A987D9B
:10E4200084424FD200205050998A9868405C998A63
:10E43000013189B29982434BD050A2233F4A5B00FD
:10E44000D15800290AD00021D1503D4B997E002996
:10E4500001D001211160DA7D002A42D104B010BD43
:10E46000C123364A9B00D3585B07D0D5842149008D
:10E470005358002BCBD0324BD87D00283ED1505082
:10E48000A321C90052585A7E8242C0D11A7E002A66
:10E4900042D19A7E002A02D10121284A516081206E
:10E4A000C22226498000920088500022684601213D
:10E4B000DA755A7E01700272DA68196801925B6837
:10E4C0009847A4E7002454500028B6D06A46147038
:10E4D00010729A689C75196801925B686846984743
:10E4E000ABE7002268460121DA755A7E017002729C
:10E4F000DA68196801925B689847AFE700205050CE
:10E50000A320C000597E1258D86842545A7ED87D44
:10E510000132D2B25A76B6E7DA751A69D968DA608A
:10E5200000226C46587E1A765A760132207201918A
:10E530002270196868465B68984768E700200040C9
:10E54000D43600201C05000010B50220FFF78EFA1B
:10E5500010BDC046F8B5CE46474680B506000D0052
:10E56000FFF7C8FA0400032812D8012D14D0002D9B
:10E5700022D0022D0CD143001E4C1B18E4186578E4
:10E58000002D05D01C4B1B68002B01D0280098479C
:10E590000CBC90469946F8BD164F430098461B1890
:10E5A000FD5CFB185B78002B13D143461B19FF1849
:10E5B000BA78124B1A55E3E71148FDF72BFB6200BE
:10E5C0000C4B12199B189D780C4B1B5DAB42DFD195
:10E5D000D6E70C4B0A4899460B4B4A461B689900F4
:10E5E000C9184900FDF7B6FA0028DED14B461E7067
:10E5F000DBE7C046383700206C3700207437002036
:10E6000018370020F03600201437002070B5724B08
:10E610001B68DB0700D470BD704E714D33782C78C9
:10E62000002B05D1172CF6D86E4AA300D3589F466D
:10E6300000233370FFF7F6F9F4E70123012033706C
:10E64000FFF714FA684B00221B6868489900C91844
:10E65000FDF780FADFE7012301203370FFF706FAA8
:10E66000614B002219686148FDF774FAD3E7604DE9
:10E670002800FDF7CFFA11231C1B00D18EE00028E3
:10E6800000D08BE0012C0BD0C8306421604307F030
:10E6900091F9554B0022196841432800FDF75AFAB9
:10E6A0000220FFF7A5F9B6E7FFF7BCF912232B709C
:10E6B000B1E7FFF7B7F90020FFF79AF913232B70A2
:10E6C000A9E7FFF7C1F92C70A5E7FFF7ABF9002325
:10E6D0002B70A0E70020FFF77DF9002862D0002012
:10E6E000FFF794F92823022C55D02C7022E0FFF775
:10E6F000ABF90C232B708EE7FFF794F90020FFF79E
:10E7000077F90120FFF774F915232B7083E7FFF7E2
:10E7100089F90120FFF76CF914232B707BE70020A7
:10E72000FFF758F9002850D00020FFF76FF90823B1
:10E7300003222A702C4A2D48116800225943FDF704
:10E7400009FA68E70020FFF745F9002833D00020D8
:10E75000FFF75CF928230422EBE70020FFF748F9D4
:10E7600007232B7057E70020FFF734F9002828D043
:10E770000020FFF74BF905232B701B4B0022196873
:10E780001A484900FDF7E6F945E70020FFF76EF962
:10E7900006232B7064E7163B2C70CBE70220FFF7B3
:10E7A00035F938E70020FFF723F90423022C9CD128
:10E7B000023B2C70BEE70020FFF71AF90423042265
:10E7C000B7E70020FFF714F9D5E70020FFF710F9AD
:10E7D00002230322ADE7C04644370020483700201B
:10E7E00070370020245E0200143700204C370020D0
:10E7F000F436002010B50078FFF77CF903280BD819
:10E8000043001B180548C0184078002804D0044B6A
:10E810001B68002B00D0984710BDC0463837002039
:10E820006C37002010B5FFF757F910BD70B57F4B5E
:10E8300005001B680024DB0701D4200070BD7C4E5E
:10E840003378002B06D1172D00D9EDE0794AAB00C3
:10E85000D3589F463470FFF7E5F8F4E70123012011
:10E860003370FFF703F9744B00221B68734899005B
:10E87000C918FDF76FF90400DFE7012301203370A9
:10E88000FFF7F4F86C4B002219686C48FDF762F949
:10E890000400D2E7FFF7C6F80120FFF7A9F8142219
:10E8A000674B00241A70C8E70020FFF7A1F8072281
:10E8B000634B00241A70C0E7FFF7B4F80020FFF79D
:10E8C00097F80120FFF794F815225D4B00241A7089
:10E8D000B3E70020FFF77EF8002800D199E0002080
:10E8E000FFF794F808230321554A117076E00020C1
:10E8F000FFF770F8002800D185E00020FFF786F8C8
:10E9000028230421F0E70020FFF764F8002800D155
:10E9100084E00020FFF77AF80522494B47481A7037
:10E92000454B002219684900FDF714F9040084E7FB
:10E930000020FFF79BF80622414B1A70A2E7FFF771
:10E9400083F80C223E4B00241A7076E73D4E3000CF
:10E95000FDF760F904001120451B48D0002C46D17A
:10E96000012D0CD0B7306421684307F023F8324BF7
:10E970000022196841433000FDF7ECF80400022042
:10E98000FFF736F859E7FFF74DF812222C4B002419
:10E990001A7052E7FFF746F80020FFF729F8132214
:10E9A000274B00241A7048E7FFF74EF8244B002449
:10E9B0001D7042E7FFF736F80022214B00241A7041
:10E9C0003BE70020FFF706F8002814D00020FFF7EF
:10E9D0001DF82823022D25D0194A1570164A17480C
:10E9E000116800225943FDF7B5F8040025E702201D
:10E9F000FFF70CF821E70020FEF7FAFF0423022DB1
:10EA0000EAD1023BE8E70020FEF7F2FF04230421ED
:10EA10006AE70020FEF7ECFF022364E70020FEF720
:10EA2000E7FF79E7163BD7E7002406E744370020E5
:10EA300048370020845E0200143700204C37002045
:10EA400070370020F4360020204B70B51960204B41
:10EA5000040018601F4B1A60830713D50E221E4B4B
:10EA60001E481A700132DA7001329A7101325A72FC
:10EA70004A080421FCF756FC051E19D0E30712D4FE
:10EA8000280070BDC3070DD4154A00211548FDF7B5
:10EA900047F8051EF4D1144A01211448FDF740F847
:10EAA0000500EDE70025FEF7F9FF002DE8D1EBE7C3
:10EAB000FCF790FC051EE1D10D4A00210D48FDF741
:10EAC0002FF80500E307F0D5EDE7C0461437002026
:10EAD000443700206C37002038370020E45E020005
:10EAE0000DE601000C5F020049E50100045F020031
:10EAF000F5E70100085F020003000720032B00D99F
:10EB00007047012A13D0012917D0002908D0022903
:10EB100019D15800C0180D4B1B185A700020EFE790
:10EB20005800C018094B1B189A700020E8E7002213
:10EB30000129E8D11A000E32D2B258000349C31895
:10EB40005A540020DCE70720DAE7C04638370020B7
:10EB500010B5FEF7E3FFA023DB059C46E023800011
:10EB60006044DB00C25805490A40C250C022C15867
:10EB700092020A43C250002010BDC046FFFFFCFFB6
:10EB800010B50020FFF7E4FF002802D0062800D0CF
:10EB900010BD0120FFF7DCFF0028F9D00628F7D1CF
:10EBA0000020F5E710B50388102B08D0112B05D1F4
:10EBB000294A1368013B1360002B07D010BD264C77
:10EBC0002368002B11D001332360F7E701220221D3
:10EBD0000020FFF791FF00282BD0072829D01F4BDA
:10EBE0001B68002BEAD09847E8E7012200210020AB
:10EBF000FFF782FF002808D0072806D0174B1B68B4
:10EC0000002B00D098472368DDE70722022101206E
:10EC1000FFF772FF002801D00728EFD1042202215C
:10EC20000020FFF769FF0028EDD00728E6D1236810
:10EC3000C9E7072202210120FFF75EFF002801D06B
:10EC40000728CCD10A2200210020FFF755FF002819
:10EC5000B4D00728C3D1B1E77C3700207837002033
:10EC60001F4B10B50C1E186006D00120FFF7DAFD0F
:10EC7000002823D0022323701A4B1B68002B01D0DD
:10EC8000002010BD012202210020FFF735FF0028DF
:10EC900001D00728F5D1072202210120FFF72CFF20
:10ECA000002801D00728ECD10A2200210020FFF71C
:10ECB00023FF0028E4D00728E3D1E1E70020FFF795
:10ECC000B1FD002805D1074B20701B68002BD7D160
:10ECD000D8E70B232370034B1B68002BD0D1D1E75F
:10ECE000783700207C37002076DF704778DF704768
:10ECF0007ADF70477CDF7047A8DF704767DF7047B7
:10ED00003CDF704748DF70477047C04610B5FCF7DE
:10ED100079FB10BD10B5024806F01EFD10BDC046BF
:10ED200064390020012210B5034B04481978514082
:10ED3000197006F00DFD10BD0C3A0020643900205A
:10ED400010B510491048FEF725FE104C81B223681B
:10ED50000F480133236006F041FC082302009A4368
:10ED600007D00C4B984204D00B4B984201D0FCF7D3
:10ED700049FB2068032106F0A3FE4B1E9941074B77
:10ED8000197010BD2C3900203C390020C8380020F3
:10ED90006439002004300000013400001E340020DB
:10EDA00010B50A490A48FEF7F5FDC1B2094806F058
:10EDB00075F8082302009A4307D0074B984204D005
:10EDC000064B984201D0FCF71DFB10BDE438002033
:10EDD000F4380020CC38002004300000013400005A
:10EDE00010B50400FEF780FA200001F003FB10BD0F
:10EDF00010B5040084B001F081FC200004F0ACFCEC
:10EE000021002D4806F074FA21002C4805F02CFF53
:10EE1000200001F01FFC2000FFF7C4FE2388112B07
:10EE20003DD017D9512B24D0552B0AD03A2B08D0DE
:10EE3000200001F07FFA2100214802F01DFE04B0FD
:10EE400010BDA0881321FFF74FFF0028F0D0FCF77A
:10EE5000D9FAEDE7022B27D0102BE9D10720FFF7D5
:10EE6000E5FC002801D0FCF7CDFAA288154B1A80EA
:10EE7000DEE7A379002BDBD0A27B043A022AD7D8A5
:10EE8000022B00D001236A461370C1235B009380DC
:10EE9000A0886946FFF730FF0028C9D0D7E70122D4
:10EEA000084B52421A80C3E7064B00211888FFF72F
:10EEB00025FF0028BCD0CAE764390020CC380020E8
:10EEC0001C3900201C34002010B50378002B00D022
:10EED00010BD054B3B211888FFF706FF0028F7D02F
:10EEE000FCF790FAF4E7C0461C34002010B5072860
:10EEF0001ED00A280ED0042800D010BD134B1321B9
:10EF00001888FFF7F1FE082302009A43F5D0FCF7BA
:10EF100079FAF2E70020FFF789FC002813D1FFF708
:10EF20002FFE00280CD1FFF7EBFE0028E5D0EEE71E
:10EF3000064B1A88064B9A42DFD101F08DFAE2E7C0
:10EF4000FCF760FAEFE7FCF75DFAE8E71C34002015
:10EF5000FFFF000070B51C4B1B78002B32D01B4EFE
:10EF60001B4D31002800FEF715FD1A4C81B2200020
:10EF700006F0D4FB31002800FEF70CFD81B2200022
:10EF800006F0CCFB31002800FEF704FD81B2200022
:10EF900006F0C4FB31002800FEF7FCFC81B2200023
:10EFA00006F0BCFB31002800FEF7F4FC81B2200023
:10EFB00006F0B4FB31002800FEF7ECFC81B2200023
:10EFC00006F0ACFB70BDC0461E340020B4390020F2
:10EFD000C43900206439002010B5002807D0032868
:10EFE00004D10138FFF722FC00280DD110BD00200C
:10EFF000FFF71CFC00280AD1FFF7C2FD002809D149
:10F00000FFF77EFE0028F1D0FCF7FCF9EEE7FCF7F5
:10F01000F9F9F1E7FCF7F6F9F2E7C04600B5037835
:10F0200083B0043BDBB20A2B0AD8144A9B00D358A6
:10F030009F46032001F05CF9002801D0FCF7E2F9BB
:10F0400003B000BD80680028FAD0F7E7FDF718FF8D
:10F050000E28F5D0082302009A43F1D0EEE704F021
:10F0600001FCEDE700690028EAD0E7E7002301A9E9
:10F070000B70408804F0F2FBE2E7C046105F02002C
:10F0800010B5032001F034F9002801D0FCF7BAF9DB
:10F0900010BDC04610B50449044802F0EBFC00283E
:10F0A00001D0FCF7AFF910BD15ED01001C390020AF
:10F0B000F0B5C64600B50023A2B0E34A0521002002
:10F0C000FCF798FC002801D0FCF79CF9DF4A0121ED
:10F0D000DF48FCF725FD002801D0FCF793F9DD4A55
:10F0E0000121DD48FCF71CFD002801D0FCF78AF95E
:10F0F000DA4A0121DA48FCF713FD002801D0FCF7B9
:10F1000081F9D84A0121D848FCF70AFD002801D02E
:10F11000FCF778F9D54AD6490320FFF795FC00287B
:10F1200001D0FCF76FF912AC21000020FFF798FD29
:10F13000002801D0FCF766F9CE4B0AAD1B68D0223F
:10F1400003930A93CC4900232800267806F08EFB0F
:10F15000002801D0FCF756F922000121002006F01A
:10F1600003FC002801D0FCF74DF9200006F014FC48
:10F17000002801D0FCF746F9C04806F0C9FB00287A
:10F1800001D0FCF73FF9BE4806F0CCFB002801D0C7
:10F19000FCF738F904F0F2FA002801D0FCF732F954
:10F1A000022E00D1B4E1052200212000FCF72EF848
:10F1B00001218D22237802200B4313403022134378
:10F1C0007F2213402370072363700933E278A37012
:10F1D00023790A430B43024303432000E270237167
:10F1E00004F02EFB002801D0FCF70CF9A54804F030
:10F1F0000DFB002801D0FCF705F9A348FDF776FBCD
:10F20000002801D0FCF7FEF80F2301212A789F4E39
:10F210009A430A4313401022300013432B7006F028
:10F2200069FD310082B22800FFF764FD002801D09B
:10F23000FCF7E8F89648FFF759FD002801D0FCF7E5
:10F24000E1F8082200212000FBF7E0FF914B2000AD
:10F250001293C8235B041393FFF74AFD002801D0E3
:10F26000FCF7D0F83C2200212000FBF7CFFF02235F
:10F27000012623700433E370033B2382864B202254
:10F28000002128006361A670FBF7C0FF96235B0096
:10F290002B61783B6B610023EE702A000093002104
:10F2A0007E4B200000F04EFF002801D0FCF7AAF8AA
:10F2B000FFF7F0FE02AB9C460B27032305AE674425
:10F2C0001422002130003B70FBF7A0FF00230F2227
:10F2D00001211020059301333371337BB7609343D1
:10F2E0000B4313400343337300237373B373F37BF4
:10F2F0006B4F93430B431A40002302433100380005
:10F30000F273337406F01EF8002801D0FCF77AF887
:10F31000142200212800FBF779FF0F230120102180
:10F320006A7B9A4302431A400A436A73AA7B9A4350
:10F3300002431A400A43AA730022EA732A7C9A43C2
:10F34000104303400B432B74002301220A93AB604C
:10F350002900643353482A712B7305F0B5FC00284B
:10F3600001D0FCF74FF8402200212000FBF74EFFB0
:10F370004D49200001F0D6FA3C210F230120625CA8
:10F380009A430243134010221343635400223D2347
:10F390002000E25405F02CFE002801D0FCF732F8E2
:10F3A00051230126414942480B60133398464B6074
:10F3B0008E600E73FEF7E2FA8C2300253D493E482D
:10F3C0000B60A0334B60233BFF3B8B600D73FEF75C
:10F3D000D5FA434639493A480B609133FF334B60C5
:10F3E0008E600D73FEF7CAFA1C2200212000FBF785
:10F3F0000DFFA0239B026360F0231B03A360032384
:10F4000012952373BB892000E3812E4B2574636121
:10F410002D4BA36101F0E2F8002801D0FBF7F2FFC9
:10F420008021002249022948FCF794FB002801D0E2
:10F43000FBF7E8FF8021002209022548FCF78AFB40
:10F44000002849D046E0C04680370020A1ED0100E9
:10F45000405F020041ED0100445F020055EF0100F2
:10F46000485F020025ED01004C5F0200EDEE010057
:10F47000CD0C00003C5F0200F8370020F1ED0100E8
:10F48000E1ED01001DF0010009ED0100505F0200F7
:10F49000410300004001080210340020D9EF0100B0
:10F4A00064390020CC3800205C5F0200E438002082
:10F4B000F43800202C3900203C390020B4390020D9
:10F4C000C4390020C9EE01000DED0100FC38002018
:10F4D00044390020FBF796FF002211491148FCF740
:10F4E00039FB002801D0FBF78DFFA0210022890203
:10F4F0000D48FCF72FFB002801D0FBF783FFFFF737
:10F50000BFFDFFF7FFFB0028FBD0FBF77BFFF8E711
:10F5100004F0B2F9002800D145E6FBF773FF42E69C
:10F5200066260000CC390020EC39002071DF7047DE
:10F5300072DF704779DF70477DDF704765DF7047A6
:10F54000F0B5DE4657464E464546E0B587B09B4689
:10F5500010AB914604CB07001B88029101931388DE
:10F56000904603930388002B00D16EE000239A4657
:10F5700004AB0024DD1C03E03B880134A3422EDDF4
:10F580007B68A1009C460422614405A806F097FB15
:10F590000022290005A8FFF7D1FF061E2BD12B78EA
:10F5A0004B45E9D15346002B2DD043461A884B4694
:10F5B0000199D3188B421DDC5A44290005A8FFF796
:10F5C000BDFF00283BD142462B78128801349B189E
:10F5D0004246138001239A463B88A342D0DC53461F
:10F5E000002B32D043461B88039A013B9B1A9BB2E7
:10F5F000FF2B26D90C26300007B03CBC904699461C
:10F60000A246AB46F0BD43464A461B8801999A186C
:10F6100002328A42EEDC4246013369469BB21380D5
:10F620005A46097A05A8D15443461A88290001325E
:10F6300092B21A805A44FFF781FF0028C3D0060017
:10F64000D9E711005A465354D5E70026D3E7C04600
:10F65000F0B557464E464546DE460023E0B51788CE
:10F6600013802D331400C25C87B005000E00002308
:10F67000002A50D1AA78002A00D078E0E978002941
:10F6800034D16A68002A14D0D91CB94226D8022184
:10F690001278F1542388083101339BB22380F1544E
:10F6A000238852B201339BB22380F2542388013362
:10F6B00023802B89002B00D031E12B8A002B00D036
:10F6C00047E12B8B002B00D05DE12B6A002B00D192
:10F6D000B0E02288911DB94200D869E00C2007B043
:10F6E0003CBC90469946A246AB46F0BDDA1CBA42F5
:10F6F000F4D80222F2542388013A01339BB22380CA
:10F70000F254238801339BB22380F15423880133C0
:10F710009BB22380B5E70C20082FE0D904A8FFF79F
:10F7200005FF0028DBD1082223880921F254238811
:10F73000133201339BB22380F25402AB9C462088E3
:10F74000153A013080B220806144301806F0B7FAD3
:10F75000238802AA0633127A9BB22380002A00D0A3
:10F760000122F254238801339BB2238082E70433C1
:10F770000C20BB42B3D804A8FFF7DCFE0028AED1B2
:10F7800003222388F2542388163201339BB223804C
:10F79000F254238802AA01339BB212892380F31802
:10F7A0001A70120A5A70238802339BB2238065E7CD
:10F7B00019888A46052900D8AFE0AD48504480B288
:10F7C0008046AC488446804500D8A6E058888146EB
:10F7D000052800D8A1E0A64869468046C8444046AE
:10F7E000C881C889604500D897E0A348824504D005
:10F7F000814502D0CA4500D98FE00521B154228845
:10F800000D31013292B22280B1542288013292B27B
:10F8100022801988B2181170090A517022880232A8
:10F8200092B222805988B2181170090A5170238847
:10F83000023323806B6A9846002B2FD0998820884A
:10F840008A1C831C9B18BB4200D947E7FE2A00D9BB
:10F8500044E7FF2203313154238801339BB22380D4
:10F86000F2544246238801339BB223801288F31856
:10F870001A70120A5A7043462088023080B22080E3
:10F880009A88002A0AD09968002946D0301806F0D4
:10F8900016FA4246238892889B1823802C23EB5C1F
:10F8A000002B00D08FE02B780020002B00D116E732
:10F8B0002A880720012A00D111E72288901CB8422B
:10F8C00000D90BE7012B05D16B7802339B189F42BF
:10F8D00000D203E7023FBF1ABFB202AB301804A93F
:10F8E0001F81FFF729FE002800D0F8E62B78022BB5
:10F8F00000D1B5E0012B60D00822FE2F00D9EDE643
:10F900002388791CF154238801339BB22380F2545D
:10F9100023880133FF182780E1E60720DFE608236C
:10F920009846A844019700943300022202214046E1
:10F93000FFF706FE002800D0D1E6019700943300BF
:10F94000102206214046FFF7FBFD002800D1B4E657
:10F95000C5E610239846A84401970094330002227C
:10F9600003214046FFF7ECFD002800D0B7E60197E1
:10F9700000943300102207214046FFF7E1FD0028E4
:10F9800000D19EE6ABE618239846A8440197009460
:10F990003300022214214046FFF7D2FD002800D098
:10F9A0009DE6019700943300102215214046FFF791
:10F9B000C7FD002800D188E691E66B789F429BD373
:10F9C0001F00082299E7AB6A9846002BA5D09B88B8
:10F9D0000233FE2B00D981E6002291461632924670
:10F9E000163293462088524601333354238801331C
:10F9F0009BB22380F2544246238801339BB223807A
:10FA00001288F3181A70120A5A704346208802307E
:10FA100080B220809A88002A0CD09968002900D1F1
:10FA20007BE7301806F04BF9434620889B88C018C6
:10FA300080B220804B460133DBB299465B46EB5CDB
:10FA40004B4500D82FE74B46AA6A5B0090464B44D3
:10FA50009B00984443469B880233FE2BC3D93DE666
:10FA600002AB1B899F4200D246E71F00092244E7F0
:10FA70007FF3FFFF7DF30000FFFF0000F0B5464677
:10FA8000D6464F461F23C0B596B002AA04000E000A
:10FA9000D38100282ED0C078430724D5002302AAA2
:10FAA00093812D33E35C002B00D06EE1A3780EAF81
:10FAB000002B00D0A6E100230021032206AD02277F
:10FAC0006F54591C02339BB289B2013F6F54E85402
:10FAD00093B202AA93816268002A39D0D91C1F29E7
:10FAE00029D90C2000E0072016B01CBC904699468E
:10FAF000A246F0BD002502AB9881002E16D0F37807
:10FB0000002BF0D102AA94460E2363441A000EA9DA
:10FB10003000FFF79DFD0028E6D102AB9B7B0EAACB
:10FB200002A9097B2800FFF703FDDDE702ABDE81B8
:10FB300000220023F4E70020105602220A27EA548C
:10FB40005A1C02339BB292B2AF54E85402AB998173
:10FB50002389002B00D0BEE0238A002B00D0D8E000
:10FB6000238B002B00D0F2E0226A002A3DD002ABAA
:10FB70009B89991D1F29B4D8108882460528B2D9BF
:10FB8000D34F5744BFB2B846D24FBC46B845AAD9A6
:10FB90005788B946052FA6D9CD4F6846B846C84400
:10FBA0004746C781C78967459DD9CB4FBA4504D021
:10FBB000B94502D0CA4500D995E705201227E85477
:10FBC000581C80B22F54981C80B202AFB88117889D
:10FBD000281807703F0A4770043352889BB2EB180D
:10FBE0001A70120A5A7002AB9981676A002F2FD0DF
:10FBF000BB88991C984602AB9B899A1C50181F28F9
:10FC000000D96EE7FE2900D96BE740460330E8547F
:10FC1000FF20591C89B2685492B202A98A8139889E
:10FC2000AA180433117098B2090A02AB5170988176
:10FC3000BA88002A0CD0B968002900D153E72818E7
:10FC400006F03DF802ABBA889B899B1802AA938103
:10FC50002C23E15C002900D0EFE02378002B00D1B9
:10FC60004BE722880720012A00D13DE702AA9289AA
:10FC7000901C1F2800D934E7012B04D163781B188E
:10FC80001F2B00D92DE71D230EAF9A1A93B2281807
:10FC9000390098463B80FFF74FFC002800D023E74F
:10FCA0002378022B00D119E1012B00D11DE143463D
:10FCB00008213B804346FE2B00D912E7424602ABA7
:10FCC0009B890132EA545A1C92B20233A95443442C
:10FCD00002AA938111E71F23270098460837019352
:10FCE00005AB009302222B0002213800FFF728FC0D
:10FCF000002800D0F8E64346019305AB009310229C
:10FD00002B0006213800FFF71BFC002800D123E759
:10FD1000EAE61F23270098461037019305AB0093AE
:10FD200002222B0003213800FFF70AFC002800D034
:10FD3000DAE64346019305AB009310222B0007211E
:10FD40003800FFF7FDFB002800D109E7CCE61F23B0
:10FD5000270098461837019305AB009302222B0029
:10FD600014213800FFF7ECFB002800D0BCE6434626
:10FD7000019305AB009310222B0015213800FFF7EB
:10FD8000DFFB002800D1EFE6AEE60EAF3800FFF74C
:10FD9000CDFB002800D0A7E6082202AB9B8906AD68
:10FDA000EA545A1C023398B21B2102AB9C4692B211
:10FDB000A9541631988106226144281805F07FFF66
:10FDC00002AB9B8902A99A1D92B28A8139780029D7
:10FDD00000D001210733A9549BB202AA9381A278D3
:10FDE000002A0AD1E078002800D174E6DA1C190054
:10FDF0001F2A00D863E60C2076E604330C201F2B64
:10FE000000D971E63800FFF795FB002800D06BE6BB
:10FE10000322192102AB9B8906ADEA545A1C92B207
:10FE2000A9549A1C398892B2AA1811700433090A8D
:10FE300051709BB202AA9381D4E7A76A002F00D128
:10FE400051E6BB880233FE2B00D94AE602AA90890C
:10FE50000022904616329146163292464A460133A7
:10FE60002B54431C9BB2EA54831C9BB202AA93817D
:10FE70003A88EB181A700430120A5A7080B202AB3A
:10FE80009881BA88002A0FD0B968002900D12AE6E3
:10FE9000281805F014FF02AB9889BB88C01880B2FF
:10FEA00002AB98815346E15C43460133DBB298468E
:10FEB0008B4200D3D1E643465F00A36A47449C4689
:10FEC000BF006744BB880233FE2BC7D90C200BE66A
:10FED0007FF3FFFF7DF30000FFFF00003B889845A4
:10FEE00000D2E4E698460921E4E66378984500D21A
:10FEF000DDE63B8098460821DCE6C04673DF7047AC
:10FF000074DF7047F0B5834C072287B006000021EC
:10FF10002000FBF77BF9804D804B2A68804F1A4206
:10FF200002D03B78012B3BD0AB78002B35D16378E6
:10FF3000002B66D1A378002B63D1E378002B60D12E
:10FF40002379002B5DD16379002B5AD1A3795A1EF6
:10FF50009341DBB2022E33D02DD9032E33D0042EA1
:10FF600047D12A790423002A43D03B706D4B1B688C
:10FF7000002B31D100226C4B1A70182200216846E8
:10FF8000FBF744F900236A46137013723B78042B85
:10FF90005ED8664A9B00D3589F463B78022BC6D159
:10FFA000604B1B68002B00D1A7E00121604A0820AC
:10FFB00011709847BBE7012E1BD16A78002A1CD12B
:10FFC000AA78002A18D1EA780323002AC9D03B7006
:10FFD000544B1B68002BCDD02A78002ACAD0554A32
:10FFE0001278002AC6D101214F4A07201170984784
:10FFF000C3E700263E70BDE70226002BE3D03E702B
:020000022000DC
:10000000B8E70123A6E76B462A8A1A82AA8A5A828F
:100010002B78002B00D173E0464B1B78002B00D0CF
:100020006EE0454B1A79002A02D11A7B002A67D06C
:1000300003936A4602234148137200210233C370BE
:10004000FFF71CFD002863D105223D4B1A703B7859
:10005000002B12D1334B1B68002B17D1002019E065
:100060000222374B01941A7001236A4613706B46C3
:10007000AA895A826A46AB6813826846FFF73EFF38
:10008000002807D1274B1B68002BE7D02C4A10789B
:100090009847002007B0F0BD0022294B1A70F1E705
:1000A0006B462A8B1A82AA8B5A822B78002B2BD074
:1000B000204B1B78002B27D11F4B1A79002A02D125
:1000C0001A7B002A20D003936A4602231B4813722E
:1000D00000210233C370FFF7D1FC002818D106229B
:1000E000174B1A703B78B3E70123154A019413703C
:1000F0006A46137000230493BFE70D4A137016E796
:1001000003220F4B1A70B8E704220D4B1A70B4E7A4
:100110003B789DE7EC3A0020103A002000FFFF00FA
:100120000E3A0020743A0020DC3B0020705F020091
:10013000E83A0020DD3B002020340020303A002047
:100140000D3A0020F8B504000E000E20002C00D15E
:10015000ADE0002A00D1AAE055490D380870002012
:100160005449087054480100A1CAA1C1A1CAA1C143
:1001700021CA21C1514A00211360514B069A5148AE
:100180001A600122504B52421A800832FBF73EF8A7
:100190004E4D00213C222800FBF738F8237822003E
:1001A0002B70A3781032AB70E378EB7063786B70D0
:1001B0002B00103303CA03C32B00103A083303CAC1
:1001C00003C32B000832183303CA03C3636A002B2E
:1001D00011D03F4B3F4F6B62616A9F600A881A8063
:1001E00088889880002806D000238A68D25CFA5458
:1001F00001339842F9D1A36A002B14D0364B374F04
:10020000AB62A06A9F608188998002881A8000236F
:10021000002905D08268D25CFA5401338B42F9D1AF
:100220002C23E25CEA54236A002B06D02C4B2B6271
:10023000226A5188598012881A806368002B00D086
:100240006B602849284B0A68D81D13600A68506003
:1002500018000E30906018001530D06018001C3067
:10026000106118002330506118003133D3611F4BE7
:100270002A30906118008A68103013608A685060D4
:1002800018008A68203090608A6819003031D16087
:10029000190040311161190050315161190070335A
:1002A00060319161D36131002800FFF7E7FBF8BDB1
:1002B000783A00200E3A0020103A0020743A0020CC
:1002C000703A0020EC3A00206E3A0020303A0020CC
:1002D0009C3A00207C3A0020F43A0020003B0020A9
:1002E000203B002020340020243B00205C3B0020E9
:1002F00010B50D4B04001B7882B00820002B01D1F3
:1003000002B010BD094B01A81C70FCF7E1FF019B76
:10031000002B04D00122064B00201A70F0E72000C9
:10032000FFF7F0FDECE7C046783A00200E3A0020D7
:100330006C3A002030B5038883B0112B1AD01B2BE8
:100340000AD0102B01D003B030BD837D012BFAD130
:100350008288224B1A80F6E7037A002BF3D1204BD8
:1003600008201B78002B1FD11E4B1B68002BEAD0E6
:100370009847E8E700211C4A83881170174A1288C1
:100380009A42E0D1164B08201B78002BECD00122BA
:10039000164B01A81A70FCF79BFF019B002B17D08E
:1003A0000122134B1A70CEE7104D05212878013039
:1003B00005F070FC01A8CCB22C70FCF789FF019B02
:1003C000002BEDD12000FFF79DFD0028BBD0CBE72F
:1003D0000120FFF797FD0028B5D0C5E76E3A002051
:1003E000783A0020703A0020DD3B00200E3A0020D1
:1003F0006C3A002030B5023883B0012803D8124C83
:100400002378002B01D103B030BD002323700F4BA4
:1004100008201B78002B05D10D4B1B68002BF2D058
:100420009847F0E70B4B01A81D78FCF751FF019BA3
:10043000002B02D001232370E5E72800FFF762FDBF
:100440000028E0D0E8E7C0466C3A0020783A002067
:10045000703A00200E3A002070B5012582B0FFF7F7
:100460004FFD144B14481D7006230021C370FFF785
:1004700005FB041E02D0200002B070BD0F4B082007
:100480001B78002B05D10E4B1B68002BF3D098472F
:10049000F1E70C4B01A81E78FCF71AFF019B002B1B
:1004A00002D0094B1D70E6E73000FFF72BFD002856
:1004B000E1D0E8E7DD3B0020303A0020783A002028
:1004C000703A00200E3A00206C3A002075DF704729
:1004D00076DF70477ADF70477BDF704710B5184BC7
:1004E00082B01888174B984214D0174A174C1378CB
:1004F0000133DBB21370217B99420DD200231370BC
:10050000237C002B12D16369002B03D0002201A8A9
:100510000270984702B010BD0D49FFF7D7FF0028C1
:10052000F8D0A369002BF5D09847F3E73B21FFF7FC
:10053000CFFF0028E7D0A369002BE4D09847E2E77B
:10054000E03B0020FFFF0000303C0020E43B0020A7
:10055000283C002030B51B4B1B4A5B88118883B0B8
:1005600099420FD852889A420CD3184B5B69002BE2
:1005700003D0012201A802709847154C0023237074
:1005800003B030BD124C2378002B08D00F4B5B69B1
:10059000002BF3D0002201A802709847EEE70D4B24
:1005A0000A4D1B78002B0BD0A96800220A48FBF7E4
:1005B000D1FA0028E2D0AB69002BDFD09847DDE705
:1005C0006968F2E7203C0020283C0020E43B002042
:1005D000DE3B0020303C0020003C00201649020099
:1005E0000B0070B532CA32C332CA32C312681A6005
:1005F0000022124B01681A70002916D0104C0832E4
:10060000200005F05CFB2000FFF764FF00280BD101
:1006100001220C4B52421A8000220B4B00211A700F
:100620000A480B4AFBF77CFA70BD0548FFF754FFF8
:100630000028EDD0F8E7C046E43B0020DE3B002078
:10064000283C0020E03B0020303C0020845F02007A
:10065000DD04020010B50388112B33D021D9122BF1
:1006600018D0502B1CD1204CC288E3899A4217D154
:10067000038A022B14D1123000F04AF900280DD160
:100680001A48FBF7C7FA00280AD0A369002B07D045
:10069000984705E0164B083006C806C3FFF75AFF17
:1006A00010BD102BFCD18288124B18301A80104BD1
:1006B00006C806C30022104B1A700B4BDB89002BB7
:1006C000EED1EBE701220B4B52421A8000220A4B7B
:1006D00006481A70FBF79EFA0028E1D0024B9B698E
:1006E000002BDDD09847DBE7E43B0020003C0020F6
:1006F000203C0020E03B0020303C0020F0B5574675
:10070000DE464E464546E0B5038889B00700112B0A
:1007100000D16CE01A2B50D0102B06D009B03CBC95
:1007200090469946A246AB46F0BD374E03A8737D6E
:10073000327D03AC9A43331D19009846FDF7E2F869
:10074000039B00259946002B10D014239B460023C1
:100750009A46B3445246A3885946009240461D2209
:100760000135FCF783FF02344D45F3D1307DBC8861
:10077000C043C0B2FCF714FF244B984240D0310074
:100780004000351D301884802200280015310123D7
:10079000FCF732FF31002200280014310123FCF75E
:1007A0002BFFBB7D3100023B5A4253411631DBB275
:1007B000BA882800FCF720FFB0E71F23027A124E08
:1007C00093429B4131005B428288DBB2301D17317E
:1007D000FCF712FF2F233A7A310093429B415B4290
:1007E000DBB2BA881831301DFCF706FF96E7828825
:1007F00005480023010004301531FCF7FDFE8DE7AC
:100800000420FAF7FFFD89E7343C0020FFFF0000D9
:1008100070B50A4C0200251D0600217D2800FDF759
:100820003FF803000020002B07D0A17D32002800F4
:10083000FDF736F8431E9841013070BD343C00206E
:1008400010B502000248C17D0430FDF729F810BD43
:10085000343C002010B502000248017E0430FDF750
:100860001FF810BD343C002010B5040003490A7D78
:100870000431FDF747F8200010BDC046343C00208D
:1008800030B5094D00232968012402E00133182BFB
:1008900007D022009A40D8B21142F7D10A432A6009
:1008A00030BD1820FCE7C046343C002001238B40BB
:1008B00070B5064C0200256800201D4204D0611866
:1008C000497E201DFCF7ECFF70BDC046343C002083
:1008D00070B501248C40064D2B68234207D0193196
:1008E00069180435130002002800FCF785FE70BD6E
:1008F000343C00200123834010B5044A00211468D1
:100900001C4201D01218517E080010BD343C00205A
:1009100001230078184070470B7803704B784370C0
:100920000220704770B5040008000D0005F0E2F9E0
:100930006560208070BDC04670B584B0050000F0D1
:1009400029FB0400112831D016D800282BD00C2800
:1009500018D1072301ACA5802800237000F058FEB1
:100960006080200002F06EFE0022114B28001978F2
:10097000FFF7AEFF04B070BD862811D00D4B0022EA
:100980009842F2D0092301AE2800337000F040FEF7
:1009900070803000B580B46002F054FE0022E4E7BD
:1009A00001AC0823D7E701AC0123D4E70122DCE73F
:1009B000693C00200230000070B584B0040000F0F3
:1009C00037FB05000B282BD01BD90122112803D09F
:1009D000154B0022984206D1144B20001978FFF7DE
:1009E00077FF04B070BD092301AE2000337000F022
:1009F0000FFE70803000B480B56002F023FE00224C
:100A0000EAE70028EFD1022301AD20002B7000F0AF
:100A1000FFFDAC806880280002F014FE0022DBE7B6
:100A200001AD0323F1E7C04602300000683C00201E
:100A3000F0B5DE46454657464E46E0B589B003A8B8
:100A4000FFF712FF039B9846002B3CD0364B03ACBC
:100A50009946364B00259A4603E001350234454558
:100A600031D04B46A68819783000FFF71FFF071ECC
:100A7000F3D0534630001978FFF718FF834600285B
:100A8000EBD1300000F052FB082827D022D9284BA8
:100A9000984208D0274B984235D1274B9E4202D02E
:100AA0003000FFF789FF4B463A0019783000FFF716
:100AB0000FFF53465A46197830000135FFF708FFFB
:100AC00002344545CDD109B03CBC90469946A2467A
