:10000000008000207D0C0000BD0C0000BF0C000033
:1000100000000000000000000000000000000000E0
:10002000000000000000000000000000C10C000003
:100030000000000000000000C30C0000C50C000020
:10004000C70C0000C70C0000450A0000C70C0000E8
:10005000C70C000000000000C70C0000C70C000027
:10006000C70C0000C70C0000C70C0000C70C000044
:10007000C70C0000C70C0000C70C0000C70C000034
:10008000C70C0000C70C0000C70C0000C70C000024
:10009000C70C0000C70C0000C70C0000C70C000014
:1000A000C70C0000C70C00000000000000000000AA
:1000B0000000000000000000000000000000000040
:1000C00010B5064C2378002B07D1054B002B02D02E
:1000D000044800E000BF0123237010BD7800002019
:1000E00000000000881E0000084B10B5002B03D054
:1000F0000749084800E000BF07480368002B00D10B
:1001000010BD064B002BFBD09847F9E7000000001C
:100110007C000020881E0000740000200000000009
:10012000164B002B00D1144B9D46402292029A1A86
:10013000924600218B460F461348144A121A00F0CB
:1001400065F80F4B002B00D098470E4B002B00D0CA
:1001500098470020002104000D000D48002802D01F
:100160000C4800E000BF00F02DF82000290000F04E
:1001700041FD00F011F8C04600000800008000209A
:10018000000000000000000078000020F0020020C5
:100190000000000000000000084B10B50400002B18
:1001A00002D0002100E000BF054B1868836A002BD5
:1001B00000D09847200000F031F8C0460000000051
:1001C0009C1D000070B500260C4D0D4C641BA41046
:1001D000A64209D1002601F0D5FD0A4D0A4C641B48
:1001E000A410A64205D170BDB300EB589847013664
:1001F000EEE7B300EB5898470136F2E76C000020B9
:100200006C0000206C0000207000002003008218A9
:10021000934200D1704719700133F9E7FEE7C046F9
:10022000002300B585B001AA906000210348138027
:10023000536000F005F805B000BDC0460140000065
:10024000BFF34F8F034A044BDA60BFF34F8FC046B2
:10025000FDE7C0460400FA0500ED00E010B50029F6
:100260000DD00923002A01D1180010BD541E2240D0
:10027000FAD1826001608480C2600023F4E70E231B
:10028000F2E7C046030010B59C888068DA68121A4D
:100290000420944200D210BDDA68002014401A688D
:1002A0001155DA680132DA60F5E7C04610B58468A6
:1002B000C26803000520944209D09A6898880240D9
:1002C0001868825C00200A709A6801329A6010BD3A
:1002D00030B5047885B0012C22D0002C11D0022C2E
:1002E0000DD102AB1C70C36801222549254801933A
:1002F000039300F0A5FA244B02A81B68984705B0A9
:1003000030BD224C22482100FFF7D0FF002823D027
:10031000032302AA13701C4B10001B689847EEE7DA
:1003200043681C4D19782800FFF7ACFF002819D14D
:10033000AA68EB689A4205D002AB1870124B02A86B
:100340001B689847A968AA88EB685B1A9A4211D281
:100350000122114B1A70D2E701222100094800F056
:10036000E7F9CCE702AB1C70074B03901B6802A8AF
:100370009847E7E701220249024800F061FABEE728
:10038000BC0000206400002094000020C000002079
:10039000AC00002098000020A8000020F0B51E004E
:1003A000254B050089B00C001A600720002906D0F3
:1003B0008A8822480968FFF751FF002801D009B058
:1003C000F0BDA289A1681E48FFF748FF0028F6D1BA
:1003D0006A461C4B694691CB91C291CB91C211CB1D
:1003E00011C26B6906932B7C0E775A1E93410B75D5
:1003F0006B7C0E22581E83415B421A40EB684A75A3
:100400000293AB6803932B6801936B6800930E4CC7
:100410000E4A200000F0E6F80028D0D10C4B1870EE
:100420002B680133CBD0200000F0EEFA01220949FD
:10043000200000F005FAC2E7940000209800002098
:10044000AC000020A01D000064000020D1020000CC
:10045000A8000020BC00002070B50B4C01000B4828
:100460002678FFF723FF0500002E01D1280070BD7C
:100470000023012206490748237000F0E1F9002813
:10048000F4D0FFF7CDFEF1E7A8000020980000208F
:10049000BC00002064000020F8B50E4D01002800CB
:1004A000FFF7F0FE041E01D02000F8BD0A4E300018
:1004B00000F0B8F90028F7D1084F28003900FFF7FD
:1004C000F5FE0028F0D101223900300000F030F9AB
:1004D0000400E9E7AC00002064000020C000002018
:1004E00070B516000C008D18002A05DD2078013447
:1004F000FFF7D2FFAC42F9D1300070BD10B50C004F
:100500002000FFF7A9FF0528FAD0012010BDC04642
:10051000044BA0211A5C01239340034AC9058B5068
:100520007047C046C01D00000C050000A023032238
:100530000B49DB055A5004315A500A495A500431CC
:100540005A50A1228021D200890399508021C903E9
:10055000995080210904995080214904995070478D
:10056000540700005C070000F0B500281EDB1B4AA2
:1005700003249446FF2217008308C026C0B204401B
:10058000E4008901A7400A40A2409B006344B600F2
:100590009D59BD432A439A511F23C02118401E3B39
:1005A00083400E4A490053501360F0BDFF240C4AAB
:1005B0000325944622000F23C0B20540ED008901B7
:1005C000AA400C40AC400340083B9B089B0063449E
:1005D000DE6996433443DC61DEE7C04600E100E0BB
:1005E00000ED00E0F8B5CE46474680B505794A4CA7
:1005F000EF007B1B9B00E318DB7E06009146082082
:10060000002B03D00CBC90469946F8BD0868431CEB
:100610000CD00123A1228340A020D200C00583502A
:1006200003220B68C133FF339B001A504B685A1CDE
:1006300006D0A0200022C133FF339B00C0051A5012
:1006400030688A69354BC250087D4B7D3268034360
:10065000334813500A683368944632484A681A503F
:10066000624631481A500B7D012B2DD04A467B1B28
:100670009B00E01842600A69E2504B46002B12D002
:100680008E22002330685200097F83503068283260
:100690008350C1233068254A9B00C2503368180B31
:1006A00040B2FFF761FFA02304213268DB00D15084
:1006B000002301227D1BAD006419E3752376A37529
:1006C000E276A37600209DE78B685A1C06D0A02016
:1006D0000022C133FF339B00C0051A50CB685A1C5F
:1006E0000ED001209840A1220300A020D200C00516
:1006F00083500322CB68C133FF339B001A50CB6871
:100700008A6830689446A122D2008350A2236246B0
:10071000DB00C250AAE7C046C40000202405000048
:100720006C050000140500000C05000080000200AC
:10073000F0B557464E464546DE46E0B50479374E9D
:10074000E3001B1B9B00F3189D7D1127002D06D095
:1007500038003CBC90469946A246AB46F0BD8E247C
:100760009D8299609A75037901229C460368640012
:100770001D51036800279A6063466246DB009A1A9F
:100780009200B21898469368016899460D514D46FB
:10079000938AED5C938A01339BB29382204BCD50B8
:1007A0005368002BD4D1937D80259B466D001100AA
:1007B000938A14315B4518D2016802E0938AAB42F8
:1007C00002D00B59002BF9D0938AAB42EFD0002313
:1007D0004F460B51938AFB5C9A465746938A0133E6
:1007E0009BB293820E4BCF50E1E780230A885B00D7
:1007F0009A4210D08E21026849005358002BFCD039
:1008000001230027D360434662469B1A9B00F618DB
:100810000023B3759CE70F27F5E7C046C40000200E
:100820001C0500000279D3009B1A044A9B00D318D0
:10083000987D431E9841C0B27047C046C400002056
:10084000F0B54E4645465746DE46E0B506796D4D55
:10085000F3009C1BA4002C19676885B0884691465C
:10086000002F07D08124A400A44661460534026805
:10087000FF3411519B1B9B00EB18DC7D002C0DD02D
:100880001C7E002C2ED0002F00D1B6E08121C12388
:10089000026889009B00D15011201CE04A46DA759D
:1008A00042465C76DA601C760779FB009946DB1BD2
:1008B0009B00EB189B7E002B6BD04B46D91B89000D
:1008C00069184B68002B1BD08121C12302680020CE
:1008D00089009B00D15005B03CBC90469946A24689
:1008E000AB46F0BD42461A614A461A760779FB00CC
:1008F00099464B46D91B890069184B68002BE3D1F8
:10090000A22204685200A35001922E3AFF3A934665
:100910000232944684248C4464006246A24688468F
:1009200003688B4403920297922252009A58019CCA
:100930009446511E8A41514659581E59D2B234002C
:10094000671EBC41E4B2002904D1002E02D16146E9
:100950000029E9D0002A3DD1002C3BD15946097825
:10096000002922D10934FF341A51A3224146D20072
:100970009B58029F4B7E4B46DF1B0023BF00ED19A7
:10098000EB75AB7E002B31D00122036800201A608A
:10099000A1E79222016852008B5001681C3A8B50EB
:1009A0000368083AFF3A1A6087E75246A3219C5031
:1009B000039CC90022785B584146C9688B545A464B
:1009C00023780133DBB22370237812789A4216D948
:1009D0000368A9E74B46029FDF1B0023BF00ED1908
:1009E000EB756346002B06D0032074E701220368F1
:1009F00000205A606FE70F206DE711206BE7029F20
:100A0000B9E7C046C400002010B501790C4ACB00FC
:100A10005B1A9B00D3189B7E002B10D19221046897
:100A20004900635004681C39635003680839FF3972
:100A300019600079C3001B1A9B00D218917610BD73
:100A4000C4000020C12310B5614A9B00D35884B074
:100A50009B054FD592235B00D15800294AD0002135
:100A6000D1508121E5338900FF33D150594B997E14
:100A7000002901D101315160022269460A7090219A
:100A80005348C9004258425069460392DA7D68468D
:100A90000A72DA68196801920022DA751A765B68C0
:100AA00098478E214A4A49005358002B0FD0494B92
:100AB0009C8A987D84424FD200205050998A986831
:100AC000405C998A013189B29982434BD050A2236C
:100AD0003F4A5B00D15800290AD00021D1503D4B3C
:100AE000997E002901D001211160DA7D002A42D1CE
:100AF00004B010BDC123364A9B00D3585B07D0D544
:100B0000842149005358002BCBD0324BD87D00288C
:100B10003ED15050A321C90052585A7E8242C0D1C2
:100B20001A7E002A42D19A7E002A02D10121284A47
:100B300051608120C2222649800092008850002204
:100B400068460121DA755A7E01700272DA68196806
:100B500001925B689847A4E7002454500028B6D05F
:100B60006A46147010729A689C75196801925B68E5
:100B700068469847ABE7002268460121DA755A7E3D
:100B800001700272DA68196801925B689847AFE7F2
:100B900000205050A320C000597E1258D8684254FB
:100BA0005A7ED87D0132D2B25A76B6E7DA751A6922
:100BB000D968DA6000226C46587E1A765A7601327D
:100BC000207201912270196868465B68984768E74F
:100BD00000200040C40000201C05000010B5037870
:100BE000022B02D0012B00D010BD4068FFF718FB8C
:100BF000FAE7C04630B58BB0FFF798FC0120FFF74D
:100C000087FC04A80200174B32CB32C232CB32C26F
:100C1000154B164A009380235B00019302920393C5
:100C2000134AFD3B6946FFF7B9FB002817D111486D
:100C300000F0BCF820246846FFF70EFC0028FAD12B
:100C40006B461878FFF728FC0028F9D16B461B7813
:100C5000A343512BEFD1084800F0A8F8FEE7FFF7B7
:100C6000DFFAE4E7C41D0000E0000020E0010020FE
:100C7000DD0B0000DC1D0000E81D000003210A4818
:100C800002680A430260094802680A430260084990
:100C9000084A094B9B1A03DD043BC858D050FBDCC3
:100CA00000F012F8FFF73CFA24050040540500401C
:100CB000941E00000000002078000020FEE7FEE700
:100CC000FEE7FEE7FEE7FEE72E4B1B78012B00D088
:100CD00070472D4B1B681B07FAD1F0222B4B1B686A
:100CE000134027D12A4B1B6813422BD0264B1B687D
:100CF0001B07EDD1F022254B1B681340402B2DD054
:100D0000F022224B1B681340A02B01D0D02BDFD147
:100D1000F0231F4A12681A42DAD11E4A1368012BC7
:100D200004D01D4B13601368012BFCD1C0221B4B58
:100D30001A60CDE7102B01D0302BDBD1144B1B6890
:100D40001342D7D1164A174B1A608022164B120253
:100D50001A600C4B1B78012BC8D0B9E70C4B1B68F1
:100D60001342CDD1C12380220121DB00D205D15015
:100D7000044B1B78012BABD1034B1B681B07BFD067
:100D8000A6E7C046E00F00F0E40F00F0E80F00F027
:100D9000EC0F00F000EC06407593000014EC0640E8
:100DA000DFFF07C004050040186C00400FB40B4B78
:100DB00013B51C68002C05D0A369002B02D12000BC
:100DC00000F050F805AB049AA1682000019300F0F0
:100DD00065F916BC08BC04B01847C04600000020E6
:100DE00010B5024900F0B2F810BDC04699190000D4
:100DF000002310B504000360436083608181436673
:100E0000C281036143618361190008225C30FFF7EE
:100E1000FDF9054B24626362044BA362044BE36259
:100E2000044B236310BDC0460916000031160000B4
:100E3000691600009516000070B568254A1E5543D6
:100E40000E002900743100F0A3F8041E08D0002120
:100E50002A00016046600C30A0606832FFF7D6F9C6
:100E6000200070BD836913B50400002B28D1836472
:100E7000C3640365134B144A1B6882620193984252
:100E800001D101238361200000F020F86060200080
:100E900000F01CF8A060200000F018F80022E060CC
:100EA00004216068FFF7A4FF01220921A068FFF771
:100EB0009FFF02221221E068FFF79AFF0123A3613E
:100EC00013BDC0469C1D0000E10D0000F8B51E4B8F
:100ED00007001E68B369002B02D13000FFF7C2FF84
:100EE0004836B4687368013B04D53368002B07D0DB
:100EF0003668F6E70C22A55E002D0DD06834F2E7C7
:100F000004213800FFF798FF30600028F0D10C234F
:100F100004003B602000F8BD012320005B42E38118
:100F20000233A38165662560A56065602561656102
:100F3000A561082229005C30FFF768F96563A563A5
:100F4000A564E564E6E7C0469C1D0000F7B5040013
:100F50000700002601914834002C01D13000FEBD6D
:100F60006368A5680093009B013B009301D524684A
:100F7000F2E7AB89012B08D90E22AB5E013304D016
:100F800029003800019B984706436835EBE70000CD
:100F9000032370B5CD1C9D43083506000C2D1ED2D1
:100FA0000C25A9421DD8300000F0ADFD254A14687B
:100FB0002100002919D1244C2368002B03D13000D3
:100FC00000F010FB20602900300000F00BFB431CF8
:100FD0002CD10C233000336000F096FD03E0002D8F
:100FE000DFDA0C233360002070BD0B685B1B1AD462
:100FF0000B2B03D90B60CC18256003E08C420ED17B
:1010000063681360300000F07FFD200007220B3082
:10101000231D9043C31AE7D05A42E250E4E74B68DD
:1010200063600C00EEE70C004968C2E70323C41CB0
:101030009C43A042E0D0211A300000F0D3FA431CB8
:10104000DAD1C6E7E0020020E4020020936810B580
:10105000013B9360002B05DA9469A34208DBCBB215
:101060000A2B05D01368581C10601970C8B210BD47
:1010700000F016FBFBE7F8B506000F001400D518CA
:10108000AC4201D1002007E021783A003000FFF7A0
:10109000DDFF0134431CF3D1F8BD0000F0B59FB073
:1010A00006000F0014000593002804D08369002B6C
:1010B00001D1FFF7D7FE7F4B9F425CD17768BB8998
:1010C0001B0762D53B69002B5FD0002306AD6B6127
:1010D00020336B761033AB760294029C2378002B7E
:1010E0005DD1029BE31A04930DD0049B029A390050
:1010F0003000FFF7C0FF431C00D1CCE06A69049BBD
:10110000944663446B612378002B00D1C3E0012235
:10111000002352426A6002A95432521801342B60F3
:10112000EB60AB601370AB6521780522624800F07C
:10113000DFFC631C9C46002835D12968CB0604D50A
:10114000532302AA20309B1818700B0704D5532391
:101150002B2002AA9B18187023782A2B2CD0002051
:101160000A21099B2278303A092A00D86BE000282E
:101170002AD0099328E0514B9F4201D1B7689EE7DE
:101180004F4B9F429BD1F76899E73900300000F040
:10119000F1FA002899D0012040421FB0F0BD252B64
:1011A0009FD001349AE7444B2968C01A0123834039
:1011B0000B432B606446B7E7059B181D1B68059021
:1011C000002B3ADB0993644623782E2B0BD16378EE
:1011D000621C2A2B3FD1059B02341A1D1B68059205
:1011E000002B35DB079321780322364800F080FC82
:1011F000002807D0334B2A68C01A4023834013438A
:101200002B6001342178631C06222F480293297633
:1012100000F06EFC002844D02C4B002B2FD1296805
:10122000059B0722C90528D59B18934308330593CE
:101230006B69039A9B186B614FE75B42EB6002237B
:101240000B432B60BFE74B4301349B18012089E718
:1012500001235B42C6E7002314000A201A006B60DA
:1012600021783039092903D9002BBCD00792BAE77D
:101270004243013452180123F2E70733D5E705ABA7
:1012800000933A00124B2900300000E000BF0390A9
:10129000039B0133CCD1BB895B0600D57BE70B9860
:1012A0007BE705AB00933A00094B2900300000F0C2
:1012B0007FF8ECE7141E0000541E0000341E0000EE
:1012C000F41D00005A1E00005E1E00000000000019
:1012D00077100000F7B5150001938A680B6900903C
:1012E0000C00934200DA130022002B604332127884
:1012F000002A01D001332B6023689B0602D52B689E
:1013000002332B60062723681F4027D02300433376
:101310001B785A1E93412268920630D4220001990C
:1013200043320098089EB047431C25D0062320680E
:101330002A68E16803400025042B03D18D1AEB4392
:10134000DB171D40A3682269934201DD9B1AED184B
:101350000027BD4220D1002010E00137E3682A6851
:101360009B1A9F42D2DA2200012319320199009878
:10137000089EB047431CF0D101204042FEBD302002
:10138000E1184331087021005A1C45310978A21830
:10139000433202331170C1E7220001231A3201994E
:1013A0000098089EB047431CE6D00137D1E7000003
:1013B000F0B58BB006920A00433207930590049271
:1013C0000A7E0C00109B6E2A00D18FE017D8632A8A
:1013D0002CD008D8002A00D199E0582A54D02600F1
:1013E0004236327029E0642A01D0692AF7D1216897
:1013F0001A68080623D5111D1960156825E0732A9F
:1014000000D188E008D86F2A29D0702AE7D120229D
:1014100009680A43226003E0752A20D0782ADED1C9
:1014200022007821453211706C4A30E00E001A68B3
:101430004236111D196013683370012379E04906A3
:10144000D9D5111D19600023D55E002D03DA2D2397
:10145000049A6D421370624B0A2703932FE02068B1
:101460001968050603D5081D18600D6805E04006DB
:10147000F9D50D68081D1860ADB2594B08270393C4
:101480006F2A18D00A2716E045310A70544A039291
:101490001A682168101D18601568080622D5CB0748
:1014A00002D52023194321601027002D03D12023CA
:1014B00022689A4322602300002243331A70636833
:1014C000A360002B5CDB0422216891432160002D86
:1014D00058D1049E002B64D02600039B42361B7813
:1014E00033705EE04806DAD5ADB2D8E709681A680D
:1014F000080605D5111D1960136862691A6006E0B7
:101500004906F7D5111D19601368A28A1A800023B5
:10151000049E236154E01A68111D196016680021A9
:101520006268300000F0E4FA002801D0801B60609F
:10153000636823610023049A137041E02369320039
:1015400006990598079DA847431C43D023680025AA
:101550009B070FD4099BE06898423DDA18003BE0F6
:1015600022000123193206990598079EB047431CB3
:1015700030D00135E368099A9B1A9D42F0DBE9E718
:10158000002DA9D0049E2800390000F0C7FB039B62
:10159000013E5B5C28003370390000F039FB051E0A
:1015A000F1D1082F09D12368DB0706D563682269CA
:1015B000934202DC3023013E3370049B9B1B23616A
:1015C000079B09AA00932100069B0598FFF782FE5E
:1015D000431CB3D1012040420BB0F0BD761E000089
:1015E000651E0000002370B5064C0500080023604E
:1015F00000F0BAFB431C03D12368002B00D02B6002
:1016000070BDC046EC02002070B50C000E25495F8D
:1016100000F0C6FA002803DB636D1B18636570BD1C
:10162000A389024A1340A381F9E7C046FFEFFFFFF9
:10163000F8B51F008B8905000C001600DB0505D5E9
:101640000E23C95E0022022300F0D2F9A389054AC5
:1016500028001340A38132000E23E15E3B0000F01E
:1016600075F8F8BDFFEFFFFF70B50C000E25495F60
:1016700000F0BEF9A389421C03D1054A1340A3819F
:1016800070BD802252011343A3816065F8E7C04614
:10169000FFEFFFFF10B50E23C95E00F0E1F810BDAB
:1016A000F8B505000E001400002804D08369002B53
:1016B00001D1FFF7D7FB224B9C422DD16C68A36967
:1016C000A360A3891B0731D52369002B2ED0236883
:1016D0002269F7B2981A6369F6B2984205DB2100D5
:1016E000280000F059F9002826D1A3680130013BF9
:1016F000A36023685A1C22601F706369984204D05B
:10170000A389DB071AD50A2E18D12100280000F082
:1017100043F9002812D00FE00A4B9C4201D1AC687B
:10172000CDE7094B9C42CAD1EC68C8E721002800EC
:1017300000F020F80028CAD0012676423000F8BD1B
:10174000141E0000341E0000F41D000070B50500DA
:10175000080011000022064C22601A00FEF7C0FEAD
:10176000431C03D12368002B00D02B6070BDC04602
:10177000EC020020364B70B51D6806000C00002DF1
:1017800005D0AB69002B02D12800FFF76BFB314B72
:101790009C420FD16C680C23E25E93B219072DD4E2
:1017A000D90611D409230120336037331343A381B1
:1017B000404270BD284B9C4201D1AC68EBE7274BFF
:1017C0009C42E8D1EC68E6E75B0713D5616B002922
:1017D00008D023004433994202D0300000F096F93B
:1017E000002363632422A3899343A38100236360BE
:1017F000236923600823A2891343A3812369002B53
:101800000BD1A0218022A389890092000B40934232
:1018100003D02100300000F027F90123A2891340F2
:1018200011D00023A36063695B42A3610020236998
:101830008342BED10C23E25E1306BAD54023134384
:10184000A3810138B5E7920700D46369A360EDE78F
:1018500000000020141E0000341E0000F41D0000D3
:10186000002370B5064C05000800236000F05CFA08
:10187000431C03D12368002B00D02B6070BDC046F1
:10188000EC020020F7B58A8905000C00130760D42C
:101890004B68002B04DC0B6C002B01DC0020FEBD30
:1018A000E76A002FFAD000232E682B6080235B01AB
:1018B0001A4034D0606DA3895B0706D56368C01AEF
:1018C000636B002B01D0236CC01A0200216A002335
:1018D0002800E76AB847A189431C06D12B681D2B55
:1018E00031D82C4ADA40D3072DD500236360236911
:1018F0002360CB0405D5431C02D12B68002B00D1FB
:101900006065616B2E600029C8D023004433994282
:1019100002D0280000F0FAF800206063BFE701233E
:10192000216A2800B847431CC5D12B68002BC2D0C0
:101930001D2B01D0162B01D12E60AFE74023A289C9
:101940001343A381ABE740230B430120A381404213
:10195000A5E70F69002FA1D00B680F60DB1B019377
:101960000023920700D14B69A360019B002B00DC90
:1019700094E7019B3A00216A2800A66AB047002834
:1019800003DC4023A2891343DFE7019B3F181B1AA6
:101990000193EAE7010040200B6970B505000C00D7
:1019A000002B01D1002070BD002804D08369002BDA
:1019B00001D1FFF757FA0B4B9C4209D16C680C22FE
:1019C000A35E002BEED021002800FFF75BFFEAE7C3
:1019D000054B9C4201D1AC68F1E7044B9C42EED12F
:1019E000EC68ECE7141E0000341E0000F41D00003B
:1019F00070B50500080011000022064C22601A0094
:101A000000F0AAF9431C03D12368002B00D02B60FF
:101A100070BDC046EC02002070B50E001D000E2304
:101A2000C95E90B01400002907DA00232B60B38947
:101A30001B0611D48023DB000FE001AA00F0C4F8DC
:101A40000028F2DBF022029B12021340054A9B1889
:101A50005A4253412B60EDE740230020236010B031
:101A600070BDC04600E0FFFFF7B502268B89050078
:101A70000C00334206D02300473323602361012347
:101A80006361F7BD01AB6A46FFF7C6FF0099070027
:101A90002800FFF77DFA002808D10C22A35E9A05E2
:101AA000EFD4032293431E43A681E4E70F4BAB62BE
:101AB0008023A28920601343A381009B206163617E
:101AC000019B002B0DD00E23E15E280000F08EF864
:101AD000002806D00322A38993431A00012313434D
:101AE000A381A0893843A081CBE7C046E10D000067
:101AF000C9B28218904201D10020704703788B420E
:101B0000FBD00130F6E770477047000070B5050064
:101B1000002910D00C1F2368002B00DAE4182800DD
:101B2000FFF7F1FF1D4A1368002B05D163601460B5
:101B30002800FFF7E9FF70BDA34209D921686018AA
:101B40008342F3D118685B6841182160EEE7130007
:101B50005A68002A01D0A242F9D919685818A0423F
:101B60000BD120680918581819608242E0D110681A
:101B70005268411819605A60DAE7A04202D90C2372
:101B80002B60D5E721686018824203D11068526843
:101B90004118216062605C60CAE7C046E002002034
:101BA00070B50500080011000022064C22601A00E2
:101BB000FEF7A4FC431C03D12368002B00D02B604C
:101BC00070BDC046EC020020002370B5064C050035
:101BD00008001100236000F0AFF8431C03D1236814
:101BE000002B00D02B6070BDEC020020002370B5EC
:101BF000064C05000800236000F0A6F8431C03D142
:101C00002368002B00D02B6070BDC046EC02002082
:101C1000002243088B4274D303098B425FD3030A2B
:101C20008B4244D3030B8B4228D3030C8B420DD33E
:101C3000FF22090212BA030C8B4202D312120902CC
:101C400065D0030B8B4219D300E0090AC30B8B420A
:101C500001D3CB03C01A5241830B8B4201D38B03B8
:101C6000C01A5241430B8B4201D34B03C01A52415D
:101C7000030B8B4201D30B03C01A5241C30A8B42A0
:101C800001D3CB02C01A5241830A8B4201D38B028B
:101C9000C01A5241430A8B4201D34B02C01A52412F
:101CA000030A8B4201D30B02C01A5241CDD2C309A1
:101CB0008B4201D3CB01C01A524183098B4201D31D
:101CC0008B01C01A524143098B4201D34B01C01A08
:101CD000524103098B4201D30B01C01A5241C30880
:101CE0008B4201D3CB00C01A524183088B4201D3EF
:101CF0008B00C01A524143088B4201D34B00C01ADB
:101D00005241411A00D20146524110467047FFE746
:101D100001B5002000F006F802BDC0460029F7D04A
:101D200076E770477047C04658220120014B404279
:101D30001A607047EC02002058220120014B4042FB
:101D40001A607047EC0200205822024B00201A60F3
:101D50007047C046EC02002058220120014B40424F
:101D60001A607047EC020020044A1368002B03D06D
:101D70001818106018007047014BF9E7E8020020BE
:101D8000F0020020F8B5C046F8BC08BC9E4670477B
:101D9000F8B5C046F8BC08BC9E4670470400002059
:101DA000FFFFFFFFFFFFFFFFFFFFFFFFFFFFFFFF43
:101DB000000000000000000000E0D7010300000068
:101DC000151617180B00000009000000080000009D
:101DD0000A0000000100000000E0D7010D0A537462
:101DE0006172743A200D0A00200D0A457869742149
:101DF0000D0A0000000000000000000000000000CC
:101E000000000000000000000000000000000000D2
:101E100000000000000000000000000000000000C2
:101E200000000000000000000000000000000000B2
:101E300000000000000000000000000000000000A2
:101E40000000000000000000000000000000000092
:101E500000000000232D302B2000686C4C006566CC
:101E600067454647003031323334353637383941EB
:101E70004243444546003031323334353637383901
:0C1E800061626364656600000000000001
:081E8C0094E2FF7F0100000059
:101E94000400002000000000141E0000341E000096
:101EA400F41D00000000000000000000000000001D
:101EB400000000000000000000000000000000001E
:101EC400000000000000000000000000000000000E
:101ED40000000000000000000000000000000000FE
:101EE40000000000000000000000000000000000EE
:101EF400000000000020004000000000E900000095
:081F0400C10000000000000014
:0400000300000C7D70
:00000001FF
