:020000021000EC
:10B000000080002059ED010099ED01009BED010049
:10B010000000000000000000000000000000000030
:10B020000000000000000000000000009DED010095
:10B0300000000000000000009FED0100A1ED0100F4
:10B0400025C10100A3ED01000DCE0100A3ED01001B
:10B05000A3ED01000000000041C50100A3ED0100C7
:10B06000A3ED0100A3ED0100A3ED0100A3ED01009C
:10B07000A3ED0100A3ED0100A3ED0100A3ED01008C
:10B08000A3ED0100B5B40100A3ED0100A3ED0100A3
:10B0900091B50100A3ED010019F30100A3ED01003A
:10B0A000A3ED0100A3ED010000000000000000007E
:10B0B0000000000000000000000000000000000090
:10B0C00010B5064C2378002B07D1054B002B02D07E
:10B0D000044800E000BF0123237010BD7C20002045
:10B0E000000000008C070200084B10B5002B03D0B5
:10B0F0000749084800E000BF07480368002B00D15B
:10B1000010BD064B002BFBD09847F9E7000000006C
:10B11000802000208C070200782000200000000022
:10B12000164B002B00D1144B9D46402292029A1AD6
:10B13000924600218B460F461348144A121A00F01B
:10B1400065F80F4B002B00D098470E4B002B00D01A
:10B1500098470020002104000D000D48002802D06F
:10B160000C4800E000BF00F02DF82000290002F09C
:10B170002DFC00F011F8C0460000080000800020FF
:10B1800000000000000000007C200020D8270020E4
:10B190000000000000000000084B10B50400002B68
:10B1A00002D0002100E000BF054B1868836A002B25
:10B1B00000D09847200000F031F8C04600000000A1
:10B1C0007C05020070B500260C4D0D4C641BA410CC
:10B1D000A64209D1002605F0C5F90A4D0A4C641BA8
:10B1E000A410A64205D170BDB300EB5898470136B4
:10B1F000EEE7B300EB5898470136F2E770200020E5
:10B20000702000207020002074200020030082188D
:10B21000934200D1704719700133F9E7FEE7C04649
:10B22000F8B54E46DE4657464546E0B5224B1978FE
:10B23000994600292AD0214B00249846204B214FC3
:10B2400001269A4603E00134E4B28C421ED2434602
:10B250001B6832009C46E500654428783B688240C4
:10B260001342F0D093433B6001F060F933002A7839
:10B270005146934009680B40010091408B420BD02E
:10B280004B4601341978E4B28C42E0D33CBC904682
:10B290009946A246AB46F8BD6B689B46002BEFD0A3
:10B2A000697801394B424B41191A4D424D4110000A
:10B2B000E9B2D847E4E7C04698200020C820002023
:10B2C000C0200020C4200020F8B5124D070028003F
:10B2D00000F0DAFC002807D10124BC400E4E336890
:10B2E000234202D0A3433360F8BD380001F01EF9B9
:10B2F0000A4A136800280BD02343136033680022E6
:10B300001C43074B28001968346000F05DFCEBE734
:10B31000A343F2E7A0200020C4200020C02000208A
:10B320009C200020F0B54746CE4680B50D000700B2
:10B3300083B014000720042A04D803B00CBC904644
:10B340009946F0BD00F0EAFF00282DD0194B1A4AAB
:10B350001F601A4B1D701A4B1C6000231360194AA2
:10B360006C1E1360E4B2002D18D0174B00269946CE
:10B370000323984601AD4246E300FB182A70AE70E5
:10B38000EE709A7818786A7029004A4600F0D0FF6B
:10B390000028D2D1013CE4B2FF2CECD10B4A0021B1
:10B3A0000B4800F0F7FBC8E700F07EFF0028CDD087
:10B3B000C3E7C046C8200020C020002098200020FD
:10B3C0009C200020C4200020C9B2010021B201004D
:10B3D0008005020070B5094D2B78002B0BD000249E
:10B3E000074E3268E300985C012101F04BF82B789E
:10B3F0000134A342F5D8002070BDC046982000203B
:10B40000C8200020002300B585B001AA906000216B
:10B4100003481380536000F005F805B000BDC04636
:10B4200001400000BFF34F8F034A044BDA60BFF3C3
:10B430004F8FC046FDE7C0460400FA0500ED00E06E
:10B4400010B500290DD00923002A01D1180010BD24
:10B45000541E2240FAD1826001608480C2600023C1
:10B46000F4E70E23F2E7C046030010B59C8880681D
:10B47000DA68121A0420944200D210BDDA68002063
:10B4800014401A681155DA680132DA60F5E7C046EF
:10B4900010B58468C26803000520944209D09A68F8
:10B4A000988802401868825C00200A709A6801320D
:10B4B0009A6010BDA021F0B50023C6462B4A490072
:10B4C00000B553500431535004315350043153509C
:10B4D0004C39535004315350254B1B68002B35D049
:10B4E000244900265458244A244F1268A41A0022E2
:10B4F0002402240A904602E0002D18D02B001A687E
:10B50000A24214D8A41AB6181A7CDD69002AF3D016
:10B51000424699691A745A693B68002B19D0100089
:10B5200098470028E8D0FFF76DFF002DE6D11449B9
:10B53000144A0B7812789A420ED0134A9B009E5000
:10B5400080218023114A49035B00D15004BC9046FE
:10B55000F0BD08009047CFE70132D3B2022B01D0F3
:10B560000B70EAE700230B70E7E7C04600100140CC
:10B57000EC20002004050000E8200020CC20002062
:10B58000E5200020E4200020DC20002000E100E095
:10B59000F0B55746DE464E464546E0B5AE4BAF4A9F
:10B5A0001B68AF499A46097813788BB0994200D14D
:10B5B00018E10133DBB2022B00D117E11370A94A65
:10B5C0009B009E5853469B191B02A34A1B0A1360FB
:10B5D00001230693A44B00201B789B46A34B5A469D
:10B5E0001B689846A04B45465C785B6847460393CA
:10B5F0009D4B9B780493984B1B6809939C4B1B783D
:10B6000007930023089305930193A2421CD003994A
:10B61000530089469B1804990132DB00D2B24B4497
:10B620008A4200D1D4E01978022900D1A0E0032990
:10B63000EBD1002FE9D03874FF69002FFBD1012333
:10B6400000250193A242E2D1019B91469C46059BB5
:10B65000002B00D0D9E0089B002B02D07E4B099A2A
:10B660001A606346002B01D0804B1D60069B002BA7
:10B6700000D067E14346DB1B5A1E93410025DBB235
:10B6800006937B4B3E001B780793734B1B689846D1
:10B69000764B1B6801930023029305939C46754BE0
:10B6A0009A46002D28D06B68A9682C00ED694246A7
:10B6B0009A1A1202120A524551D852182260634651
:10B6C0006360A360012323746346E361002E00D10D
:10B6D000BAE031683000914205D3ADE0196891427B
:10B6E00000D397E01800C369521A002BF6D12260EC
:10B6F000E361C461002DD6D15B464846984200D133
:10B70000BCE003995A008946D21804990133D2004B
:10B71000DBB24A44994200D19BE0012411780594A0
:10B720000129EBD15468217C05910029E6D19B4683
:10B73000936881466360D168A1601069E0605269D6
:10B74000A261079A002A00D1F5E0059B059263608B
:10B75000424600239A1A1202120A5245ADD94246B5
:10B76000D31A1B021B0A8B425AD2CA1A2260A6E7BE
:10B770005B68002F00D148E73900BB422AD09146D0
:10B78000019A94461A0002E09A4207D01900CB6948
:10B79000002BF9D163464A46019336E7634602928D
:10B7A0000193029B4A4699468B4214D04B461B6834
:10B7B00002934B46DB699946CB61002B00D124E70D
:10B7C0001B6849469C46029B2F0063440B601CE7A4
:10B7D000002228E7B946FF69002F09D001233D0068
:10B7E0000193E3E7002300260693F3E60023E5E652
:10B7F0000125214B9D6001230193089300230993A8
:10B800000133002505930793D0E76A46184B127F52
:10B810001A7020E7891A19602260E361C46169E740
:10B82000634623606360A360012323746346E3617E
:10B83000002E09D00022316801238A1A3260019457
:10B84000E661029326002CE701230194260002936F
:10B8500027E7002361E7C046E8200020E42000201D
:10B86000E5200020DC200020D0200020EC2000205B
:10B87000D8200020FEFF7F0000100140059B002B18
:10B8800000D0D9E0029B002B02D06D4B019A1A60C8
:10B89000BE4253D0002E00D197E06A4A6A496B4CF1
:10B8A00088584246821A12022578120A33680332F7
:10B8B000002D21D18025D1266D02B6008D51403E4C
:10B8C0008D51C0278026624DB6027F00EE512E605A
:10B8D00001250D605F49604F0E682F21C046C046AC
:10B8E000C046C046C046C046C046C046BE4200D064
:10B8F000C0460139F2D12570934200D21300A8242A
:10B90000434451491B021B0AE4004E4D0B514A5956
:10B910001B1A121A1202120A1B0203321B0A9A4243
:10B9200039D800234D4A13700BB03CBC9046994661
:10B93000A246AB46F0BD01220592B8E6069B002B5D
:10B94000EFD0A7E73E4B00241B6800250021002014
:10B9500013E03A68B24218D8F968B61AA4183860E9
:10B96000FB69002907D05246FD613D001219120201
:10B97000120A7A60B9601F000699002FE9D10029E8
:10B9800000D17EE62E4A13607BE6002900D050E00D
:10B99000961B3E6075E64B590B512E4B2E491A688B
:10B9A0002F23C046C046C046C046C046C046C0461B
:10B9B000C0468A4200D0C046013BF2D1802180239C
:10B9C000234A89025B00D150ABE780218023204AC3
:10B9D0008902D1508023D22101241B4A5B028900B5
:10B9E0005350403953501B4B546019682F231A4849
:10B9F0001D00C046C046C046C046C046C046C04600
:10BA0000C046814200D0C046013DF2D19460144A44
:10BA10001660C046C046C046C046C046C046C04686
:10BA2000C046814200D0C046013BF2D1074B1E7098
:10BA300077E703490B60ABE70A4B187022E7C04673
:10BA4000EC2000200405000000100140D920002057
:10BA500000E100E06C2000200024F400D820002049
:10BA6000E8200020D0200020F0B55746DE464E46A4
:10BA700045460324E0B583B0070001931440072036
:10BA8000002C06D003B03CBC90469946A246AB467B
:10BA9000F0BD002AF6D08026314DB60279302E5006
:10BAA000802040028046D22043462E4E80003350F4
:10BAB000403833500120706081462B48006884462E
:10BAC0002A4880462F208346C046C046C046C0460E
:10BAD000C046C046C046C046C44500D0C046013836
:10BAE000F2D14846B0605846C046C046C046C0463F
:10BAF000C046C046C046C046C44500D0C046013816
:10BB0000F2D11B48019B04701A4803601A4BFF20B6
:10BB10001C7099705C705A60184B80221C60184B26
:10BB2000C5211C70174B52031C70C0235B00EA50E8
:10BB300089006B5883433F3803436B50A123DB00DC
:10BB40002A600439F7506B580F4A00201A40C0236E
:10BB50001B0213436B500D4BF2580D4B1A6091E7CB
:10BB600000E100E0001001406C2000200024F400FF
:10BB7000D9200020CC200020D0200020EC20002064
:10BB8000E4200020E5200020FF00FFFF0405000066
:10BB9000E820002010B50B4B5B68002B0BD0002A6F
:10BBA00007D0002805D0036808201C7C002C04D096
:10BBB00010BD0720FCE70820FAE759745A610020FD
:10BBC000F6E7C046D0200020F0B5C64600B52A4CA6
:10BBD00082B0636805000E001700002B08D0002813
:10BBE00006D00720042905D802B004BC9046F0BD59
:10BBF0000820F9E76B69002BFAD06B7C012B30D061
:10BC0000002398466A460023D01DD37100F086F9C0
:10BC10006178A3784A1CD2B2934224D0237893420D
:10BC200023D04B005B186168DB008C466344002B1B
:10BC30001BD001211148197011495D604158DE6027
:10BC4000996041465F6119616B46D879627000F076
:10BC500085F9802180230B4A49035B00D1500020E5
:10BC6000C2E78846CEE70022D8E76B46D87900F0D5
:10BC700075F90420B8E7C046D0200020001001402C
:10BC80000405000000E100E070B51E4C050063688B
:10BC900082B00820002B2BD0002D29D06B69002BFF
:10BCA00026D06A460023D61D2B743000337000F076
:10BCB00035F96178A2784B1CDBB29A421AD022780F
:10BCC0009A4219D04A0052186168D2008C466244E8
:10BCD000002A11D00221117055603078637000F095
:10BCE0003DF9802180230020074A49035B00D150A1
:10BCF00002B070BD0023E2E7307800F02FF9042095
:10BD0000F6E7C046D020002000E100E030B504781E
:10BD100085B0012C22D0002C11D0022C0DD102AB09
:10BD20001C70C3680122254925480193039300F044
:10BD30006BFF244B02A81B68984705B030BD224C0E
:10BD400022482100FFF7A4FB002823D0032302AAE6
:10BD500013701C4B10001B689847EEE743681C4D9E
:10BD600019782800FFF780FB002819D1AA68EB6832
:10BD70009A4205D002AB1870124B02A81B68984774
:10BD8000A968AA88EB685B1A9A4211D20122114B6A
:10BD90001A70D2E701222100094800F0ADFECCE77D
:10BDA00002AB1C70074B03901B6802A89847E7E79B
:10BDB00001220249024800F027FFBEE718210020B7
:10BDC0004C200020F02000201C2100200821002011
:10BDD000F420002004210020F0B51E00254B0500B2
:10BDE00089B00C001A600720002906D08A882248F2
:10BDF0000968FFF725FB002801D009B0F0BDA28932
:10BE0000A1681E48FFF71CFB0028F6D16A461C4BB0
:10BE1000694691CB91C291CB91C211CB11C26B6992
:10BE200006932B7C0E775A1E93410B756B7C0E226A
:10BE3000581E83415B421A40EB684A750293AB6817
:10BE400003932B6801936B6800930E4C0E4A2000FD
:10BE500000F0ACFD0028D0D10C4B18702B680133DA
:10BE6000CBD0200000F0B4FF01220949200000F0EF
:10BE7000CBFEC2E7F0200020F420002008210020A3
:10BE8000840502004C2000200DBD0100042100208B
:10BE90001821002070B50B4C01000B482678FFF7E5
:10BEA000F7FA0500002E01D1280070BD0023012201
:10BEB00006490748237000F0A7FE0028F4D0FFF7DA
:10BEC000A1FAF1E704210020F4200020182100202D
:10BED0004C200020F8B50E4D01002800FFF7C4FAF1
:10BEE000041E01D02000F8BD0A4E300000F07EFE96
:10BEF0000028F7D1084F28003900FFF7C9FA0028B9
:10BF0000F0D101223900300000F0F6FD0400E9E72D
:10BF1000082100204C2000201C210020F0B5EFF368
:10BF2000108172B60A4B5A68002A0DD1012480256F
:10BF3000084E5C607459084F3C401C607751027099
:10BF4000002900D162B6F0BD01230370F8E7C046B6
:10BF5000CC27002000E100E0FC06FFBC10B5084B38
:10BF60005A68002A0BD0002809D1EFF3108272B66C
:10BF700004491C680C605860002A00D162B610BDEC
:10BF8000CC27002000E100E0002804D0034B5B6ECA
:10BF90000360002070470320FCE7C04620210020FA
:10BFA00070B516000C008D18002A05DD20780134CC
:10BFB000FFF790FFAC42F9D1300070BD10B50C0016
:10BFC0002000FFF767FF0528FAD0012010BDC0460A
:10BFD000A022044BD205D358034A125C0120D3405F
:10BFE0009843704704050000A8050200044BA021F7
:10BFF0001A5C01239340034AC9058B507047C04621
:10C00000A80502000C050000044BA0211A5C0123C6
:10C010009340A122C905D2008B507047A8050200A9
:10C02000A022A1238021D205DB008903D1508021E9
:10C03000C903D15080210904D15080214904D15035
:10C040007047C046A0228021064BD2058903D150FB
:10C050008021C903D15080210904D1508021490495
:10C06000D15070470C050000A02210B5074BD20537
:10C07000D158074B185C012383401C00A1208C433E
:10C080000B400449C0001450535010BD040500007B
:10C09000A80502000C050000A02303220B49DB05C4
:10C0A0005A5004315A500A495A5004315A50A12268
:10C0B0008021D200890399508021C90399508021A1
:10C0C0000904995080214904995070475407000091
:10C0D0005C070000A223A022DB00D205D358034A4C
:10C0E000125C0120D34098437047C046A40502006B
:10C0F00011280AD012280AD013280AD01438431E57
:10C10000984103234042184370470020FCE7012078
:10C11000FAE70220F8E7C046014B185C7047C046BA
:10C12000A405020010B51A4B1A68002A14D0002288
:10C1300080211A60C2220123164C9200C9058B503F
:10C140006370A368002B07D01A6800205B68A260A8
:10C150009847A368002BF7D10F4B1A68002A15D017
:10C1600000221A60C223802202219B00D205D150F6
:10C170000123084CA3702369002B07D01A68012003
:10C180005B68226198472369002BF7D110BDC04638
:10C1900000010040882100200401004010B5002863
:10C1A0000BD1064CA368002B07D01A6800205B68EF
:10C1B000A2609847A368002BF7D110BD882100200A
:10C1C00030B583B06B46DD1D002328002B70FFF7D0
:10C1D000A5FE144C2378002B09D0E368287801339E
:10C1E000E3600123A370FFF7B9FE03B030BD6360C5
:10C1F000A3602361E3600C4B1B68DB070CD503F0E5
:10C2000029F8002805D1A32380220121DB00D205D3
:10C21000D15001232370E0E70321002000F006F84D
:10C22000EDE7C0468821002000E100E0F0B50028DD
:10C230001EDB1B4A03249446FF2217008308C026F6
:10C24000C0B20440E4008901A7400A40A2409B001C
:10C250006344B6009D59BD432A439A511F23C02110
:10C2600018401E3B83400E4A490053501360F0BDF6
:10C27000FF240C4A0325944622000F23C0B2054038
:10C28000ED008901AA400C40AC400340083B9B08EC
:10C290009B006344DE6996433443DC61DEE7C046BD
:10C2A00000E100E000ED00E070B54425184C0820E6
:10C2B000665D002E00D070BD01234022FF215B424D
:10C2C000A3540132A1540132A354236201326362A8
:10C2D000A362E36223636363A363E363FC3902380D
:10C2E000A35423606360A360E36023616361A3617F
:10C2F000E361FFF79BFF074B80211E60C123064AC5
:10C300009B000906D150012300206355D3E7C046A6
:10C310009C2100207C610040006000404423034ACF
:10C32000D05C431E9841C0B27047C0469C2100209B
:10C33000F0B5C64600B5504C0825231820331E78AA
:10C340007F2E03D8280004BC9046F0BDCD78AC46C3
:10C35000002D33D00425A84625680126013500D1DB
:10C3600085E0B500635901332FD0731C9D006759D8
:10C3700001372BD0B31C43451ED29D0067590137AE
:10C3800024D0F31C434517D29D00675901371DD0B7
:10C39000331D434510D29D006759013716D0731DD8
:10C3A000434509D29D00675901370FD006364645EF
:10C3B00002D2E36901333ED00425C3E72569013584
:10C3C00030D0082305269846CBE7330062516246F9
:10C3D00027185EB220373E70002A28D08B78002BB9
:10C3E00014D10300A0254A78C133FF3392009B008B
:10C3F000ED055A51CB78002B20D1A4193C340B7891
:10C4000022789B011343237000259BE7A022D205CD
:10C410009446E025022783006344ED005A59BA434D
:10C420005A51E7E7042504261D7004232261E3180E
:10C430003C331870D2E707231C25C7E70F4AB60024
:10C440009446A2226644D2000B780D4CB1580002EB
:10C450002140F82464012040C024B1501B04A402F0
:10C46000B158234018430843B05000256AE700261E
:10C4700022601E70B2E7C0469C2100200060004090
:10C48000FFE0FCFF0023F0B5254C22182032D356E4
:10C49000032B18DDE3183C331B789B09032B33D0A7
:10C4A000012B39D0C025AD02A023DB059C46E0233B
:10C4B00080006044DB00C1581A4C2140C150C25872
:10C4C0002A43C250F0BDD8B20328FBD8164DA2278C
:10C4D000AC46012698006044FF00C5593543C5515C
:10C4E0001800654600274030800080B2475100297F
:10C4F000E8D0127852B292001259002AE2D09E403F
:10C50000C1239B00EE50DDE7A223A022DB00D20571
:10C51000D358C340DB07C5D48025AD02C4E7C0466D
:10C520009C210020FFFFFCFF00600040A223A0220E
:10C53000DB00D205D358C340012018407047C046E5
:10C54000F0B5DE4657464E4645460021E0B5C54AA1
:10C5500087B0039113680024012B00D1B4E1C24BD2
:10C560001A68012A00D1A3E1C04B1A68012A00D140
:10C5700092E1BF4B1A68012A00D181E1BD4B1A68D4
:10C58000012A00D161E123071CD0BB4BA2279846AA
:10C590000323012600259946FF0026420ED0B74A04
:10C5A000AB009A18D059D1594246D358002B05D028
:10C5B0004A46090CC0041140C00E98470135760068
:10C5C000042DEAD1002C06DB07B03CBC904699460E
:10C5D000A246AB46F0BD00230493013B0593C13353
:10C5E0009A46B93B9B464023A34AD1564B1C2DD0BB
:10C5F000C9B2534608005A46984301230A40934063
:10C60000C60805AA925D134220D09B4A9A4C121884
:10C6100020321278890952B29200A258002A00D121
:10C62000F1E0032900D1F1E0A025ED05AC46E025BD
:10C6300087006744ED007D5903ACA65DAD03AD0FE7
:10C64000334200D0B9E0032D00D187E102230093EB
:10C65000013B0326994600254123874AD1564B1CAE
:10C660002FD0C9B2534608005A46984301230A40C6
:10C670009340C70805AAD25D134222D07E4A7E4C61
:10C68000121820321278890952B29200A2580192EF
:10C69000002A00D1C8E0032900D1C8E0A024E405A5
:10C6A000A04682009044E0224446D200A25803AC47
:10C6B000E75D9203920F3B4200D08FE0032A00D146
:10C6C00037E142236C4AD1564B1C2DD0C9B2534698
:10C6D00008005A46984301230A409340C70805AA18
:10C6E000D25D134220D0644A634C12182032127873
:10C6F000890952B29200A658002E00D18CE003297D
:10C7000000D18BE0A024E405A44682009444E022FA
:10C710006446D200A25803ACE75D9203920F3B42FD
:10C7200068D1032A00D1EFE04323534AD1564B1C72
:10C730002AD0C9B2534608005E46984301230E40F2
:10C74000B340C20805AEB65C33421DD04A4C8909DD
:10C7500026182036367876B2B600A659002E6CD050
:10C7600003296CD0A024E405A4468700BC44E0273C
:10C770006446FF00E75903ACA25CBF03BF0F13423E
:10C7800012D1032F00D1A8E0002D00D11CE7A22375
:10C79000A022DB00D205D358039A9A4200D113E7B6
:10C7A0000393049B05931EE7022FEDD1032900D1CB
:10C7B000EEE0002EE8D0B047E6E7022D00D045E7D6
:10C7C000032900D1E7E002230093013B03269946A9
:10C7D0000025002A00D13FE790473DE7022A00D01C
:10C7E0006FE7032900D1DAE0019B002B00D168E755
:10C7F000984766E7022A97D1032900D1C5E0002EA9
:10C8000092D0B04790E7032900D01FE704ACA519E8
:10C810002F781F432F7007E7032985D104AAD21967
:10C8200014781C4314706DE7032900D049E704AA6B
:10C83000D21914781C43147030E70329A4D104AC36
:10C84000A7183C781C433C708CE700221A608023B8
:10C850001B061C43A022A223D205DB00D35803935E
:10C8600091E6C0460061004004610040086100405C
:10C870000C6100407C6100409C2100200060004071
:10C88000C12248499200895808220A4200D175E61F
:10C8900000211443196071E6C1224249920089586F
:10C8A00004220A4200D164E600211443196060E6C4
:10C8B000C1223C499200895802220A4200D153E623
:10C8C0000021144319604FE6C120364C80002458E3
:10C8D0001C4000D143E6116041E6032900D068E71F
:10C8E0008027BF02E0236246DB00D5582E4A64460B
:10C8F00015406246D550D2584D463A43E250002E7C
:10C9000000D144E7B0473FE7032900D077E780270D
:10C91000BF02E0236246DB00D558234A6446154037
:10C920006246D550D2584D463A43E250009B994654
:10C9300065E7032900D057E78027BF02E02342467E
:10C940004446DB00D258184D2A40E250E2584D468A
:10C950003A43E250009B0096994645E7032900D0F0
:10C9600031E780239B029C46E0236446DB00FE58AF
:10C970000D4D2E40FE50FD5804262543FD50032347
:10C980000093013B9946012523E7C027BF02C0E77A
:10C99000C027BF02A6E7C0239B029C46E4E7C0274E
:10C9A000BF02CBE700600040FFFFFCFFF8B5CE46BA
:10C9B000474680B505794A4CEF007B1B9B00E31886
:10C9C000DB7E060091460820002B03D00CBC90466D
:10C9D0009946F8BD0868431C0CD00123A12283406E
:10C9E000A020D200C005835003220B68C133FF335F
:10C9F0009B001A504B685A1C06D0A0200022C1335D
:10CA0000FF339B00C0051A5030688A69354BC2500D
:10CA1000087D4B7D32680343334813500A683368FE
:10CA2000944632484A681A50624631481A500B7D83
:10CA3000012B2DD04A467B1B9B00E01842600A69FF
:10CA4000E2504B46002B12D08E2200233068520059
:10CA5000097F8350306828328350C1233068254ACB
:10CA60009B00C2503368180B40B2FFF7DFFBA023D6
:10CA700004213268DB00D150002301227D1BAD0070
:10CA80006419E3752376A375E276A37600209DE70B
:10CA90008B685A1C06D0A0200022C133FF339B00B4
:10CAA000C0051A50CB685A1C0ED001209840A12214
:10CAB0000300A020D200C00583500322CB68C133FD
:10CAC000FF339B001A50CB688A6830689446A122D5
:10CAD000D2008350A2236246DB00C250AAE7C046C0
:10CAE000E4210020240500006C050000140500006E
:10CAF0000C05000080000200F0B557464E46454642
:10CB0000DE46E0B50479374EE3001B1B9B00F318AB
:10CB10009D7D1127002D06D038003CBC90469946DB
:10CB2000A246AB46F0BD8E249D8299609A7503792A
:10CB300001229C46036864001D51036800279A6027
:10CB400063466246DB009A1A9200B21898469368D0
:10CB5000016899460D514D46938AED5C938A0133E5
:10CB60009BB29382204BCD505368002BD4D1937D40
:10CB700080259B466D001100938A14315B4518D2C5
:10CB8000016802E0938AAB4202D00B59002BF9D026
:10CB9000938AAB42EFD000234F460B51938AFB5C44
:10CBA0009A465746938A01339BB293820E4BCF50DD
:10CBB000E1E780230A885B009A4210D08E21026848
:10CBC00049005358002BFCD001230027D360434673
:10CBD00062469B1A9B00F6180023B3759CE70F274B
:10CBE000F5E7C046E42100201C0500000279D300CF
:10CBF0009B1A044A9B00D318987D431E9841C0B2EB
:10CC00007047C046E4210020F0B54E4645465746E1
:10CC1000DE46E0B506796D4DF3009C1BA4002C198F
:10CC2000676885B088469146002F07D08124A4000C
:10CC3000A446614605340268FF3411519B1B9B00DA
:10CC4000EB18DC7D002C0DD01C7E002C2ED0002F8C
:10CC500000D1B6E08121C123026889009B00D15038
:10CC600011201CE04A46DA7542465C76DA601C7692
:10CC70000779FB009946DB1B9B00EB189B7E002B82
:10CC80006BD04B46D91B890069184B68002B1BD011
:10CC90008121C1230268002089009B00D15005B08A
:10CCA0003CBC90469946A246AB46F0BD42461A614E
:10CCB0004A461A760779FB0099464B46D91B8900EC
:10CCC00069184B68002BE3D1A22204685200A350DC
:10CCD00001922E3AFF3A93460232944684248C44C1
:10CCE00064006246A246884603688B44039202971A
:10CCF000922252009A58019C9446511E8A415146F4
:10CD000059581E59D2B23400671EBC41E4B2002902
:10CD100004D1002E02D161460029E9D0002A3DD17C
:10CD2000002C3BD159460978002922D10934FF341F
:10CD30001A51A3224146D2009B58029F4B7E4B467C
:10CD4000DF1B0023BF00ED19EB75AB7E002B31D04C
:10CD50000122036800201A60A1E7922201685200B4
:10CD60008B5001681C3A8B500368083AFF3A1A60EE
:10CD700087E75246A3219C50039CC90022785B5848
:10CD80004146C9688B545A4623780133DBB223707D
:10CD9000237812789A4216D90368A9E74B46029F76
:10CDA000DF1B0023BF00ED19EB756346002B06D097
:10CDB000032074E70122036800205A606FE70F2008
:10CDC0006DE711206BE7029FB9E7C046E421002020
:10CDD00010B501790C4ACB005B1A9B00D3189B7EDF
:10CDE000002B10D1922104684900635004681C395B
:10CDF000635003680839FF3919600079C3001B1AB2
:10CE00009B00D218917610BDE4210020C12310B5FB
:10CE1000614A9B00D35884B09B054FD592235B0099
:10CE2000D15800294AD00021D1508121E533890011
:10CE3000FF33D150594B997E002901D10131516006
:10CE4000022269460A7090215348C9004258425054
:10CE500069460392DA7D68460A72DA6819680192B7
:10CE60000022DA751A765B6898478E214A4A490093
:10CE70005358002B0FD0494B9C8A987D84424FD247
:10CE800000205050998A9868405C998A013189B293
:10CE90009982434BD050A2233F4A5B00D1580029CE
:10CEA0000AD00021D1503D4B997E002901D00121AB
:10CEB0001160DA7D002A42D104B010BDC123364A88
:10CEC0009B00D3585B07D0D5842149005358002BD1
:10CED000CBD0324BD87D00283ED15050A321C90081
:10CEE00052585A7E8242C0D11A7E002A42D19A7E7E
:10CEF000002A02D10121284A51608120C2222649FC
:10CF0000800092008850002268460121DA755A7E1E
:10CF100001700272DA68196801925B689847A4E7A9
:10CF2000002454500028B6D06A46147010729A68D3
:10CF30009C75196801925B6868469847ABE70022C8
:10CF400068460121DA755A7E01700272DA68196842
:10CF500001925B689847AFE700205050A320C000C3
:10CF6000597E1258D86842545A7ED87D0132D2B2C6
:10CF70005A76B6E7DA751A69D968DA6000226C4623
:10CF8000587E1A765A760132207201912270196801
:10CF900068465B68984768E700200040E42100206D
:10CFA0001C05000010B50220FFF75EF810BDC0465A
:10CFB000F8B5CE46474680B506000D00FFF798F855
:10CFC0000400032812D8012D14D0002D22D0022DE8
:10CFD0000CD143001E4C1B18E4186578002D05D0B9
:10CFE0001C4B1B68002B01D0280098470CBC9046B6
:10CFF0009946F8BD164F430098461B18FD5CFB1878
:10D000005B78002B13D143461B19FF18BA78124BDB
:10D010001A55E3E71148FEF737FE62000C4B121970
:10D020009B189D780C4B1B5DAB42DFD1D6E70C4BB8
:10D030000A4899460B4B4A461B689900C918490093
:10D04000FEF7C2FD0028DED14B461E70DBE7C0466E
:10D05000482200207C220020842200202822002058
:10D06000002200202422002070B5724B1B68DB07D1
:10D0700000D470BD704E714D33782C78002B05D1E3
:10D08000172CF6D86E4AA300D3589F46002333705E
:10D09000FEF7C6FFF4E7012301203370FEF7E4FF3B
:10D0A000684B00221B6868489900C918FEF78CFD80
:10D0B000DFE7012301203370FEF7D6FF614B00222A
:10D0C00019686148FEF780FDD3E7604D2800FEF740
:10D0D000DBFD11231C1B00D18EE0002800D08BE06B
:10D0E000012C0BD0C8306421604302F053F9554B3A
:10D0F0000022196841432800FEF766FD0220FEF772
:10D1000075FFB6E7FEF78CFF12232B70B1E7FEF731
:10D1100087FF0020FEF76AFF13232B70A9E7FEF7B5
:10D1200091FF2C70A5E7FEF77BFF00232B70A0E793
:10D130000020FEF74DFF002862D00020FEF764FFBC
:10D140002823022C55D02C7022E0FEF77BFF0C2305
:10D150002B708EE7FEF764FF0020FEF747FF0120EB
:10D16000FEF744FF15232B7083E7FEF759FF0120DC
:10D17000FEF73CFF14232B707BE70020FEF728FF0F
:10D18000002850D00020FEF73FFF082303222A701A
:10D190002C4A2D48116800225943FEF715FD68E717
:10D1A0000020FEF715FF002833D00020FEF72CFFEB
:10D1B00028230422EBE70020FEF718FF07232B703B
:10D1C00057E70020FEF704FF002828D00020FEF7D4
:10D1D0001BFF05232B701B4B002219681A484900BE
:10D1E000FEF7F2FC45E70020FEF73EFF06232B701A
:10D1F00064E7163B2C70CBE70220FEF705FF38E70B
:10D200000020FEF7F3FE0423022C9CD1023B2C707D
:10D21000BEE70020FEF7EAFE04230422B7E7002061
:10D22000FEF7E4FED5E70020FEF7E0FE022303222E
:10D23000ADE7C04654220020582200208022002062
:10D24000AC050200242200205C22002004220020E1
:10D2500010B50078FEF74CFF03280BD843001B18CD
:10D260000548C0184078002804D0044B1B68002BE8
:10D2700000D0984710BDC046482200207C220020E4
:10D2800010B5FEF727FF10BD70B57F4B05001B687A
:10D290000024DB0701D4200070BD7C4E3378002BC6
:10D2A00006D1172D00D9EDE0794AAB00D3589F463F
:10D2B0003470FEF7B5FEF4E7012301203370FEF76A
:10D2C000D3FE744B00221B6873489900C918FEF7FF
:10D2D0007BFC0400DFE7012301203370FEF7C4FE6E
:10D2E0006C4B002219686C48FEF76EFC0400D2E714
:10D2F000FEF796FE0120FEF779FE1422674B00240C
:10D300001A70C8E70020FEF771FE0722634B002465
:10D310001A70C0E7FEF784FE0020FEF767FE0120CA
:10D32000FEF764FE15225D4B00241A70B3E700205F
:10D33000FEF74EFE002800D199E00020FEF764FEC3
:10D3400008230321554A117076E00020FEF740FEC5
:10D35000002800D185E00020FEF756FE2823042196
:10D36000F0E70020FEF734FE002800D184E0002022
:10D37000FEF74AFE0522494B47481A70454B0022EA
:10D3800019684900FEF720FC040084E70020FEF73E
:10D390006BFE0622414B1A70A2E7FEF753FE0C22E9
:10D3A0003E4B00241A7076E73D4E3000FEF76CFCD1
:10D3B00004001120451B48D0002C46D1012D0CD073
:10D3C000B7306421684301F0E5FF324B0022196851
:10D3D00041433000FEF7F8FB04000220FEF706FE92
:10D3E00059E7FEF71DFE12222C4B00241A7052E75B
:10D3F000FEF716FE0020FEF7F9FD1322274B00244E
:10D400001A7048E7FEF71EFE244B00241D7042E709
:10D41000FEF706FE0022214B00241A703BE7002095
:10D42000FEF7D6FD002814D00020FEF7EDFD2823DE
:10D43000022D25D0194A1570164A17481168002286
:10D440005943FEF7C1FB040025E70220FEF7DCFD8F
:10D4500021E70020FEF7CAFD0423022DEAD1023B9A
:10D46000E8E70020FEF7C2FD042304216AE700205C
:10D47000FEF7BCFD022364E70020FEF7B7FD79E765
:10D48000163BD7E7002406E754220020582200204C
:10D490000C060200242200205C22002080220020B2
:10D4A00004220020204B70B51960204B0400186046
:10D4B0001F4B1A60830713D50E221E4B1E481A708D
:10D4C0000132DA7001329A7101325A724A0804212B
:10D4D000FDF728FF051E19D0E30712D4280070BD00
:10D4E000C3070DD4154A00211548FEF753FB051E4E
:10D4F000F4D1144A01211448FEF74CFB0500EDE776
:10D500000025FEF7C9FD002DE8D1EBE7FDF762FF2E
:10D51000051EE1D10D4A00210D48FEF73BFB050039
:10D52000E307F0D5EDE7C046242200205422002076
:10D530007C220020482200206C06020069D00100F5
:10D5400094060200A5CF01008C06020051D2010012
:10D550009006020003000720032B00D97047012A20
:10D5600013D0012917D0002908D0022919D1580059
:10D57000C0180D4B1B185A700020EFE75800C01858
:10D58000094B1B189A700020E8E700220129E8D116
:10D590001A000E32D2B258000349C3185A54002060
:10D5A000DCE70720DAE7C0464822002010B5FEF786
:10D5B000B3FDA023DB059C46E02380006044DB0034
:10D5C000C25805490A40C250C022C15892020A43BB
:10D5D000C250002010BDC046FFFFFCFF10B5002068
:10D5E000FFF7E4FF002802D0062800D010BD01207C
:10D5F000FFF7DCFF0028F9D00628F7D10020F5E777
:10D6000010B50388102B08D0112B05D1294A1368B7
:10D61000013B1360002B07D010BD264C2368002B64
:10D6200011D001332360F7E7012202210020FFF728
:10D6300091FF00282BD0072829D01F4B1B68002BF7
:10D64000EAD09847E8E7012200210020FFF782FF97
:10D65000002808D0072806D0174B1B68002B00D0E5
:10D6600098472368DDE7072202210120FFF772FFB8
:10D67000002801D00728EFD1042202210020FFF763
:10D6800069FF0028EDD00728E6D12368C9E7072203
:10D6900002210120FFF75EFF002801D00728CCD12E
:10D6A0000A2200210020FFF755FF0028B4D00728E8
:10D6B000C3D1B1E78C220020882200201F4B10B577
:10D6C0000C1E186006D00120FFF7DAFD002823D0D9
:10D6D000022323701A4B1B68002B01D0002010BDC1
:10D6E000012202210020FFF735FF002801D0072882
:10D6F000F5D1072202210120FFF72CFF002801D0DD
:10D700000728ECD10A2200210020FFF723FF002880
:10D71000E4D00728E3D1E1E70020FFF7B1FD0028BE
:10D7200005D1074B20701B68002BD7D1D8E70B23FE
:10D730002370034B1B68002BD0D1D1E78822002037
:10D740008C22002076DF70477ADF70477CDF7047DD
:10D750007FDF7047A8DF7047A9DF704767DF70473A
:10D760003CDF704748DF704710B5FDF74BFE10BD3A
:10D7700010B5040084B001F097FA2100374801F099
:10D780008BFB2388132B5FD00FD9512B46D030D978
:10D79000522B24D0552B0ED1A0881321FFF7D2FF96
:10D7A000002808D0FDF72EFE05E0102B24D0112B09
:10D7B00009D0022B2BD0200001F018F92000FFF730
:10D7C0001FFF04B010BD0020FFF75EFD002801D050
:10D7D000FDF718FE0122224B52421A80EBE7204B44
:10D7E0000022188800210023FFF7B6FF0028E2D0AE
:10D7F000D8E73A2BD0D0DEE70720FFF745FD002819
:10D8000001D0FDF7FFFDA288154B1A80D3E7A08851
:10D810000021FFF7A3FF0028CDD0C3E7A379002B99
:10D82000C9D0A27B043A022AC5D8022B00D001231A
:10D830006A461370C1235B009380A0886946FFF796
:10D8400089FF0028B7D0ADE7054B00221888852155
:10D850000023FFF77DFF0028ADD0A3E76823002059
:10D860005820002070B50D0016000024002A07D0B3
:10D87000285DFEF72FFB0028FAD10134B442F7D31C
:10D880000D20FEF727FB0028FAD10A20FEF722FB25
:10D890000028FAD170BDC04610B50378002B00D027
:10D8A00010BD054B3B211888FFF74CFF0028F7D02F
:10D8B000FDF7A8FDF4E7C0465820002010B5072862
:10D8C0001ED00A280ED0042800D010BD134B1321FF
:10D8D0001888FFF737FF082302009A43F5D0FDF7B9
:10D8E00091FDF2E70020FFF7CFFC002813D1FFF7EE
:10D8F00075FE00280CD1FFF733FF0028E5D0EEE7D6
:10D90000064B1A88064B9A42DFD101F0CFF8E2E7C6
:10D91000FDF778FDEFE7FDF775FDE8E758200020FB
:10D92000FFFF000070B50378012B03D0002B05D05A
:10D93000022B02D14068FDF765FD70BD0F4C104D04
:10D9400020782818FEF7A6FA22780132D2B2AB1856
:10D95000013B1B7822700A2B01D0132AEDD992B219
:10D960002900084801F0CEFB082302009A4301D0A9
:10D97000FDF748FD00232370DFE7C0466423002045
:10D98000502300206823002010B5002807D003286A
:10D9900004D10138FFF778FC00280DD110BD00201C
:10D9A000FFF772FC00280AD1FFF718FE002809D102
:10D9B000FFF7D6FE0028F1D0FDF724FDEEE7FDF7D6
:10D9C00021FDF1E7FDF71EFDF2E7C046F0B50023AB
:10D9D000ABB0724A05210020FEF746F8002801D0BE
:10D9E000FDF710FD6E4E1BAC2300320023CA23C38B
:10D9F00023CA23C36B4B6C4A0C9380230CAD5B0092
:10DA00006B60AA60EB60694AFD3B29002000FEF7CD
:10DA1000E3F9002801D0FDF7F5FC654A65490320CC
:10DA2000FFF740FD002801D0FDF7ECFC21000020AD
:10DA3000FFF744FE002801D0FDF7E4FCB36948225B
:10DA400003930C935C490023280001F009FC002893
:10DA500001D0FDF7D7FC22000121002001F074FC69
:10DA6000002801D0FDF7CEFC200001F085FC002845
:10DA700001D0FDF7C7FC514801F044FC002801D05B
:10DA8000FDF7C0FC0F2301212A784D4E9A430A432B
:10DA900013401022300013432B7001F015FE3100AB
:10DAA00082B22800FFF752FE002801D0FDF7AAFC41
:10DAB000082200212000FDF7A9FB424B20001B9308
:10DAC000C8235B041C93FFF73FFE002801D0FDF73D
:10DAD00099FC002104222000FDF798FB3A4B21001D
:10DAE0003A481B9301F00AFA002801D0FDF78AFC9E
:10DAF0003C2200212800FDF789FB022300272B7020
:10DB00003C22033300212000EB70AF70FDF77EFB59
:10DB1000012304AE23822E4B2022002130006361BA
:10DB2000FDF774FB0123F370402333617433736199
:10DB300032000097274B2100280000F05FFE0028EC
:10DB400001D0FDF75FFC1C2200212000FDF75EFBE9
:10DB5000A02292026260F02200231203A26003223C
:10DB60001B93E38123741C4B200063611B4B2273C6
:10DB7000A36101F05DF8002801D0FDF743FC1848CF
:10DB800001F088FD032000F00FFF002803D1FFF70C
:10DB9000E9FD0028FBD0FDF735FCF8E790220020D6
:10DBA00098060200842300208424002025D9010047
:10DBB000BDD80100CD0C00000823002071D7010062
:10DBC000B406020010003C0065D801006823002064
:10DBD0005420002089D9010099D8010069D701009B
:10DBE000C006020071DF704772DF704779DF70474F
:10DBF0007DDF704765DF7047F0B5DE4657464E461D
:10DC00004546E0B587B09B4610AB914604CB070074
:10DC10001B88029101931388904603930388002B7D
:10DC200000D16EE000239A4604AB0024DD1C03E023
:10DC30003B880134A3422EDD7B68A1009C46042270
:10DC4000614405A801F01CFD0022290005A8FFF78A
:10DC5000D1FF061E2BD12B784B45E9D15346002B23
:10DC60002DD043461A884B460199D3188B421DDCB0
:10DC70005A44290005A8FFF7BDFF00283BD14246C2
:10DC80002B78128801349B184246138001239A4650
:10DC90003B88A342D0DC5346002B32D043461B883E
:10DCA000039A013B9B1A9BB2FF2B26D90C2630000E
:10DCB00007B03CBC90469946A246AB46F0BD4346F1
:10DCC0004A461B8801999A1802328A42EEDC424683
:10DCD000013369469BB213805A46097A05A8D1548C
:10DCE00043461A882900013292B21A805A44FFF73B
:10DCF00081FF0028C3D00600D9E711005A465354CB
:10DD0000D5E70026D3E7C046F0B557464E46454610
:10DD1000DE460023E0B5178813802D331400C25C63
:10DD200087B005000E000023002A50D1AA78002AEF
:10DD300000D078E0E978002934D16A68002A14D04C
:10DD4000D91CB94226D802211278F154238808310F
:10DD500001339BB22380F154238852B201339BB22A
:10DD60002380F2542388013323802B89002B00D099
:10DD700031E12B8A002B00D047E12B8B002B00D008
:10DD80005DE12B6A002B00D1B0E02288911DB942E1
:10DD900000D869E00C2007B03CBC90469946A246EA
:10DDA000AB46F0BDDA1CBA42F4D80222F254238802
:10DDB000013A01339BB22380F254238801339BB292
:10DDC0002380F154238801339BB22380B5E70C20D4
:10DDD000082FE0D904A8FFF705FF0028DBD10822AF
:10DDE00023880921F2542388133201339BB2238004
:10DDF000F25402AB9C462088153A013080B2208054
:10DE00006144301801F03CFC238802AA0633127AE0
:10DE10009BB22380002A00D00122F25423880133D0
:10DE20009BB2238082E704330C20BB42B3D804A802
:10DE3000FFF7DCFE0028AED103222388F2542388AA
:10DE4000163201339BB22380F254238802AA013395
:10DE50009BB212892380F3181A70120A5A70238811
:10DE600002339BB2238065E719888A46052900D8CA
:10DE7000AFE0AD48504480B28046AC48844680450F
:10DE800000D8A6E058888146052800D8A1E0A64819
:10DE900069468046C8444046C881C889604500D864
:10DEA00097E0A348824504D0814502D0CA4500D9F5
:10DEB0008FE00521B15422880D31013292B22280C7
:10DEC000B1542288013292B222801988B21811709E
:10DED000090A51702288023292B222805988B218FF
:10DEE0001170090A51702388023323806B6A9846A7
:10DEF000002B2FD0998820888A1C831C9B18BB423A
:10DF000000D947E7FE2A00D944E7FF220331315404
:10DF1000238801339BB22380F25442462388013385
:10DF20009BB223801288F3181A70120A5A70434663
:10DF30002088023080B220809A88002A0AD099680E
:10DF4000002946D0301801F09BFB42462388928876
:10DF50009B1823802C23EB5C002B00D08FE02B78C8
:10DF60000020002B00D116E72A880720012A00D1C3
:10DF700011E72288901CB84200D90BE7012B05D18C
:10DF80006B7802339B189F4200D203E7023FBF1A0F
:10DF9000BFB202AB301804A91F81FFF729FE002889
:10DFA00000D0F8E62B78022B00D1B5E0012B60D031
:10DFB0000822FE2F00D9EDE62388791CF15423882E
:10DFC00001339BB22380F25423880133FF1827804A
:10DFD000E1E60720DFE608239846A844019700946D
:10DFE0003300022202214046FFF706FE002800D03F
:10DFF000D1E6019700943300102206214046FFF736
:10E00000FBFD002800D1B4E6C5E610239846A844DD
:10E01000019700943300022203214046FFF7ECFDF4
:10E02000002800D0B7E601970094330010220721A2
:10E030004046FFF7E1FD002800D19EE6ABE618233D
:10E040009846A844019700943300022214214046C8
:10E05000FFF7D2FD002800D09DE601970094330021
:10E06000102215214046FFF7C7FD002800D188E6A1
:10E0700091E66B789F429BD31F00082299E7AB6A19
:10E080009846002BA5D09B880233FE2B00D981E651
:10E090000022914616329246163293462088524606
:10E0A00001333354238801339BB22380F254424618
:10E0B000238801339BB223801288F3181A70120A46
:10E0C0005A7043462088023080B220809A88002A05
:10E0D0000CD09968002900D17BE7301801F0D0FA04
:10E0E000434620889B88C01880B220804B4601336D
:10E0F000DBB299465B46EB5C4B4500D82FE74B46BD
:10E10000AA6A5B0090464B449B00984443469B8818
:10E110000233FE2BC3D93DE602AB1B899F4200D2DE
:10E1200046E71F00092244E77FF3FFFF7DF300006D
:10E13000FFFF0000F0B54646D6464F461F23C0B548
:10E1400096B002AA04000E00D38100282ED0C07819
:10E15000430724D5002302AA93812D33E35C002BCF
:10E1600000D06EE1A3780EAF002B00D0A6E1002313
:10E170000021032206AD02276F54591C02339BB2C3
:10E1800089B2013F6F54E85493B202AA9381626846
:10E19000002A39D0D91C1F2929D90C2000E00720DA
:10E1A00016B01CBC90469946A246F0BD002502ABB5
:10E1B0009881002E16D0F378002BF0D102AA944655
:10E1C0000E2363441A000EA93000FFF79DFD0028BE
:10E1D000E6D102AB9B7B0EAA02A9097B2800FFF7C0
:10E1E00003FDDDE702ABDE8100220023F4E700201F
:10E1F000105602220A27EA545A1C02339BB292B2EA
:10E20000AF54E85402AB99812389002B00D0BEE0C3
:10E21000238A002B00D0D8E0238B002B00D0F2E023
:10E22000226A002A3DD002AB9B89991D1F29B4D8D0
:10E23000108882460528B2D9D34F5744BFB2B8469A
:10E24000D24FBC46B845AAD95788B946052FA6D99A
:10E25000CD4F6846B846C8444746C781C789674519
:10E260009DD9CB4FBA4504D0B94502D0CA4500D993
:10E2700095E705201227E854581C80B22F54981CAB
:10E2800080B202AFB8811788281807703F0A47701C
:10E29000043352889BB2EB181A70120A5A7002AB00
:10E2A0009981676A002F2FD0BB88991C984602ABD2
:10E2B0009B899A1C50181F2800D96EE7FE2900D9A7
:10E2C0006BE740460330E854FF20591C89B268547C
:10E2D00092B202A98A813988AA180433117098B2BF
:10E2E000090A02AB51709881BA88002A0CD0B9682B
:10E2F000002900D153E7281801F0C2F902ABBA880F
:10E300009B899B1802AA93812C23E15C002900D0F1
:10E31000EFE02378002B00D14BE722880720012A69
:10E3200000D13DE702AA9289901C1F2800D934E74A
:10E33000012B04D163781B181F2B00D92DE71D2357
:10E340000EAF9A1A93B22818390098463B80FFF70F
:10E350004FFC002800D023E72378022B00D119E1DD
:10E36000012B00D11DE1434608213B804346FE2B93
:10E3700000D912E7424602AB9B890132EA545A1C8B
:10E3800092B20233A954434402AA938111E71F2396
:10E39000270098460837019305AB009302222B0013
:10E3A00002213800FFF728FC002800D0F8E6434699
:10E3B000019305AB009310222B0006213800FFF7D4
:10E3C0001BFC002800D123E7EAE61F23270098461C
:10E3D0001037019305AB009302222B000321380074
:10E3E000FFF70AFC002800D0DAE64346019305ABAC
:10E3F000009310222B0007213800FFF7FDFB0028B7
:10E4000000D109E7CCE61F2327009846183701936F
:10E4100005AB009302222B0014213800FFF7ECFB20
:10E42000002800D0BCE64346019305AB00931022C0
:10E430002B0015213800FFF7DFFB002800D1EFE6A5
:10E44000AEE60EAF3800FFF7CDFB002800D0A7E600
:10E45000082202AB9B8906ADEA545A1C023398B2DB
:10E460001B2102AB9C4692B2A95416319881062218
:10E470006144281801F004F902AB9B8902A99A1D96
:10E4800092B28A813978002900D001210733A9543A
:10E490009BB202AA9381A278002A0AD1E0780028D0
:10E4A00000D174E6DA1C19001F2A00D863E60C209C
:10E4B00076E604330C201F2B00D971E63800FFF7F5
:10E4C00095FB002800D06BE60322192102AB9B8943
:10E4D00006ADEA545A1C92B2A9549A1C398892B2D9
:10E4E000AA1811700433090A51709BB202AA9381D1
:10E4F000D4E7A76A002F00D151E6BB880233FE2B78
:10E5000000D94AE602AA9089002290461632914626
:10E51000163292464A4601332B54431C9BB2EA54AE
:10E52000831C9BB202AA93813A88EB181A700430BC
:10E53000120A5A7080B202AB9881BA88002A0FD0B2
:10E54000B968002900D12AE6281801F099F802AB31
:10E550009889BB88C01880B202AB98815346E15CB1
:10E5600043460133DBB298468B4200D3D1E64346A3
:10E570005F00A36A47449C46BF006744BB880233E0
:10E58000FE2BC7D90C200BE67FF3FFFF7DF30000C5
:10E59000FFFF00003B88984500D2E4E69846092139
:10E5A000E4E66378984500D2DDE63B809846082192
:10E5B000DCE6C04673DF704774DF7047F0B5834C0C
:10E5C000072287B0060000212000FCF71FFE804DC7
:10E5D000804B2A68804F1A4202D03B78012B3BD0F7
:10E5E000AB78002B35D16378002B66D1A378002B54
:10E5F00063D1E378002B60D12379002B5DD163795F
:10E60000002B5AD1A3795A1E9341DBB2022E33D08C
:10E610002DD9032E33D0042E47D12A790423002A82
:10E6200043D03B706D4B1B68002B31D100226C4BEB
:10E630001A70182200216846FCF7E8FD00236A469C
:10E64000137013723B78042B5ED8664A9B00D35834
:10E650009F463B78022BC6D1604B1B68002B00D134
:10E66000A7E00121604A082011709847BBE7012EFE
:10E670001BD16A78002A1CD1AA78002A18D1EA781E
:10E680000323002AC9D03B70544B1B68002BCDD00C
:10E690002A78002ACAD0554A1278002AC6D1012108
:10E6A0004F4A072011709847C3E700263E70BDE728
:10E6B0000226002BE3D03E70B8E70123A6E76B46A5
:10E6C0002A8A1A82AA8A5A822B78002B00D173E0F8
:10E6D000464B1B78002B00D06EE0454B1A79002A80
:10E6E00002D11A7B002A67D003936A46022341486D
:10E6F000137200210233C370FFF71CFD002863D1A1
:10E7000005223D4B1A703B78002B12D1334B1B680E
:10E71000002B17D1002019E00222374B01941A7008
:10E7200001236A4613706B46AA895A826A46AB680F
:10E7300013826846FFF73EFF002807D1274B1B686E
:10E74000002BE7D02C4A10789847002007B0F0BD86
:10E750000022294B1A70F1E76B462A8B1A82AA8B8A
:10E760005A822B78002B2BD0204B1B78002B27D1E3
:10E770001F4B1A79002A02D11A7B002A20D003935A
:10E780006A4602231B48137200210233C370FFF74D
:10E79000D1FC002818D10622174B1A703B78B3E73A
:10E7A0000123154A019413706A46137000230493E1
:10E7B000BFE70D4A137016E703220F4B1A70B8E734
:10E7C00004220D4B1A70B4E73B789DE764260020C5
:10E7D0008825002000FFFF0085250020EC25002073
:10E7E00054270020D0060200602600205527002074
:10E7F0005C200020A825002084250020F8B5040016
:10E800000E000E20002C00D1ADE0002A00D1AAE0BD
:10E8100055490D38087000205449087054480100CB
:10E82000A1CAA1C1A1CAA1C121CA21C1514A0021C5
:10E830001360514B069A51481A600122504B5242C4
:10E840001A800832FCF7E2FC4E4D00213C222800E1
:10E85000FCF7DCFC237822002B70A3781032AB701D
:10E86000E378EB7063786B702B00103303CA03C33B
:10E870002B00103A083303CA03C32B0008321833A5
:10E8800003CA03C3636A002B11D03F4B3F4F6B6237
:10E89000616A9F600A881A8088889880002806D05C
:10E8A00000238A68D25CFA5401339842F9D1A36AF2
:10E8B000002B14D0364B374FAB62A06A9F60818823
:10E8C000998002881A800023002905D08268D25CD2
:10E8D000FA5401338B42F9D12C23E25CEA54236AC7
:10E8E000002B06D02C4B2B62226A5188598012884B
:10E8F0001A806368002B00D06B602849284B0A6897
:10E90000D81D13600A68506018000E30906018001F
:10E910001530D06018001C30106118002330506191
:10E9200018003133D3611F4B2A30906118008A6878
:10E93000103013608A68506018008A682030906038
:10E940008A6819003031D160190040311161190015
:10E95000503151611900703360319161D3613100E0
:10E960002800FFF7E7FBF8BDF025002085250020F3
:10E9700088250020EC250020E825002064260020C2
:10E98000E6250020A825002014260020F4250020DC
:10E990006C26002078260020982600205C2000208D
:10E9A0009C260020D426002010B50D4B04001B78B7
:10E9B00082B00820002B01D102B010BD094B01A884
:10E9C0001C70FDF7E1FA019B002B04D00122064BDD
:10E9D00000201A70F0E72000FFF7F0FDECE7C046DA
:10E9E000F025002085250020E425002030B503888F
:10E9F00083B0112B1AD01B2B0AD0102B01D003B0DF
:10EA000030BD837D012BFAD18288224B1A80F6E734
:10EA1000037A002BF3D1204B08201B78002B1FD149
:10EA20001E4B1B68002BEAD09847E8E700211C4AE0
:10EA300083881170174A12889A42E0D1164B082039
:10EA40001B78002BECD00122164B01A81A70FDF7A1
:10EA50009BFA019B002B17D00122134B1A70CEE7B3
:10EA6000104D05212878013000F004FE01A8CCB239
:10EA70002C70FDF789FA019B002BEDD12000FFF7E8
:10EA80009DFD0028BBD0CBE70120FFF797FD0028B4
:10EA9000B5D0C5E7E6250020F0250020E8250020B8
:10EAA0005527002085250020E425002070B501258C
:10EAB00082B0FFF781FD144B14481D70062300211E
:10EAC000C370FFF737FB041E02D0200002B070BDF8
:10EAD0000F4B08201B78002B05D10E4B1B68002B19
:10EAE000F3D09847F1E70C4B01A81E78FDF74CFADC
:10EAF000019B002B02D0094B1D70E6E73000FFF7A9
:10EB00005DFD0028E1D0E8E755270020A82500207A
:10EB1000F0250020E825002085250020E4250020A0
:10EB200075DF704776DF70477ADF70477BDF7047AD
:10EB300010B5184B82B01888174B984214D0174A5A
:10EB4000174C13780133DBB21370217B99420DD23D
:10EB500000231370237C002B12D16369002B03D098
:10EB6000002201A80270984702B010BD0D49FFF7BE
:10EB7000D7FF0028F8D0A369002BF5D09847F3E71A
:10EB80003B21FFF7CFFF0028E7D0A369002BE4D09B
:10EB90009847E2E758270020FFFF0000A827002041
:10EBA0005C270020A027002030B51B4B1B4A5B8848
:10EBB000118883B099420FD852889A420CD3184BCF
:10EBC0005B69002B03D0012201A802709847154C05
:10EBD0000023237003B030BD124C2378002B08D0E3
:10EBE0000F4B5B69002BF3D0002201A802709847FD
:10EBF000EEE70D4B0A4D1B78002B0BD0A9680022C5
:10EC00000A48FCF7E1FF0028E2D0AB69002BDFD017
:10EC10009847DDE76968F2E798270020A0270020E1
:10EC20005C27002056270020A827002078270020F6
:10EC3000164902000B0070B532CA32C332CA32C361
:10EC400012681A600022124B01681A70002916D04F
:10EC5000104C0832200000F013FD2000FFF764FF85
:10EC600000280BD101220C4B52421A8000220B4B80
:10EC700000211A700A480B4AFCF78CFF70BD05484A
:10EC8000FFF754FF0028EDD0F8E7C0465C270020CE
:10EC900056270020A027002058270020A827002062
:10ECA000E406020031EB010010B50388112B33D0CC
:10ECB00021D9122B18D0502B1CD1204CC288E389AB
:10ECC0009A4217D1038A022B14D1123000F040F877
:10ECD00000280DD11A48FCF7D7FF00280AD0A369F5
:10ECE000002B07D0984705E0164B083006C806C32E
:10ECF000FFF75AFF10BD102BFCD18288124B183041
:10ED00001A80104B06C806C30022104B1A700B4B1A
:10ED1000DB89002BEED1EBE701220B4B52421A802C
:10ED200000220A4B06481A70FCF7AEFF0028E1D01B
:10ED3000024B9B69002BDDD09847DBE75C27002066
:10ED4000782700209827002058270020A827002097
:10ED5000012300781840704703210A4802680A43DB
:10ED60000260094802680A4302600849084A094BE0
:10ED70009B1A03DD043BC858D050FBDC00F012F8AE
:10ED8000FCF7CEF924050040540500409807020026
:10ED9000E81F00207C200020FEE7FEE7FEE7FEE7FC
:10EDA000FEE7FEE72E4B1B78012B00D070472D4B62
:10EDB0001B681B07FAD1F0222B4B1B68134027D18D
:10EDC0002A4B1B6813422BD0264B1B681B07EDD127
:10EDD000F022254B1B681340402B2DD0F022224BF4
:10EDE0001B681340A02B01D0D02BDFD1F0231F4A8A
:10EDF00012681A42DAD11E4A1368012B04D01D4B47
:10EE000013601368012BFCD1C0221B4B1A60CDE7A5
:10EE1000102B01D0302BDBD1144B1B681342D7D100
:10EE2000164A174B1A608022164B12021A600C4BBE
:10EE30001B78012BC8D0B9E70C4B1B681342CDD10E
:10EE4000C12380220121DB00D205D150044B1B7865
:10EE5000012BABD1034B1B681B07BFD0A6E7C046F5
:10EE6000E00F00F0E40F00F0E80F00F0EC0F00F00E
:10EE700000EC06407593000014EC0640DFFF07C06D
:10EE800004050040186C0040A0DF7047A2DF704707
:10EE9000A6DF704763DF704710B5041E08D0002955
:10EEA00006D00B88112B16D0502B02D0102B0FD070
:10EEB00010BDCB88028A9A4211D0A2889A42F7D11B
:10EEC000A369002BF4D00A8A200012319847EFE79B
:10EED0008B888382ECE701235B428382E8E70A8A1E
:10EEE000022AEAD112310800FFF732FF002802D0CF
:10EEF0000123A375DCE7A075DAE7C046F0B55746F5
:10EF00004E464546DE46E0B595B0040004A8020032
:10EF10007B4BE0CBE0C21B680E271360002C0DD0AA
:10EF200000290BD001235B42A3820B682100A3615F
:10EF30000023A375FFF7AEFF071E07D0380015B0FA
:10EF40003CBC90469946A246AB46F0BD237802A948
:10EF50008B700123A21C012098460B80FFF794FFC1
:10EF6000071EEBD1032200216846FCF74FF96B46E0
:10EF70000F221B7891469343012292465246134337
:10EF80004A461340102293465A4613436A4613706A
:10EF900053784A469343524613434A4613405A46CF
:10EFA00013436A465370937806229343043A1343FB
:10EFB0006A460DAD937000211C222800FCF726F94B
:10EFC0005A462B7801AE13432B706B466A466B6131
:10EFD00023780021937303233000938103226F6011
:10EFE000EF602F61AF61FCF711F94A4633780021D9
:10EFF0009343524613434A4613405A4613434A46E4
:10F000003370737808A89343524613434A4613401B
:10F010005A46134306227370B3789343043A13435A
:10F02000DBB2063293430832934352461343142211
:10F03000B370FCF7EBF803AB089342466B461A85B6
:10F0400014225F859A85230060880C3308AA290062
:10F050000996FFF71BFF071E00D06FE71C22002157
:10F060002800FCF7D3F808222B7800211343042250
:10F0700013436A462B7023783000937302239381E5
:10F0800003226F60EF602F616F61AF61FCF7BEF824
:10F090004A46337800219343524613434A4613406D
:10F0A0005A4613434A463370737808A8934352462E
:10F0B00013434A4613405A46134306227370B378EB
:10F0C0009343043A1343DBB206329343083293432B
:10F0D000524613431422B370FCF798F803AB08931D
:10F0E00042466B461A8514225F859A856088231DE7
:10F0F00008AA29000996FFF7C9FE07001EE7C046C7
:10F10000E806020070B586B06B4604000D00DA8098
:10F11000002809D0828A114B08209A4202D0A37D90
:10F12000002B03D106B070BD0E20FBE76B46DB88D9
:10F130000138142BF6D802AE102200213000FCF763
:10F1400065F8A389A08A33806B460633B360012338
:10F150003100F560B370FFF79BFEE3E7FFFF0000AF
:10F1600052DF704710DF704760DF704761DF704724
:10F1700010B5FCF757F910BDF0B557464546DE46C9
:10F180004E46E0B52E4B2F4F1D689A466B425D41AF
:10F190002D4B83B099462D4BEDB298462C4B9B4698
:10F1A0003C78E4B2002C3BD101A8FFF7D9FF052839
:10F1B0003DD0002825D0FCF725F9002D2CD13D7835
:10F1C000EDB2002D08D02BE0FCF71CF9002CE7D0A5
:10F1D0003B780124002B23D14B466A461B8801A9AA
:10F1E000938043461E683000FFF7C0FF052815D006
:10F1F0000028E9D1534630001B689847002CE7D11E
:10F20000CEE70198FCF7CAFF5B461B68002B12D0C3
:10F2100001989847002DD2D00125C1E7002CFBD0E2
:10F2200003B03CBC90469946A246AB46F0BD002DCB
:10F23000F6D10124C3E7002DC1D00125B0E7C046B7
:10F24000AC270020B5270020AA270020BC270020DB
:10F25000B8270020014B1878C0B27047B4270020AF
:10F2600070B504000720002901D08D0700D070BDC3
:10F2700001261C481C4D01601C490A801C4A136071
:10F280002B681E4209D080231A49EE502000FFF758
:10F2900069FF002807D02E60E9E716492000FFF734
:10F2A00061FF0028E3D10124134B1C70FCF788FF99
:10F2B000C5230D4A9B00D3589B0D1C4208D00F4B11
:10F2C0005968002906D18023DB0313600020CEE7B4
:10F2D0000B48CCE780221968D2030A431A60002049
:10F2E000C5E7C046BC27002000E100E0AA270020B7
:10F2F000B027002071F10100B4270020CC270020A6
:10F3000002200000002803D0024B18600020704744
:10F310000E20FCE7AC27002010B5094B1B68002B22
:10F3200006D09847002800D110BDFCF76BF8FBE72A
:10F33000044B1B78002BF7D0FFF71EFFF4E7C04605
:10F34000B0270020B427002070B5140005000E007F
:10F35000142200212000FBF759FF00230122236122
:10F36000237B22809343237326726572002D01D084
:10F370000123A372002070BD00B5054B83B001933B
:10F38000019B69460093FFF7EFFE019B03B000BDB0
:10F39000E81F0020002243088B4274D303098B42EC
:10F3A0005FD3030A8B4244D3030B8B4228D3030C55
:10F3B0008B420DD3FF22090212BA030C8B4202D3F7
:10F3C0001212090265D0030B8B4219D300E0090A1F
:10F3D000C30B8B4201D3CB03C01A5241830B8B4228
:10F3E00001D38B03C01A5241430B8B4201D34B0311
:10F3F000C01A5241030B8B4201D30B03C01A524176
:10F40000C30A8B4201D3CB02C01A5241830A8B42FA
:10F4100001D38B02C01A5241430A8B4201D34B02E3
:10F42000C01A5241030A8B4201D30B02C01A524147
:10F43000CDD2C3098B4201D3CB01C01A52418309FB
:10F440008B4201D38B01C01A524143098B4201D335
:10F450004B01C01A524103098B4201D30B01C01A60
:10F460005241C3088B4201D3CB00C01A52418308DA
:10F470008B4201D38B00C01A524143088B4201D307
:10F480004B00C01A5241411A00D201465241104667
:10F490007047FFE701B5002000F0F0F802BDC0465C
:10F4A0000029F7D076E7704703460B437FD400224C
:10F4B00043088B4274D303098B425FD3030A8B4208
:10F4C00044D3030B8B4228D3030C8B420DD3FF2272
:10F4D000090212BA030C8B4202D31212090265D040
:10F4E000030B8B4219D300E0090AC30B8B4201D3F3
:10F4F000CB03C01A5241830B8B4201D38B03C01A3A
:10F500005241430B8B4201D34B03C01A5241030BB0
:10F510008B4201D30B03C01A5241C30A8B4201D361
:10F52000CB02C01A5241830A8B4201D38B02C01A0C
:10F530005241430A8B4201D34B02C01A5241030A83
:10F540008B4201D30B02C01A5241CDD2C3098B4268
:10F5500001D3CB01C01A524183098B4201D38B01E5
:10F56000C01A524143098B4201D34B01C01A524188
:10F5700003098B4201D30B01C01A5241C3088B42CD
:10F5800001D3CB00C01A524183088B4201D38B00B8
:10F59000C01A524143088B4201D34B00C01A52415A
:10F5A000411A00D201465241104670475DE0CA0F31
:10F5B00000D04942031000D34042534000229C46F1
:10F5C00003098B422DD3030A8B4212D3FC228901FB
:10F5D00012BA030A8B420CD3890192118B4208D3D1
:10F5E000890192118B4204D389013AD0921100E033
:10F5F0008909C3098B4201D3CB01C01A5241830947
:10F600008B4201D38B01C01A524143098B4201D373
:10F610004B01C01A524103098B4201D30B01C01A9E
:10F620005241C3088B4201D3CB00C01A5241830818
:10F630008B4201D38B00C01A5241D9D243088B426E
:10F6400001D34B00C01A5241411A00D20146634611
:10F6500052415B10104601D34042002B00D5494275
:10F66000704763465B1000D3404201B5002000F0B4
:10F6700005F802BD0029F8D016E770477047C0466C
:10F68000002310B59A4200D110BDCC5CC4540133A4
:10F69000F8E700000FB40B4B13B51C68002C05D025
:10F6A000A369002B02D1200000F058F805AB049AA2
:10F6B000A1682000019300F06DF916BC08BC04B0ED
:10F6C0001847C046E81F00200023C25C0133002A0F
:10F6D000FBD1581E7047000010B5024900F0B2F887
:10F6E00010BDC04691020200002310B50400036063
:10F6F0004360836081814366C281036143618361AA
:10F70000190008225C30FBF781FD054B246263621F
:10F71000044BA362044BE362044B236310BDC04659
:10F7200001FF010029FF010061FF01008DFF0100C1
:10F7300070B568254A1E55430E002900743100F04B
:10F74000A3F8041E08D000212A00016046600C3096
:10F75000A0606832FBF75AFD200070BD836913B5C5
:10F760000400002B28D18364C3640365134B144A3F
:10F770001B6882620193984201D1012383612000BA
:10F7800000F020F86060200000F01CF8A06020006D
:10F7900000F018F80022E06004216068FFF7A4FF81
:10F7A00001220921A068FFF79FFF02221221E068D1
:10F7B000FFF79AFF0123A36113BDC0467C05020039
:10F7C000D9F60100F8B51E4B07001E68B369002B7F
:10F7D00002D13000FFF7C2FF4836B4687368013BBE
:10F7E00004D53368002B07D03668F6E70C22A55EF7
:10F7F000002D0DD06834F2E704213800FFF798FFA0
:10F8000030600028F0D10C2304003B602000F8BDDC
:10F81000012320005B42E3810233A38165662560FA
:10F82000A560656025616561A561082229005C30DD
:10F83000FBF7ECFC6563A563A564E564E6E7C046F9
:10F840007C050200F7B5040007000026019148344A
:10F85000002C01D13000FEBD6368A5680093009BB9
:10F86000013B009301D52468F2E7AB89012B08D94D
:10F870000E22AB5E013304D029003800019B98476B
:10F8800006436835EBE70000032370B5CD1C9D43AC
:10F89000083506000C2D1ED20C25A9421DD83000BB
:10F8A00000F0ADFD254A14682100002919D1244C2F
:10F8B0002368002B03D1300000F010FB20602900EA
:10F8C000300000F00BFB431C2CD10C2330003360C4
:10F8D00000F096FD03E0002DDFDA0C2333600020FA
:10F8E00070BD0B685B1B1AD40B2B03D90B60CC18B3
:10F8F000256003E08C420ED163681360300000F095
:10F900007FFD200007220B30231D9043C31AE7D050
:10F910005A42E250E4E74B6863600C00EEE70C00EB
:10F920004968C2E70323C41C9C43A042E0D0211ACB
:10F93000300000F0D3FA431CDAD1C6E7C02700201C
:10F94000C4270020936810B5013B9360002B05DAB3
:10F950009469A34208DBCBB20A2B05D01368581C6C
:10F9600010601970C8B210BD00F016FBFBE7F8B5C7
:10F9700006000F001400D518AC4201D1002007E0AA
:10F9800021783A003000FFF7DDFF0134431CF3D14A
:10F99000F8BD0000F0B59FB006000F0014000593FD
:10F9A000002804D08369002B01D1FFF7D7FE7F4BDD
:10F9B0009F425CD17768BB891B0762D53B69002BEE
:10F9C0005FD0002306AD6B6120336B761033AB76CE
:10F9D0000294029C2378002B5DD1029BE31A0493CE
:10F9E0000DD0049B029A39003000FFF7C0FF431C82
:10F9F00000D1CCE06A69049B944663446B61237830
:10FA0000002B00D1C3E00122002352426A6002A908
:10FA10005432521801342B60EB60AB601370AB654D
:10FA200021780522624800F0DFFC631C9C46002818
:10FA300035D12968CB0604D5532302AA20309B1860
:10FA400018700B0704D553232B2002AA9B1818709B
:10FA500023782A2B2CD000200A21099B2278303AC7
:10FA6000092A00D86BE000282AD0099328E0514BDE
:10FA70009F4201D1B7689EE74F4B9F429BD1F768E9
:10FA800099E73900300000F0F1FA002899D0012000
:10FA900040421FB0F0BD252B9FD001349AE7444B64
:10FAA0002968C01A012383400B432B606446B7E7E3
:10FAB000059B181D1B680590002B3ADB09936446D3
:10FAC00023782E2B0BD16378621C2A2B3FD1059B08
:10FAD00002341A1D1B680592002B35DB0793217831
:10FAE0000322364800F080FC002807D0334B2A68F8
:10FAF000C01A4023834013432B6001342178631CD8
:10FB000006222F480293297600F06EFC002844D08C
:10FB10002C4B002B2FD12968059B0722C90528D51E
:10FB20009B189343083305936B69039A9B186B6189
:10FB30004FE75B42EB6002230B432B60BFE74B4375
:10FB400001349B18012089E701235B42C6E70023AB
:10FB500014000A201A006B6021783039092903D972
:10FB6000002BBCD00792BAE742430134521801235C
:10FB7000F2E70733D5E705AB00933A00124B2900B3
:10FB8000300000E000BF0390039B0133CCD1BB8960
:10FB90005B0600D57BE70B987BE705AB00933A004B
:10FBA000094B2900300000F07FF8ECE7180702004D
:10FBB0005807020038070200F80602005E0702003C
:10FBC00062070200000000006FF90100F7B51500A0
:10FBD00001938A680B6900900C00934200DA1300CD
:10FBE00022002B6043321278002A01D001332B60AF
:10FBF00023689B0602D52B6802332B6006272368F7
:10FC00001F4027D0230043331B785A1E934122689C
:10FC1000920630D42200019943320098089EB047E2
:10FC2000431C25D0062320682A68E168034000258C
:10FC3000042B03D18D1AEB43DB171D40A368226907
:10FC4000934201DD9B1AED180027BD4220D1002010
:10FC500010E00137E3682A689B1A9F42D2DA22003B
:10FC60000123193201990098089EB047431CF0D136
:10FC700001204042FEBD3020E118433108702100D0
:10FC80005A1C45310978A218433202331170C1E77A
:10FC9000220001231A3201990098089EB047431CA4
:10FCA000E6D00137D1E70000F0B58BB006920A002C
:10FCB00043320793059004920A7E0C00109B6E2A33
:10FCC00000D18FE017D8632A2CD008D8002A00D1A1
:10FCD00099E0582A54D026004236327029E0642A2E
:10FCE00001D0692AF7D121681A68080623D5111DA9
:10FCF0001960156825E0732A00D188E008D86F2ABA
:10FD000029D0702AE7D1202209680A43226003E043
:10FD1000752A20D0782ADED1220078214532117050
:10FD20006C4A30E00E001A684236111D19601368E3
:10FD30003370012379E04906D9D5111D19600023DC
:10FD4000D55E002D03DA2D23049A6D421370624BA9
:10FD50000A2703932FE020681968050603D5081DBC
:10FD600018600D6805E04006F9D50D68081D18609B
:10FD7000ADB2594B082703936F2A18D00A2716E013
:10FD800045310A70544A03921A682168101D1860A0
:10FD90001568080622D5CB0702D520231943216018
:10FDA0001027002D03D1202322689A4322602300CC
:10FDB000002243331A706368A360002B5CDB0422CB
:10FDC000216891432160002D58D1049E002B64D0FE
:10FDD0002600039B42361B7833705EE04806DAD576
:10FDE000ADB2D8E709681A68080605D5111D196073
:10FDF000136862691A6006E04906F7D5111D19609B
:10FE00001368A28A1A800023049E236154E01A68B2
:10FE1000111D1960166800216268300000F0E4FAD4
:10FE2000002801D0801B6060636823610023049A6E
:10FE3000137041E02369320006990598079DA84791
:10FE4000431C43D0236800259B070FD4099BE0681F
:10FE500098423DDA18003BE022000123193206994E
:10FE60000598079EB047431C30D00135E368099AD6
:10FE70009B1A9D42F0DBE9E7002DA9D0049E2800E3
:10FE80003900FFF70DFB039B013E5B5C28003370DC
:10FE90003900FFF77FFA051EF1D1082F09D1236839
:10FEA000DB0706D563682269934202DC3023013EFA
:10FEB0003370049B9B1B2361079B09AA00932100BD
:10FEC000069B0598FFF782FE431CB3D101204042F8
:10FED0000BB0F0BD7A07020069070200002370B57D
:10FEE000064C05000800236000F02EFB431C03D1E4
:10FEF0002368002B00D02B6070BDC046D4270020A3
:10FF000070B50C000E25495F00F0C6FA002803DB2F
:10FF1000636D1B18636570BDA389024A1340A381FA
:10FF2000F9E7C046FFEFFFFFF8B51F008B8905001A
:10FF30000C001600DB0505D50E23C95E0022022346
:10FF400000F0D2F9A389054A28001340A3813200AA
:10FF50000E23E15E3B0000F075F8F8BDFFEFFFFFF8
:10FF600070B50C000E25495F00F0BEF9A389421C54
:10FF700003D1054A1340A38170BD8022520113436F
:10FF8000A3816065F8E7C046FFEFFFFF10B50E23C1
:10FF9000C95E00F0E1F810BDF8B505000E001400D0
:10FFA000002804D08369002B01D1FFF7D7FB224B37
:10FFB0009C422DD16C68A369A360A3891B0731D52E
:10FFC0002369002B2ED023682269F7B2981A63693F
:10FFD000F6B2984205DB2100280000F059F900280C
:10FFE00026D1A3680130013BA36023685A1C22601C
:10FFF0001F706369984204D0A389DB071AD50A2EC3
:020000022000DC
:1000000018D12100280000F043F9002812D00FE099
:100010000A4B9C4201D1AC68CDE7094B9C42CAD146
:10002000EC68C8E72100280000F020F80028CAD0BA
:10003000012676423000F8BD18070200380702009A
:10004000F806020070B50500080011000022064CF9
:1000500022601A00FBF7A4FF431C03D12368002B86
:1000600000D02B6070BDC046D4270020364B70B541
:100070001D6806000C00002D05D0AB69002B02D1D5
:100080002800FFF76BFB314B9C420FD16C680C23AF
:10009000E25E93B219072DD4D90611D409230120A9
:1000A000336037331343A381404270BD284B9C42D9
:1000B00001D1AC68EBE7274B9C42E8D1EC68E6E75E
:1000C0005B0713D5616B002908D0230044339942A4
:1000D00002D0300000F096F9002363632422A38944
:1000E0009343A38100236360236923600823A289CB
:1000F0001343A3812369002B0BD1A0218022A38964
:10010000890092000B40934203D02100300000F0A0
:1001100027F90123A289134011D00023A36063694A
:100120005B42A361002023698342BED10C23E25EBF
:100130001306BAD540231343A3810138B5E79207CC
:1001400000D46369A360EDE7E81F002018070200F0
:1001500038070200F8060200002370B5064C0500BF
:100160000800236000F0D0F9431C03D12368002B62
:1001700000D02B6070BDC046D4270020F7B58A8917
:1001800005000C00130760D44B68002B04DC0B6CDB
:10019000002B01DC0020FEBDE76A002FFAD000230F
:1001A0002E682B6080235B011A4034D0606DA389D8
:1001B0005B0706D56368C01A636B002B01D0236C04
:1001C000C01A0200216A00232800E76AB847A18903
:1001D000431C06D12B681D2B31D82C4ADA40D3079B
:1001E0002DD50023636023692360CB0405D5431C10
:1001F00002D12B68002B00D16065616B2E60002955
:10020000C8D023004433994202D0280000F0FAF805
:1002100000206063BFE70123216A2800B847431C20
:10022000C5D12B68002BC2D01D2B01D0162B01D1BC
:100230002E60AFE74023A2891343A381ABE740239D
:100240000B430120A3814042A5E70F69002FA1D0F5
:100250000B680F60DB1B01930023920700D14B69F1
:10026000A360019B002B00DC94E7019B3A00216A0C
:100270002800A66AB047002803DC4023A289134364
:10028000DFE7019B3F181B1A0193EAE701004020BA
:100290000B6970B505000C00002B01D1002070BD6A
:1002A000002804D08369002B01D1FFF757FA0B4BCC
:1002B0009C4209D16C680C22A35E002BEED0210079
:1002C0002800FFF75BFFEAE7054B9C4201D1AC68D1
:1002D000F1E7044B9C42EED1EC68ECE71807020012
:1002E00038070200F806020070B50500080011008A
:1002F0000022064C22601A0000F01EF9431C03D1B4
:100300002368002B00D02B6070BDC046D42700208E
:1003100070B50E001D000E23C95E90B014000029B8
:1003200007DA00232B60B3891B0611D48023DB007E
:100330000FE001AA00F0C4F80028F2DBF022029BD3
:1003400012021340054A9B185A4253412B60EDE7B5
:1003500040230020236010B070BDC04600E0FFFFC6
:10036000F7B502268B8905000C00334206D0230026
:1003700047332360236101236361F7BD01AB6A4604
:10038000FFF7C6FF009907002800FFF77DFA002855
:1003900008D10C22A35E9A05EFD4032293431E4397
:1003A000A681E4E70F4BAB628023A2892060134350
:1003B000A381009B20616361019B002B0DD00E2364
:1003C000E15E280000F08EF8002806D00322A38901
:1003D00093431A0001231343A381A0893843A081CA
:1003E000CBE7C046D9F60100C9B28218904201D1CC
:1003F0000020704703788B42FBD00130F6E770474E
:100400007047000070B50500002910D00C1F23684C
:10041000002B00DAE4182800FFF7F1FF1D4A1368EB
:10042000002B05D1636014602800FFF7E9FF70BD61
:10043000A34209D9216860188342F3D118685B6828
:1004400041182160EEE713005A68002A01D0A24249
:10045000F9D919685818A0420BD120680918581802
:1004600019608242E0D110685268411819605A60E0
:10047000DAE7A04202D90C232B60D5E72168601887
:10048000824203D1106852684118216062605C604A
:10049000CAE7C046C027002070B50500080011005B
:1004A0000022064C22601A00FBF788FD431C03D192
:1004B0002368002B00D02B6070BDC046D4270020DD
:1004C000002370B5064C050008001100236000F001
:1004D00023F8431C03D12368002B00D02B6070BD90
:1004E000D4270020002370B5064C050008002360C7
:1004F00000F01AF8431C03D12368002B00D02B60B6
:1005000070BDC046D427002058220120014B404234
:100510001A607047D427002058220120014B404226
:100520001A607047D42700205822024B00201A601E
:100530007047C046D427002058220120014B40427A
:100540001A607047D4270020044A1368002B03D098
:100550001818106018007047014BF9E7C8270020F1
:10056000D8270020F8B5C046F8BC08BC9E467047A6
:10057000F8B5C046F8BC08BC9E467047EC1F00208A
:10058000A0200020FFFFFFFFFFFFFFFFFFFFFFFF97
:10059000FFFFFFFF000000000000000000E0D701A7
:1005A00003000000111213141516171826D10100AC
:1005B00030D1010030D101007AD10100A0D1010079
:1005C000C2D10100E6D10100B6D10100B2D00100D4
:1005D00096D00100B2D0010096D001004AD10100AE
:1005E000CAD00100CAD00100CAD00100CAD001009F
:1005F000CAD0010004D101000ED101006AD101006E
:1006000054D101001ED101001ED1010010D40100FF
:100610001ED401001ED401002ED301004AD30100D4
:1006200062D301008CD3010004D30100D6D20100B3
:10063000B8D20100D6D20100B8D201009AD301008D
:10064000A8D30100A8D30100A8D30100A8D30100BA
:10065000A8D30100E2D30100F0D30100F0D20100E1
:1006600014D3010004D4010004D4010011000300DC
:10067000B1CF010012000300B1CF0100130003004D
:10068000B1CF010014000300B1CF0100042200200B
:10069000282200205C2200200B000000090000003E
:1006A000080000000A0000000000000000E0D70180
:1006B000010000074E6F726469635F554152540038
:1006C0000D0A55415254205374617274210D0A0071
:1006D00050E70100A0E7010018E70100BEE60100B5
:1006E00058E70100782700209ECADC240EE5A9E027
:1006F00093F3A3B50000406E00000000000000006E
:1007000000000000000000000000000000000000E9
:1007100000000000000000000000000000000000D9
:1007200000000000000000000000000000000000C9
:1007300000000000000000000000000000000000B9
:1007400000000000000000000000000000000000A9
:100750000000000000000000232D302B2000686CFA
:100760004C006566674546470030313233343536D4
:10077000373839414243444546003031323334350D
:100780003637383961626364656600000000000036
:0807900090A9FF7F01000000A9
:10079800EC1F0020000000001807020038070200C4
:1007A800F806020000000000000000000000000041
:1007B8000000000000000000000000000000000031
:1007C8000000000000000000000000000000000021
:1007D8000000000000000000000000000000000011
:1007E8000000000000000000000000000000000001
:1007F800000000000020004000000000010002008E
:10080800FFFF0000202600200000000040260020F6
:10081800000000000024F400E9B00100C1B00100AC
:0408280000000000CC
:040000031000ED59A3
:00000001FF
